{
  "_format": "hh-sol-artifact-1",
  "contractName": "LendingPool",
  "sourceName": "contracts/LendingPool.sol",
  "abi": [
    {
      "inputs": [
        {
          "internalType": "address",
          "name": "_rangerToken",
          "type": "address"
        },
        {
          "internalType": "address",
          "name": "_roleRegistry",
          "type": "address"
        },
        {
          "internalType": "address",
          "name": "_finternetGateway",
          "type": "address"
        }
      ],
      "stateMutability": "nonpayable",
      "type": "constructor"
    },
    {
      "inputs": [],
      "name": "ReentrancyGuardReentrantCall",
      "type": "error"
    },
    {
      "anonymous": false,
      "inputs": [
        {
          "indexed": true,
          "internalType": "uint256",
          "name": "offerId",
          "type": "uint256"
        },
        {
          "indexed": false,
          "internalType": "uint256",
          "name": "timestamp",
          "type": "uint256"
        }
      ],
      "name": "CollateralLiquidated",
      "type": "event"
    },
    {
      "anonymous": false,
      "inputs": [
        {
          "indexed": true,
          "internalType": "uint256",
          "name": "offerId",
          "type": "uint256"
        },
        {
          "indexed": false,
          "internalType": "uint256",
          "name": "disbursedAt",
          "type": "uint256"
        }
      ],
      "name": "LoanAccepted",
      "type": "event"
    },
    {
      "anonymous": false,
      "inputs": [
        {
          "indexed": true,
          "internalType": "uint256",
          "name": "offerId",
          "type": "uint256"
        },
        {
          "indexed": true,
          "internalType": "address",
          "name": "lender",
          "type": "address"
        },
        {
          "indexed": true,
          "internalType": "address",
          "name": "farmer",
          "type": "address"
        },
        {
          "indexed": false,
          "internalType": "uint256",
          "name": "tokenId",
          "type": "uint256"
        },
        {
          "indexed": false,
          "internalType": "uint256",
          "name": "loanAmount",
          "type": "uint256"
        }
      ],
      "name": "LoanOffered",
      "type": "event"
    },
    {
      "anonymous": false,
      "inputs": [
        {
          "indexed": true,
          "internalType": "uint256",
          "name": "offerId",
          "type": "uint256"
        },
        {
          "indexed": false,
          "internalType": "uint256",
          "name": "repaidAt",
          "type": "uint256"
        }
      ],
      "name": "LoanRepaid",
      "type": "event"
    },
    {
      "inputs": [],
      "name": "MAX_LTV_BASIS_POINTS",
      "outputs": [
        {
          "internalType": "uint256",
          "name": "",
          "type": "uint256"
        }
      ],
      "stateMutability": "view",
      "type": "function"
    },
    {
      "inputs": [
        {
          "internalType": "uint256",
          "name": "offerId",
          "type": "uint256"
        }
      ],
      "name": "acceptLoan",
      "outputs": [],
      "stateMutability": "nonpayable",
      "type": "function"
    },
    {
      "inputs": [
        {
          "internalType": "address",
          "name": "",
          "type": "address"
        },
        {
          "internalType": "uint256",
          "name": "",
          "type": "uint256"
        }
      ],
      "name": "activeLoans",
      "outputs": [
        {
          "internalType": "uint256",
          "name": "offerId",
          "type": "uint256"
        },
        {
          "internalType": "uint256",
          "name": "disbursedAt",
          "type": "uint256"
        },
        {
          "internalType": "uint256",
          "name": "dueDate",
          "type": "uint256"
        },
        {
          "internalType": "uint256",
          "name": "amountDue",
          "type": "uint256"
        }
      ],
      "stateMutability": "view",
      "type": "function"
    },
    {
      "inputs": [],
      "name": "finternetGateway",
      "outputs": [
        {
          "internalType": "contract IFinternetGateway",
          "name": "",
          "type": "address"
        }
      ],
      "stateMutability": "view",
      "type": "function"
    },
    {
      "inputs": [
        {
          "internalType": "address",
          "name": "farmer",
          "type": "address"
        },
        {
          "internalType": "uint256",
          "name": "tokenId",
          "type": "uint256"
        }
      ],
      "name": "getActiveLoan",
      "outputs": [
        {
          "internalType": "uint256",
          "name": "offerId",
          "type": "uint256"
        },
        {
          "internalType": "uint256",
          "name": "disbursedAt",
          "type": "uint256"
        },
        {
          "internalType": "uint256",
          "name": "dueDate",
          "type": "uint256"
        },
        {
          "internalType": "uint256",
          "name": "amountDue",
          "type": "uint256"
        },
        {
          "internalType": "bool",
          "name": "isActive",
          "type": "bool"
        }
      ],
      "stateMutability": "view",
      "type": "function"
    },
    {
      "inputs": [
        {
          "internalType": "address",
          "name": "farmer",
          "type": "address"
        }
      ],
      "name": "getFarmerLoans",
      "outputs": [
        {
          "internalType": "uint256[]",
          "name": "",
          "type": "uint256[]"
        }
      ],
      "stateMutability": "view",
      "type": "function"
    },
    {
      "inputs": [
        {
          "internalType": "uint256",
          "name": "offerId",
          "type": "uint256"
        }
      ],
      "name": "liquidateCollateral",
      "outputs": [],
      "stateMutability": "nonpayable",
      "type": "function"
    },
    {
      "inputs": [
        {
          "internalType": "uint256",
          "name": "",
          "type": "uint256"
        }
      ],
      "name": "loanOffers",
      "outputs": [
        {
          "internalType": "address",
          "name": "lender",
          "type": "address"
        },
        {
          "internalType": "uint256",
          "name": "tokenId",
          "type": "uint256"
        },
        {
          "internalType": "address",
          "name": "farmer",
          "type": "address"
        },
        {
          "internalType": "uint256",
          "name": "collateralAmount",
          "type": "uint256"
        },
        {
          "internalType": "uint256",
          "name": "loanAmount",
          "type": "uint256"
        },
        {
          "internalType": "uint256",
          "name": "interestRate",
          "type": "uint256"
        },
        {
          "internalType": "uint256",
          "name": "duration",
          "type": "uint256"
        },
        {
          "internalType": "uint256",
          "name": "offeredAt",
          "type": "uint256"
        },
        {
          "internalType": "bool",
          "name": "isAccepted",
          "type": "bool"
        },
        {
          "internalType": "bool",
          "name": "isRepaid",
          "type": "bool"
        }
      ],
      "stateMutability": "view",
      "type": "function"
    },
    {
      "inputs": [
        {
          "internalType": "address",
          "name": "farmer",
          "type": "address"
        },
        {
          "internalType": "uint256",
          "name": "tokenId",
          "type": "uint256"
        },
        {
          "internalType": "uint256",
          "name": "collateralAmount",
          "type": "uint256"
        },
        {
          "internalType": "uint256",
          "name": "loanAmount",
          "type": "uint256"
        },
        {
          "internalType": "uint256",
          "name": "interestRate",
          "type": "uint256"
        },
        {
          "internalType": "uint256",
          "name": "duration",
          "type": "uint256"
        }
      ],
      "name": "offerLoan",
      "outputs": [
        {
          "internalType": "uint256",
          "name": "",
          "type": "uint256"
        }
      ],
      "stateMutability": "nonpayable",
      "type": "function"
    },
    {
      "inputs": [],
      "name": "rangerToken",
      "outputs": [
        {
          "internalType": "contract RangerToken",
          "name": "",
          "type": "address"
        }
      ],
      "stateMutability": "view",
      "type": "function"
    },
    {
      "inputs": [
        {
          "internalType": "uint256",
          "name": "offerId",
          "type": "uint256"
        }
      ],
      "name": "repayLoan",
      "outputs": [],
      "stateMutability": "payable",
      "type": "function"
    },
    {
      "inputs": [],
      "name": "roleRegistry",
      "outputs": [
        {
          "internalType": "contract RoleRegistry",
          "name": "",
          "type": "address"
        }
      ],
      "stateMutability": "view",
      "type": "function"
    },
    {
      "stateMutability": "payable",
      "type": "receive"
    }
  ],
  "bytecode": "0x60806040523480156200001157600080fd5b5060405162001971380380620019718339810160408190526200003491620001a5565b60016000556001600160a01b038316620000955760405162461bcd60e51b815260206004820152601560248201527f496e76616c696420746f6b656e2061646472657373000000000000000000000060448201526064015b60405180910390fd5b6001600160a01b038216620000ed5760405162461bcd60e51b815260206004820152601860248201527f496e76616c69642072656769737472792061646472657373000000000000000060448201526064016200008c565b6001600160a01b038116620001455760405162461bcd60e51b815260206004820152601760248201527f496e76616c69642067617465776179206164647265737300000000000000000060448201526064016200008c565b600180546001600160a01b039485166001600160a01b031991821617909155600280549385169382169390931790925560038054919093169116179055620001ef565b80516001600160a01b0381168114620001a057600080fd5b919050565b600080600060608486031215620001bb57600080fd5b620001c68462000188565b9250620001d66020850162000188565b9150620001e66040850162000188565b90509250925092565b61177280620001ff6000396000f3fe6080604052600436106100ab5760003560e01c80639a2df2c9116100645780639a2df2c914610335578063a009444a14610355578063ab7b1c8914610375578063adfbe22f14610388578063b34e19c6146103a8578063bc31188b146103be57600080fd5b806303f24d3d146100b757806308c7325914610164578063211110631461019c5780632c7bdd4b146102095780633938ccdf146102e55780637a2f12a01461030757600080fd5b366100b257005b600080fd5b3480156100c357600080fd5b506101356100d236600461153f565b6001600160a01b039190911660009081526006602090815260408083209383529281529082902082516080810184528154808252600183015493820184905260028301549482018590526003909201546060909101819052909391929184151590565b6040805195865260208601949094529284019190915260608301521515608082015260a0015b60405180910390f35b34801561017057600080fd5b50600254610184906001600160a01b031681565b6040516001600160a01b03909116815260200161015b565b3480156101a857600080fd5b506101e96101b736600461153f565b600660209081526000928352604080842090915290825290208054600182015460028301546003909301549192909184565b60408051948552602085019390935291830152606082015260800161015b565b34801561021557600080fd5b5061028861022436600461156b565b60056020819052600091825260409091208054600182015460028301546003840154600485015495850154600686015460078701546008909701546001600160a01b0396871698959796909416959294939192909160ff808216916101009004168a565b604080516001600160a01b039b8c168152602081019a909a5297909916968801969096526060870194909452608086019290925260a085015260c084015260e083015215156101008201529015156101208201526101400161015b565b3480156102f157600080fd5b5061030561030036600461156b565b6103eb565b005b34801561031357600080fd5b50610327610322366004611584565b610724565b60405190815260200161015b565b34801561034157600080fd5b50600354610184906001600160a01b031681565b34801561036157600080fd5b50600154610184906001600160a01b031681565b61030561038336600461156b565b610cbb565b34801561039457600080fd5b506103056103a336600461156b565b6110e5565b3480156103b457600080fd5b50610327611b5881565b3480156103ca57600080fd5b506103de6103d93660046115d0565b611494565b60405161015b91906115f4565b6103f3611500565b6000818152600560205260409020600881015460ff1661044e5760405162461bcd60e51b8152602060048201526011602482015270131bd85b881b9bdd081858d8d95c1d1959607a1b60448201526064015b60405180910390fd5b6008810154610100900460ff161561049e5760405162461bcd60e51b8152602060048201526013602482015272131bd85b88185b1c9958591e481c995c185a59606a1b6044820152606401610445565b80546001600160a01b031633146104e85760405162461bcd60e51b815260206004820152600e60248201526d2737ba103a3432903632b73232b960911b6044820152606401610445565b6002808201546001600160a01b031660009081526006602090815260408083206001808701548552908352928190208151608081018352815481529381015492840192909252928101549282018390526003015460608201529042116105835760405162461bcd60e51b815260206004820152601060248201526f4c6f616e206e6f74206f76657264756560801b6044820152606401610445565b60088201805461ff001916610100179055600280830180546001600160a01b0390811660009081526006602090815260408083206001808a0180548652919093528184208481558084018590559687018490556003968701939093559054915493549487015490516377db25db60e01b815260048101949094529382166024840152604483019390935291909116906377db25db90606401600060405180830381600087803b15801561063557600080fd5b505af1158015610649573d6000803e3d6000fd5b5050600180546002860154918601546003870154604051637921219560e11b81526001600160a01b0394851660048201523360248201526044810192909252606482015260a06084820152600060a48201529116925063f242432a915060c401600060405180830381600087803b1580156106c357600080fd5b505af11580156106d7573d6000803e3d6000fd5b50505050827f524adb2d966e366fe4ac4c5d94b814afdb2e4a8879615407f112a91812251b604260405161070d91815260200190565b60405180910390a250506107216001600055565b50565b600061072e611500565b60025460405163074ac87760e41b81523360048201526001600160a01b03909116906374ac877090602401602060405180830381865afa158015610776573d6000803e3d6000fd5b505050506040513d601f19601f8201168201806040525081019061079a919061164d565b6107d85760405162461bcd60e51b815260206004820152600f60248201526e42616e6b206e6f742061637469766560881b6044820152606401610445565b6001600160a01b0387166108275760405162461bcd60e51b8152602060048201526016602482015275496e76616c6964206661726d6572206164647265737360501b6044820152606401610445565b6000851161086d5760405162461bcd60e51b815260206004820152601360248201527210dbdb1b185d195c985b081c995c5d5a5c9959606a1b6044820152606401610445565b600084116108b45760405162461bcd60e51b8152602060048201526014602482015273131bd85b88185b5bdd5b9d081c995c5d5a5c995960621b6044820152606401610445565b600082116108f85760405162461bcd60e51b8152602060048201526011602482015270111d5c985d1a5bdb881c995c5d5a5c9959607a1b6044820152606401610445565b60015460405162f577a560e81b8152600481018890526001600160a01b039091169063f577a50090602401602060405180830381865afa158015610940573d6000803e3d6000fd5b505050506040513d601f19601f82011682018060405250810190610964919061164d565b6109a25760405162461bcd60e51b815260206004820152600f60248201526e149958d95a5c1d08195e1c1a5c9959608a1b6044820152606401610445565b60015460405163dec2462960e01b8152600481018890526001600160a01b038981166024830152600092839283929091169063dec2462990604401606060405180830381865afa1580156109fa573d6000803e3d6000fd5b505050506040513d601f19601f82011682018060405250810190610a1e9190611668565b925092509250828015610a3957506001600160a01b03821633145b610a935760405162461bcd60e51b815260206004820152602560248201527f436f6c6c61746572616c206e6f7420706c656467656420746f2074686973206c60448201526432b73232b960d91b6064820152608401610445565b87811015610ae35760405162461bcd60e51b815260206004820152601760248201527f496e73756666696369656e7420636f6c6c61746572616c0000000000000000006044820152606401610445565b60048054906000610af3836116be565b919050555060006004549050604051806101400160405280336001600160a01b031681526020018b81526020018c6001600160a01b031681526020018a8152602001898152602001888152602001878152602001428152602001600015158152602001600015158152506005600083815260200190815260200160002060008201518160000160006101000a8154816001600160a01b0302191690836001600160a01b031602179055506020820151816001015560408201518160020160006101000a8154816001600160a01b0302191690836001600160a01b03160217905550606082015181600301556080820151816004015560a0820151816005015560c0820151816006015560e082015181600701556101008201518160080160006101000a81548160ff0219169083151502179055506101208201518160080160016101000a81548160ff0219169083151502179055509050508a6001600160a01b0316336001600160a01b0316827f440b32e33e8fb7444dd5c0d3acf31cad9fdf4e0a7887de30c4e790f352e02fd28d8c604051610c9a929190918252602082015260400190565b60405180910390a49350505050610cb16001600055565b9695505050505050565b610cc3611500565b6000818152600560205260409020600881015460ff16610d195760405162461bcd60e51b8152602060048201526011602482015270131bd85b881b9bdd081858d8d95c1d1959607a1b6044820152606401610445565b6008810154610100900460ff1615610d695760405162461bcd60e51b8152602060048201526013602482015272131bd85b88185b1c9958591e481c995c185a59606a1b6044820152606401610445565b60028101546001600160a01b03163314610db85760405162461bcd60e51b815260206004820152601060248201526f2737ba103a3432903137b93937bbb2b960811b6044820152606401610445565b336000908152600660209081526040808320600180860154855290835292819020815160808101835281548082529482015493810193909352600281015491830191909152600301546060820152908314610e465760405162461bcd60e51b815260206004820152600e60248201526d27379030b1ba34bb32903637b0b760911b6044820152606401610445565b8060600151341015610e935760405162461bcd60e51b8152602060048201526016602482015275125b9cdd59999a58da595b9d081c995c185e5b595b9d60521b6044820152606401610445565b60088201805461ff0019166101001790553360008181526006602090815260408083206001808801805486529190935281842084815580840185905560028101859055600390810194909455915491549286015490516377db25db60e01b81526004810193909352602483019390935260448201929092526001600160a01b03909116906377db25db90606401600060405180830381600087803b158015610f3a57600080fd5b505af1158015610f4e573d6000803e3d6000fd5b505083546060840151604051600094506001600160a01b039092169250908381818185875af1925050503d8060008114610fa4576040519150601f19603f3d011682016040523d82523d6000602084013e610fa9565b606091505b5050905080610ffa5760405162461bcd60e51b815260206004820152601960248201527f52657061796d656e74207472616e73666572206661696c6564000000000000006044820152606401610445565b816060015134111561109e576060820151600090339061101a90346116d7565b604051600081818185875af1925050503d8060008114611056576040519150601f19603f3d011682016040523d82523d6000602084013e61105b565b606091505b505090508061109c5760405162461bcd60e51b815260206004820152600d60248201526c1499599d5b990819985a5b1959609a1b6044820152606401610445565b505b837f040cee90ee4799897c30ca04e5feb6fa43dbba9b6d084b4b257cdafd84ba013e426040516110d091815260200190565b60405180910390a25050506107216001600055565b6110ed611500565b6000818152600560205260409020600881015460ff16156111485760405162461bcd60e51b8152602060048201526015602482015274131bd85b88185b1c9958591e481858d8d95c1d1959605a1b6044820152606401610445565b60028101546001600160a01b031633146111975760405162461bcd60e51b815260206004820152601060248201526f2737ba103a3432903137b93937bbb2b960811b6044820152606401610445565b600180549082015460405162f577a560e81b81526001600160a01b039092169163f577a500916111cd9160040190815260200190565b602060405180830381865afa1580156111ea573d6000803e3d6000fd5b505050506040513d601f19601f8201168201806040525081019061120e919061164d565b61124c5760405162461bcd60e51b815260206004820152600f60248201526e149958d95a5c1d08195e1c1a5c9959608a1b6044820152606401610445565b33600090815260066020908152604080832060018501548452909152902054156112ad5760405162461bcd60e51b8152602060048201526012602482015271416374697665206c6f616e2065786973747360701b6044820152606401610445565b6000612710826005015483600401546112c691906116f0565b6112d09190611707565b905060008183600401546112e49190611729565b60088401805460ff19166001179055604080516080810182528681524260208201819052600687015493945090929183019161131f91611729565b815260209081018390523360008181526006835260408082206001898101548452908552818320865181558686015181830155868301516002820155606090960151600390960195909555828252600784528082208054958601815582528382209094018890558351633637b0b760e11b818501526024810189905242604480830191909152855180830390910181526064909101948590528051930192909220600487015490938381818185875af1925050503d80600081146113ff576040519150601f19603f3d011682016040523d82523d6000602084013e611404565b606091505b505090508061144b5760405162461bcd60e51b8152602060048201526013602482015272111a5cd89d5c9cd95b595b9d0819985a5b1959606a1b6044820152606401610445565b857fadcf6e28387cd0e3ba570d00a625879df3276ca56aa25e798a491140c9174cb14260405161147d91815260200190565b60405180910390a250505050506107216001600055565b6001600160a01b0381166000908152600760209081526040918290208054835181840281018401909452808452606093928301828280156114f457602002820191906000526020600020905b8154815260200190600101908083116114e0575b50505050509050919050565b60026000540361152357604051633ee5aeb560e01b815260040160405180910390fd5b6002600055565b6001600160a01b038116811461072157600080fd5b6000806040838503121561155257600080fd5b823561155d8161152a565b946020939093013593505050565b60006020828403121561157d57600080fd5b5035919050565b60008060008060008060c0878903121561159d57600080fd5b86356115a88161152a565b9860208801359850604088013597606081013597506080810135965060a00135945092505050565b6000602082840312156115e257600080fd5b81356115ed8161152a565b9392505050565b6020808252825182820181905260009190848201906040850190845b8181101561162c57835183529284019291840191600101611610565b50909695505050505050565b8051801515811461164857600080fd5b919050565b60006020828403121561165f57600080fd5b6115ed82611638565b60008060006060848603121561167d57600080fd5b61168684611638565b925060208401516116968161152a565b80925050604084015190509250925092565b634e487b7160e01b600052601160045260246000fd5b6000600182016116d0576116d06116a8565b5060010190565b818103818111156116ea576116ea6116a8565b92915050565b80820281158282048414176116ea576116ea6116a8565b60008261172457634e487b7160e01b600052601260045260246000fd5b500490565b808201808211156116ea576116ea6116a856fea264697066735822122019b3f7d8cdae8b871e0c5f64f5eeb8ad92f1eeaebc731c937aa3047f77cbb4f464736f6c63430008140033",
  "linkReferences": {},
  "deployedLinkReferences": {}
}