{
  "_format": "hh-sol-artifact-1",
  "contractName": "LendingPool",
  "sourceName": "contracts/LendingPool.sol",
  "abi": [
    {
      "inputs": [
        {
          "internalType": "address",
          "name": "_rangerToken",
          "type": "address"
        },
        {
          "internalType": "address",
          "name": "_roleRegistry",
          "type": "address"
        },
        {
          "internalType": "address",
          "name": "_finternetGateway",
          "type": "address"
        }
      ],
      "stateMutability": "nonpayable",
      "type": "constructor"
    },
    {
      "inputs": [],
      "name": "ReentrancyGuardReentrantCall",
      "type": "error"
    },
    {
      "anonymous": false,
      "inputs": [
        {
          "indexed": true,
          "internalType": "uint256",
          "name": "offerId",
          "type": "uint256"
        },
        {
          "indexed": false,
          "internalType": "uint256",
          "name": "timestamp",
          "type": "uint256"
        }
      ],
      "name": "CollateralLiquidated",
      "type": "event"
    },
    {
      "anonymous": false,
      "inputs": [
        {
          "indexed": true,
          "internalType": "uint256",
          "name": "offerId",
          "type": "uint256"
        },
        {
          "indexed": false,
          "internalType": "uint256",
          "name": "disbursedAt",
          "type": "uint256"
        }
      ],
      "name": "LoanAccepted",
      "type": "event"
    },
    {
      "anonymous": false,
      "inputs": [
        {
          "indexed": true,
          "internalType": "uint256",
          "name": "offerId",
          "type": "uint256"
        },
        {
          "indexed": true,
          "internalType": "address",
          "name": "lender",
          "type": "address"
        },
        {
          "indexed": true,
          "internalType": "address",
          "name": "farmer",
          "type": "address"
        },
        {
          "indexed": false,
          "internalType": "uint256",
          "name": "tokenId",
          "type": "uint256"
        },
        {
          "indexed": false,
          "internalType": "uint256",
          "name": "loanAmount",
          "type": "uint256"
        }
      ],
      "name": "LoanOffered",
      "type": "event"
    },
    {
      "anonymous": false,
      "inputs": [
        {
          "indexed": true,
          "internalType": "uint256",
          "name": "offerId",
          "type": "uint256"
        },
        {
          "indexed": false,
          "internalType": "uint256",
          "name": "repaidAt",
          "type": "uint256"
        },
        {
          "indexed": false,
          "internalType": "uint256",
          "name": "platformFee",
          "type": "uint256"
        }
      ],
      "name": "LoanRepaid",
      "type": "event"
    },
    {
      "anonymous": false,
      "inputs": [
        {
          "indexed": false,
          "internalType": "uint256",
          "name": "amount",
          "type": "uint256"
        },
        {
          "indexed": false,
          "internalType": "uint256",
          "name": "totalCollected",
          "type": "uint256"
        }
      ],
      "name": "PlatformFeeCollected",
      "type": "event"
    },
    {
      "anonymous": false,
      "inputs": [
        {
          "indexed": true,
          "internalType": "address",
          "name": "admin",
          "type": "address"
        },
        {
          "indexed": false,
          "internalType": "uint256",
          "name": "amount",
          "type": "uint256"
        }
      ],
      "name": "PlatformFeeWithdrawn",
      "type": "event"
    },
    {
      "inputs": [],
      "name": "MAX_LTV_BASIS_POINTS",
      "outputs": [
        {
          "internalType": "uint256",
          "name": "",
          "type": "uint256"
        }
      ],
      "stateMutability": "view",
      "type": "function"
    },
    {
      "inputs": [
        {
          "internalType": "uint256",
          "name": "offerId",
          "type": "uint256"
        }
      ],
      "name": "acceptLoan",
      "outputs": [],
      "stateMutability": "nonpayable",
      "type": "function"
    },
    {
      "inputs": [
        {
          "internalType": "address",
          "name": "",
          "type": "address"
        },
        {
          "internalType": "uint256",
          "name": "",
          "type": "uint256"
        }
      ],
      "name": "activeLoans",
      "outputs": [
        {
          "internalType": "uint256",
          "name": "offerId",
          "type": "uint256"
        },
        {
          "internalType": "uint256",
          "name": "disbursedAt",
          "type": "uint256"
        },
        {
          "internalType": "uint256",
          "name": "dueDate",
          "type": "uint256"
        },
        {
          "internalType": "uint256",
          "name": "amountDue",
          "type": "uint256"
        }
      ],
      "stateMutability": "view",
      "type": "function"
    },
    {
      "inputs": [],
      "name": "collectedFees",
      "outputs": [
        {
          "internalType": "uint256",
          "name": "",
          "type": "uint256"
        }
      ],
      "stateMutability": "view",
      "type": "function"
    },
    {
      "inputs": [],
      "name": "finternetGateway",
      "outputs": [
        {
          "internalType": "contract IFinternetGateway",
          "name": "",
          "type": "address"
        }
      ],
      "stateMutability": "view",
      "type": "function"
    },
    {
      "inputs": [
        {
          "internalType": "address",
          "name": "farmer",
          "type": "address"
        },
        {
          "internalType": "uint256",
          "name": "tokenId",
          "type": "uint256"
        }
      ],
      "name": "getActiveLoan",
      "outputs": [
        {
          "internalType": "uint256",
          "name": "offerId",
          "type": "uint256"
        },
        {
          "internalType": "uint256",
          "name": "disbursedAt",
          "type": "uint256"
        },
        {
          "internalType": "uint256",
          "name": "dueDate",
          "type": "uint256"
        },
        {
          "internalType": "uint256",
          "name": "amountDue",
          "type": "uint256"
        },
        {
          "internalType": "bool",
          "name": "isActive",
          "type": "bool"
        }
      ],
      "stateMutability": "view",
      "type": "function"
    },
    {
      "inputs": [
        {
          "internalType": "address",
          "name": "farmer",
          "type": "address"
        }
      ],
      "name": "getFarmerLoans",
      "outputs": [
        {
          "internalType": "uint256[]",
          "name": "",
          "type": "uint256[]"
        }
      ],
      "stateMutability": "view",
      "type": "function"
    },
    {
      "inputs": [
        {
          "internalType": "uint256",
          "name": "offerId",
          "type": "uint256"
        }
      ],
      "name": "liquidateCollateral",
      "outputs": [],
      "stateMutability": "nonpayable",
      "type": "function"
    },
    {
      "inputs": [
        {
          "internalType": "uint256",
          "name": "",
          "type": "uint256"
        }
      ],
      "name": "loanOffers",
      "outputs": [
        {
          "internalType": "address",
          "name": "lender",
          "type": "address"
        },
        {
          "internalType": "uint256",
          "name": "tokenId",
          "type": "uint256"
        },
        {
          "internalType": "address",
          "name": "farmer",
          "type": "address"
        },
        {
          "internalType": "uint256",
          "name": "collateralAmount",
          "type": "uint256"
        },
        {
          "internalType": "uint256",
          "name": "loanAmount",
          "type": "uint256"
        },
        {
          "internalType": "uint256",
          "name": "interestRate",
          "type": "uint256"
        },
        {
          "internalType": "uint256",
          "name": "duration",
          "type": "uint256"
        },
        {
          "internalType": "uint256",
          "name": "offeredAt",
          "type": "uint256"
        },
        {
          "internalType": "bool",
          "name": "isAccepted",
          "type": "bool"
        },
        {
          "internalType": "bool",
          "name": "isRepaid",
          "type": "bool"
        }
      ],
      "stateMutability": "view",
      "type": "function"
    },
    {
      "inputs": [
        {
          "internalType": "address",
          "name": "farmer",
          "type": "address"
        },
        {
          "internalType": "uint256",
          "name": "tokenId",
          "type": "uint256"
        },
        {
          "internalType": "uint256",
          "name": "collateralAmount",
          "type": "uint256"
        },
        {
          "internalType": "uint256",
          "name": "loanAmount",
          "type": "uint256"
        },
        {
          "internalType": "uint256",
          "name": "interestRate",
          "type": "uint256"
        },
        {
          "internalType": "uint256",
          "name": "duration",
          "type": "uint256"
        }
      ],
      "name": "offerLoan",
      "outputs": [
        {
          "internalType": "uint256",
          "name": "",
          "type": "uint256"
        }
      ],
      "stateMutability": "nonpayable",
      "type": "function"
    },
    {
      "inputs": [],
      "name": "platformAdmin",
      "outputs": [
        {
          "internalType": "address",
          "name": "",
          "type": "address"
        }
      ],
      "stateMutability": "view",
      "type": "function"
    },
    {
      "inputs": [],
      "name": "platformFeeRate",
      "outputs": [
        {
          "internalType": "uint256",
          "name": "",
          "type": "uint256"
        }
      ],
      "stateMutability": "view",
      "type": "function"
    },
    {
      "inputs": [],
      "name": "rangerToken",
      "outputs": [
        {
          "internalType": "contract RangerToken",
          "name": "",
          "type": "address"
        }
      ],
      "stateMutability": "view",
      "type": "function"
    },
    {
      "inputs": [
        {
          "internalType": "uint256",
          "name": "offerId",
          "type": "uint256"
        }
      ],
      "name": "repayLoan",
      "outputs": [],
      "stateMutability": "payable",
      "type": "function"
    },
    {
      "inputs": [],
      "name": "roleRegistry",
      "outputs": [
        {
          "internalType": "contract RoleRegistry",
          "name": "",
          "type": "address"
        }
      ],
      "stateMutability": "view",
      "type": "function"
    },
    {
      "inputs": [
        {
          "internalType": "address",
          "name": "newAdmin",
          "type": "address"
        }
      ],
      "name": "transferPlatformAdmin",
      "outputs": [],
      "stateMutability": "nonpayable",
      "type": "function"
    },
    {
      "inputs": [
        {
          "internalType": "uint256",
          "name": "newFeeRate",
          "type": "uint256"
        }
      ],
      "name": "updatePlatformFeeRate",
      "outputs": [],
      "stateMutability": "nonpayable",
      "type": "function"
    },
    {
      "inputs": [],
      "name": "withdrawPlatformFees",
      "outputs": [],
      "stateMutability": "nonpayable",
      "type": "function"
    },
    {
      "stateMutability": "payable",
      "type": "receive"
    }
  ],
  "bytecode": "0x60806040526101f46005553480156200001757600080fd5b5060405162001d6b38038062001d6b8339810160408190526200003a91620001b8565b60016000556001600160a01b0383166200009b5760405162461bcd60e51b815260206004820152601560248201527f496e76616c696420746f6b656e2061646472657373000000000000000000000060448201526064015b60405180910390fd5b6001600160a01b038216620000f35760405162461bcd60e51b815260206004820152601860248201527f496e76616c696420726567697374727920616464726573730000000000000000604482015260640162000092565b6001600160a01b0381166200014b5760405162461bcd60e51b815260206004820152601760248201527f496e76616c696420676174657761792061646472657373000000000000000000604482015260640162000092565b600180546001600160a01b039485166001600160a01b0319918216179091556002805493851693821693909317909255600380549190931690821617909155600480549091163317905562000202565b80516001600160a01b0381168114620001b357600080fd5b919050565b600080600060608486031215620001ce57600080fd5b620001d9846200019b565b9250620001e9602085016200019b565b9150620001f9604085016200019b565b90509250925092565b611b5980620002126000396000f3fe60806040526004361061010d5760003560e01c8063a009444a11610095578063b34e19c611610064578063b34e19c61461045f578063bc31188b14610475578063cdcd7fb5146104a2578063d0b7830b146104c2578063eeca08f0146104d757600080fd5b8063a009444a146103ec578063ab7b1c891461040c578063adfbe22f1461041f578063ae3b7f061461043f57600080fd5b80633397d9a2116100dc5780633397d9a2146103465780633938ccdf146103685780637a2f12a0146103885780639003adfe146103b65780639a2df2c9146103cc57600080fd5b806303f24d3d1461011957806308c73259146101c657806321111063146101fe5780632c7bdd4b1461026b57600080fd5b3661011457005b600080fd5b34801561012557600080fd5b50610197610134366004611926565b6001600160a01b039190911660009081526009602090815260408083209383529281529082902082516080810184528154808252600183015493820184905260028301549482018590526003909201546060909101819052909391929184151590565b6040805195865260208601949094529284019190915260608301521515608082015260a0015b60405180910390f35b3480156101d257600080fd5b506002546101e6906001600160a01b031681565b6040516001600160a01b0390911681526020016101bd565b34801561020a57600080fd5b5061024b610219366004611926565b600960209081526000928352604080842090915290825290208054600182015460028301546003909301549192909184565b6040805194855260208501939093529183015260608201526080016101bd565b34801561027757600080fd5b506102e9610286366004611952565b60086020819052600091825260409091208054600182015460028301546003840154600485015460058601546006870154600788015497909801546001600160a01b03968716989597949096169592949193909260ff808216916101009004168a565b604080516001600160a01b039b8c168152602081019a909a5297909916968801969096526060870194909452608086019290925260a085015260c084015260e08301521515610100820152901515610120820152610140016101bd565b34801561035257600080fd5b5061036661036136600461196b565b6104ed565b005b34801561037457600080fd5b50610366610383366004611952565b6105a3565b34801561039457600080fd5b506103a86103a336600461198f565b6108d9565b6040519081526020016101bd565b3480156103c257600080fd5b506103a860065481565b3480156103d857600080fd5b506003546101e6906001600160a01b031681565b3480156103f857600080fd5b506001546101e6906001600160a01b031681565b61036661041a366004611952565b610dc6565b34801561042b57600080fd5b5061036661043a366004611952565b61128f565b34801561044b57600080fd5b5061036661045a366004611952565b611640565b34801561046b57600080fd5b506103a8611b5881565b34801561048157600080fd5b5061049561049036600461196b565b6116de565b6040516101bd91906119db565b3480156104ae57600080fd5b506004546101e6906001600160a01b031681565b3480156104ce57600080fd5b5061036661174a565b3480156104e357600080fd5b506103a860055481565b6004546001600160a01b031633146105395760405162461bcd60e51b815260206004820152600a60248201526927b7363c9030b236b4b760b11b60448201526064015b60405180910390fd5b6001600160a01b0381166105815760405162461bcd60e51b815260206004820152600f60248201526e496e76616c6964206164647265737360881b6044820152606401610530565b600480546001600160a01b0319166001600160a01b0392909216919091179055565b6105ab6118e7565b60008181526008602081905260409091209081015460ff166106035760405162461bcd60e51b8152602060048201526011602482015270131bd85b881b9bdd081858d8d95c1d1959607a1b6044820152606401610530565b6008810154610100900460ff16156106535760405162461bcd60e51b8152602060048201526013602482015272131bd85b88185b1c9958591e481c995c185a59606a1b6044820152606401610530565b80546001600160a01b0316331461069d5760405162461bcd60e51b815260206004820152600e60248201526d2737ba103a3432903632b73232b960911b6044820152606401610530565b6002808201546001600160a01b031660009081526009602090815260408083206001808701548552908352928190208151608081018352815481529381015492840192909252928101549282018390526003015460608201529042116107385760405162461bcd60e51b815260206004820152601060248201526f4c6f616e206e6f74206f76657264756560801b6044820152606401610530565b60088201805461ff001916610100179055600280830180546001600160a01b0390811660009081526009602090815260408083206001808a0180548652919093528184208481558084018590559687018490556003968701939093559054915493549487015490516377db25db60e01b815260048101949094529382166024840152604483019390935291909116906377db25db90606401600060405180830381600087803b1580156107ea57600080fd5b505af11580156107fe573d6000803e3d6000fd5b5050600180546002860154918601546003870154604051637921219560e11b81526001600160a01b0394851660048201523360248201526044810192909252606482015260a06084820152600060a48201529116925063f242432a915060c401600060405180830381600087803b15801561087857600080fd5b505af115801561088c573d6000803e3d6000fd5b50505050827f524adb2d966e366fe4ac4c5d94b814afdb2e4a8879615407f112a91812251b60426040516108c291815260200190565b60405180910390a250506108d66001600055565b50565b60006108e36118e7565b6001600160a01b0387166109325760405162461bcd60e51b8152602060048201526016602482015275496e76616c6964206661726d6572206164647265737360501b6044820152606401610530565b600085116109785760405162461bcd60e51b815260206004820152601360248201527210dbdb1b185d195c985b081c995c5d5a5c9959606a1b6044820152606401610530565b600084116109bf5760405162461bcd60e51b8152602060048201526014602482015273131bd85b88185b5bdd5b9d081c995c5d5a5c995960621b6044820152606401610530565b60008211610a035760405162461bcd60e51b8152602060048201526011602482015270111d5c985d1a5bdb881c995c5d5a5c9959607a1b6044820152606401610530565b60015460405162f577a560e81b8152600481018890526001600160a01b039091169063f577a50090602401602060405180830381865afa158015610a4b573d6000803e3d6000fd5b505050506040513d601f19601f82011682018060405250810190610a6f9190611a34565b610aad5760405162461bcd60e51b815260206004820152600f60248201526e149958d95a5c1d08195e1c1a5c9959608a1b6044820152606401610530565b60015460405163dec2462960e01b8152600481018890526001600160a01b038981166024830152600092839283929091169063dec2462990604401606060405180830381865afa158015610b05573d6000803e3d6000fd5b505050506040513d601f19601f82011682018060405250810190610b299190611a4f565b925092509250828015610b4457506001600160a01b03821633145b610b9e5760405162461bcd60e51b815260206004820152602560248201527f436f6c6c61746572616c206e6f7420706c656467656420746f2074686973206c60448201526432b73232b960d91b6064820152608401610530565b87811015610bee5760405162461bcd60e51b815260206004820152601760248201527f496e73756666696369656e7420636f6c6c61746572616c0000000000000000006044820152606401610530565b60078054906000610bfe83611aa5565b919050555060006007549050604051806101400160405280336001600160a01b031681526020018b81526020018c6001600160a01b031681526020018a8152602001898152602001888152602001878152602001428152602001600015158152602001600015158152506008600083815260200190815260200160002060008201518160000160006101000a8154816001600160a01b0302191690836001600160a01b031602179055506020820151816001015560408201518160020160006101000a8154816001600160a01b0302191690836001600160a01b03160217905550606082015181600301556080820151816004015560a0820151816005015560c0820151816006015560e082015181600701556101008201518160080160006101000a81548160ff0219169083151502179055506101208201518160080160016101000a81548160ff0219169083151502179055509050508a6001600160a01b0316336001600160a01b0316827f440b32e33e8fb7444dd5c0d3acf31cad9fdf4e0a7887de30c4e790f352e02fd28d8c604051610da5929190918252602082015260400190565b60405180910390a49350505050610dbc6001600055565b9695505050505050565b610dce6118e7565b60008181526008602081905260409091209081015460ff16610e265760405162461bcd60e51b8152602060048201526011602482015270131bd85b881b9bdd081858d8d95c1d1959607a1b6044820152606401610530565b6008810154610100900460ff1615610e765760405162461bcd60e51b8152602060048201526013602482015272131bd85b88185b1c9958591e481c995c185a59606a1b6044820152606401610530565b60028101546001600160a01b03163314610ec55760405162461bcd60e51b815260206004820152601060248201526f2737ba103a3432903137b93937bbb2b960811b6044820152606401610530565b336000908152600960209081526040808320600180860154855290835292819020815160808101835281548082529482015493810193909352600281015491830191909152600301546060820152908314610f535760405162461bcd60e51b815260206004820152600e60248201526d27379030b1ba34bb32903637b0b760911b6044820152606401610530565b8060600151341015610fa05760405162461bcd60e51b8152602060048201526016602482015275125b9cdd59999a58da595b9d081c995c185e5b595b9d60521b6044820152606401610530565b60088201805461ff0019166101001790553360008181526009602090815260408083206001808801805486529190935281842084815580840185905560028101859055600390810194909455915491549286015490516377db25db60e01b81526004810193909352602483019390935260448201929092526001600160a01b03909116906377db25db90606401600060405180830381600087803b15801561104757600080fd5b505af115801561105b573d6000803e3d6000fd5b505050506000826004015482606001516110759190611abe565b905060006127106005548361108a9190611ad7565b6110949190611aee565b905060008184606001516110a89190611abe565b905081600660008282546110bc9190611b10565b90915550506006546040805184815260208101929092527fa8341f104131cae3e9965326a01662a1e0dc3dc60c8d099fefa4578ef8f6f9ae910160405180910390a184546040516000916001600160a01b03169083908381818185875af1925050503d806000811461114a576040519150601f19603f3d011682016040523d82523d6000602084013e61114f565b606091505b50509050806111a05760405162461bcd60e51b815260206004820152601960248201527f52657061796d656e74207472616e73666572206661696c6564000000000000006044820152606401610530565b846060015134111561124457606085015160009033906111c09034611abe565b604051600081818185875af1925050503d80600081146111fc576040519150601f19603f3d011682016040523d82523d6000602084013e611201565b606091505b50509050806112425760405162461bcd60e51b815260206004820152600d60248201526c1499599d5b990819985a5b1959609a1b6044820152606401610530565b505b604080514281526020810185905288917fd9cfbcfb9ae5d65b8d34072de4575f602ee25cf3715bc05c291701fe9e258f9a910160405180910390a25050505050506108d66001600055565b6112976118e7565b60008181526008602081905260409091209081015460ff16156112f45760405162461bcd60e51b8152602060048201526015602482015274131bd85b88185b1c9958591e481858d8d95c1d1959605a1b6044820152606401610530565b60028101546001600160a01b031633146113435760405162461bcd60e51b815260206004820152601060248201526f2737ba103a3432903137b93937bbb2b960811b6044820152606401610530565b600180549082015460405162f577a560e81b81526001600160a01b039092169163f577a500916113799160040190815260200190565b602060405180830381865afa158015611396573d6000803e3d6000fd5b505050506040513d601f19601f820116820180604052508101906113ba9190611a34565b6113f85760405162461bcd60e51b815260206004820152600f60248201526e149958d95a5c1d08195e1c1a5c9959608a1b6044820152606401610530565b33600090815260096020908152604080832060018501548452909152902054156114595760405162461bcd60e51b8152602060048201526012602482015271416374697665206c6f616e2065786973747360701b6044820152606401610530565b6000612710826005015483600401546114729190611ad7565b61147c9190611aee565b905060008183600401546114909190611b10565b60088401805460ff1916600117905560408051608081018252868152426020820181905260068701549394509092918301916114cb91611b10565b815260209081018390523360008181526009835260408082206001898101548452908552818320865181558686015181830155868301516002820155606090960151600390960195909555828252600a84528082208054958601815582528382209094018890558351633637b0b760e11b818501526024810189905242604480830191909152855180830390910181526064909101948590528051930192909220600487015490938381818185875af1925050503d80600081146115ab576040519150601f19603f3d011682016040523d82523d6000602084013e6115b0565b606091505b50509050806115f75760405162461bcd60e51b8152602060048201526013602482015272111a5cd89d5c9cd95b595b9d0819985a5b1959606a1b6044820152606401610530565b857fadcf6e28387cd0e3ba570d00a625879df3276ca56aa25e798a491140c9174cb14260405161162991815260200190565b60405180910390a250505050506108d66001600055565b6004546001600160a01b031633146116875760405162461bcd60e51b815260206004820152600a60248201526927b7363c9030b236b4b760b11b6044820152606401610530565b6103e88111156116d95760405162461bcd60e51b815260206004820152601b60248201527f466565207261746520746f6f206869676820286d6178203130252900000000006044820152606401610530565b600555565b6001600160a01b0381166000908152600a602090815260409182902080548351818402810184019094528084526060939283018282801561173e57602002820191906000526020600020905b81548152602001906001019080831161172a575b50505050509050919050565b6117526118e7565b6004546001600160a01b031633146117ac5760405162461bcd60e51b815260206004820152601760248201527f4f6e6c792061646d696e2063616e2077697468647261770000000000000000006044820152606401610530565b6000600654116117f45760405162461bcd60e51b81526020600482015260136024820152724e6f206665657320746f20776974686472617760681b6044820152606401610530565b600680546000918290556004546040519192916001600160a01b039091169083908381818185875af1925050503d806000811461184d576040519150601f19603f3d011682016040523d82523d6000602084013e611852565b606091505b50509050806118975760405162461bcd60e51b815260206004820152601160248201527015da5d1a191c985dd85b0819985a5b1959607a1b6044820152606401610530565b6004546040518381526001600160a01b03909116907fd116803f8b8538a601b6096e8d1196e3ce3ef43dec6dbbe4cd4e5c69dd171d8b9060200160405180910390a250506118e56001600055565b565b60026000540361190a57604051633ee5aeb560e01b815260040160405180910390fd5b6002600055565b6001600160a01b03811681146108d657600080fd5b6000806040838503121561193957600080fd5b823561194481611911565b946020939093013593505050565b60006020828403121561196457600080fd5b5035919050565b60006020828403121561197d57600080fd5b813561198881611911565b9392505050565b60008060008060008060c087890312156119a857600080fd5b86356119b381611911565b9860208801359850604088013597606081013597506080810135965060a00135945092505050565b6020808252825182820181905260009190848201906040850190845b81811015611a13578351835292840192918401916001016119f7565b50909695505050505050565b80518015158114611a2f57600080fd5b919050565b600060208284031215611a4657600080fd5b61198882611a1f565b600080600060608486031215611a6457600080fd5b611a6d84611a1f565b92506020840151611a7d81611911565b80925050604084015190509250925092565b634e487b7160e01b600052601160045260246000fd5b600060018201611ab757611ab7611a8f565b5060010190565b81810381811115611ad157611ad1611a8f565b92915050565b8082028115828204841417611ad157611ad1611a8f565b600082611b0b57634e487b7160e01b600052601260045260246000fd5b500490565b80820180821115611ad157611ad1611a8f56fea26469706673582212202fbe2b7267540917fa2698730ba7fd00521ca86a456daa865be2c9417535cab364736f6c63430008140033",
  "linkReferences": {},
  "deployedLinkReferences": {}
}