{
  "_format": "hh-sol-artifact-1",
  "contractName": "Marketplace",
  "sourceName": "contracts/Marketplace.sol",
  "abi": [
    {
      "inputs": [
        {
          "internalType": "address",
          "name": "_rangerToken",
          "type": "address"
        },
        {
          "internalType": "address",
          "name": "_finternetGateway",
          "type": "address"
        }
      ],
      "stateMutability": "nonpayable",
      "type": "constructor"
    },
    {
      "inputs": [],
      "name": "ReentrancyGuardReentrantCall",
      "type": "error"
    },
    {
      "anonymous": false,
      "inputs": [
        {
          "indexed": true,
          "internalType": "uint256",
          "name": "listingId",
          "type": "uint256"
        },
        {
          "indexed": false,
          "internalType": "uint256",
          "name": "timestamp",
          "type": "uint256"
        }
      ],
      "name": "ListingCancelled",
      "type": "event"
    },
    {
      "anonymous": false,
      "inputs": [
        {
          "indexed": true,
          "internalType": "uint256",
          "name": "listingId",
          "type": "uint256"
        },
        {
          "indexed": true,
          "internalType": "address",
          "name": "seller",
          "type": "address"
        },
        {
          "indexed": true,
          "internalType": "uint256",
          "name": "tokenId",
          "type": "uint256"
        },
        {
          "indexed": false,
          "internalType": "uint256",
          "name": "quantity",
          "type": "uint256"
        },
        {
          "indexed": false,
          "internalType": "uint256",
          "name": "pricePerKg",
          "type": "uint256"
        }
      ],
      "name": "ListingCreated",
      "type": "event"
    },
    {
      "anonymous": false,
      "inputs": [
        {
          "indexed": true,
          "internalType": "uint256",
          "name": "listingId",
          "type": "uint256"
        },
        {
          "indexed": true,
          "internalType": "address",
          "name": "buyer",
          "type": "address"
        },
        {
          "indexed": false,
          "internalType": "uint256",
          "name": "quantity",
          "type": "uint256"
        },
        {
          "indexed": false,
          "internalType": "uint256",
          "name": "totalPrice",
          "type": "uint256"
        }
      ],
      "name": "PurchaseCompleted",
      "type": "event"
    },
    {
      "inputs": [
        {
          "internalType": "uint256",
          "name": "listingId",
          "type": "uint256"
        },
        {
          "internalType": "uint256",
          "name": "quantity",
          "type": "uint256"
        }
      ],
      "name": "buyToken",
      "outputs": [],
      "stateMutability": "payable",
      "type": "function"
    },
    {
      "inputs": [
        {
          "internalType": "uint256",
          "name": "listingId",
          "type": "uint256"
        }
      ],
      "name": "cancelListing",
      "outputs": [],
      "stateMutability": "nonpayable",
      "type": "function"
    },
    {
      "inputs": [],
      "name": "finternetGateway",
      "outputs": [
        {
          "internalType": "contract IFinternetGateway",
          "name": "",
          "type": "address"
        }
      ],
      "stateMutability": "view",
      "type": "function"
    },
    {
      "inputs": [
        {
          "internalType": "uint256",
          "name": "listingId",
          "type": "uint256"
        }
      ],
      "name": "getListing",
      "outputs": [
        {
          "internalType": "address",
          "name": "seller",
          "type": "address"
        },
        {
          "internalType": "uint256",
          "name": "tokenId",
          "type": "uint256"
        },
        {
          "internalType": "uint256",
          "name": "quantity",
          "type": "uint256"
        },
        {
          "internalType": "uint256",
          "name": "pricePerKg",
          "type": "uint256"
        },
        {
          "internalType": "bool",
          "name": "isActive",
          "type": "bool"
        },
        {
          "internalType": "uint256",
          "name": "createdAt",
          "type": "uint256"
        }
      ],
      "stateMutability": "view",
      "type": "function"
    },
    {
      "inputs": [
        {
          "internalType": "address",
          "name": "seller",
          "type": "address"
        }
      ],
      "name": "getSellerListings",
      "outputs": [
        {
          "internalType": "uint256[]",
          "name": "",
          "type": "uint256[]"
        }
      ],
      "stateMutability": "view",
      "type": "function"
    },
    {
      "inputs": [
        {
          "internalType": "uint256",
          "name": "tokenId",
          "type": "uint256"
        },
        {
          "internalType": "uint256",
          "name": "quantity",
          "type": "uint256"
        },
        {
          "internalType": "uint256",
          "name": "pricePerKg",
          "type": "uint256"
        }
      ],
      "name": "listForSale",
      "outputs": [
        {
          "internalType": "uint256",
          "name": "",
          "type": "uint256"
        }
      ],
      "stateMutability": "nonpayable",
      "type": "function"
    },
    {
      "inputs": [
        {
          "internalType": "uint256",
          "name": "",
          "type": "uint256"
        }
      ],
      "name": "listings",
      "outputs": [
        {
          "internalType": "address",
          "name": "seller",
          "type": "address"
        },
        {
          "internalType": "uint256",
          "name": "tokenId",
          "type": "uint256"
        },
        {
          "internalType": "uint256",
          "name": "quantity",
          "type": "uint256"
        },
        {
          "internalType": "uint256",
          "name": "pricePerKg",
          "type": "uint256"
        },
        {
          "internalType": "bool",
          "name": "isActive",
          "type": "bool"
        },
        {
          "internalType": "uint256",
          "name": "createdAt",
          "type": "uint256"
        }
      ],
      "stateMutability": "view",
      "type": "function"
    },
    {
      "inputs": [],
      "name": "rangerToken",
      "outputs": [
        {
          "internalType": "contract RangerToken",
          "name": "",
          "type": "address"
        }
      ],
      "stateMutability": "view",
      "type": "function"
    }
  ],
  "bytecode": "0x608060405234801561001057600080fd5b50604051610f95380380610f9583398101604081905261002f91610132565b60016000556001600160a01b03821661008f5760405162461bcd60e51b815260206004820152601560248201527f496e76616c696420746f6b656e2061646472657373000000000000000000000060448201526064015b60405180910390fd5b6001600160a01b0381166100e55760405162461bcd60e51b815260206004820152601760248201527f496e76616c6964206761746577617920616464726573730000000000000000006044820152606401610086565b600180546001600160a01b039384166001600160a01b03199182161790915560028054929093169116179055610165565b80516001600160a01b038116811461012d57600080fd5b919050565b6000806040838503121561014557600080fd5b61014e83610116565b915061015c60208401610116565b90509250929050565b610e21806101746000396000f3fe60806040526004361061007b5760003560e01c80639a2df2c91161004e5780639a2df2c9146101aa578063a009444a146101e2578063de74e57b14610202578063ee3c65d51461026257600080fd5b8063057466ea14610080578063107a274a14610095578063305a67a81461015d5780635f42da091461017d575b600080fd5b61009361008e366004610c26565b610290565b005b3480156100a157600080fd5b5061011f6100b0366004610c48565b600090815260046020818152604092839020835160c08101855281546001600160a01b0316808252600183015493820184905260028301549582018690526003830154606083018190529483015460ff1615156080830181905260059093015460a09092018290529592949392565b604080516001600160a01b03909716875260208701959095529385019290925260608401521515608083015260a082015260c0015b60405180910390f35b34801561016957600080fd5b50610093610178366004610c48565b6106e1565b34801561018957600080fd5b5061019d610198366004610c76565b6107db565b6040516101549190610c93565b3480156101b657600080fd5b506002546101ca906001600160a01b031681565b6040516001600160a01b039091168152602001610154565b3480156101ee57600080fd5b506001546101ca906001600160a01b031681565b34801561020e57600080fd5b5061011f61021d366004610c48565b60046020819052600091825260409091208054600182015460028301546003840154948401546005909401546001600160a01b03909316949193909260ff9091169086565b34801561026e57600080fd5b5061028261027d366004610cd7565b610847565b604051908152602001610154565b610298610bfc565b60008281526004602081905260409091209081015460ff166102f65760405162461bcd60e51b81526020600482015260126024820152714c697374696e67206e6f742061637469766560701b60448201526064015b60405180910390fd5b60008211801561030a575080600201548211155b6103495760405162461bcd60e51b815260206004820152601060248201526f496e76616c6964207175616e7469747960801b60448201526064016102ed565b600180549082015460405162f577a560e81b81526001600160a01b039092169163f577a5009161037f9160040190815260200190565b602060405180830381865afa15801561039c573d6000803e3d6000fd5b505050506040513d601f19601f820116820180604052508101906103c09190610d18565b6103fe5760405162461bcd60e51b815260206004820152600f60248201526e149958d95a5c1d08195e1c1a5c9959608a1b60448201526064016102ed565b60008160030154836104109190610d49565b9050803410156104595760405162461bcd60e51b8152602060048201526014602482015273125b9cdd59999a58da595b9d081c185e5b595b9d60621b60448201526064016102ed565b8282600201600082825461046d9190610d66565b9091555050600282015460000361048b5760048201805460ff191690555b60018054835491840154604051637921219560e11b81526001600160a01b03938416600482015233602482015260448101919091526064810186905260a06084820152600060a482015291169063f242432a9060c401600060405180830381600087803b1580156104fb57600080fd5b505af115801561050f573d6000803e3d6000fd5b50506040805160208082018990523360601b6bffffffffffffffffffffffff191682840152426054808401919091528351808403909101815260749092019283905281519101208554909350600092506001600160a01b03169084908381818185875af1925050503d80600081146105a3576040519150601f19603f3d011682016040523d82523d6000602084013e6105a8565b606091505b50509050806105f95760405162461bcd60e51b815260206004820152601760248201527f5061796d656e74207472616e73666572206661696c656400000000000000000060448201526064016102ed565b823411156106925760003361060e8534610d66565b604051600081818185875af1925050503d806000811461064a576040519150601f19603f3d011682016040523d82523d6000602084013e61064f565b606091505b50509050806106905760405162461bcd60e51b815260206004820152600d60248201526c1499599d5b990819985a5b1959609a1b60448201526064016102ed565b505b6040805186815260208101859052339188917f8a851ef52cc28a8639e6693c30f783523b6305558901b362a7e4f6369ecec90b910160405180910390a3505050506106dd6001600055565b5050565b6106e9610bfc565b60008181526004602081905260409091209081015460ff166107425760405162461bcd60e51b81526020600482015260126024820152714c697374696e67206e6f742061637469766560701b60448201526064016102ed565b80546001600160a01b0316331461078c5760405162461bcd60e51b815260206004820152600e60248201526d2737ba103a34329039b2b63632b960911b60448201526064016102ed565b60048101805460ff1916905560405142815282907fafd0a85a3f09cebbc7d9fcde08e8a7d0ebb0aa7d768a030915c3816a053d3c7a9060200160405180910390a2506107d86001600055565b50565b6001600160a01b03811660009081526005602090815260409182902080548351818402810184019094528084526060939283018282801561083b57602002820191906000526020600020905b815481526020019060010190808311610827575b50505050509050919050565b6000610851610bfc565b600083116108985760405162461bcd60e51b815260206004820152601460248201527305175616e74697479206d757374206265203e20360641b60448201526064016102ed565b600082116108dc5760405162461bcd60e51b815260206004820152601160248201527005072696365206d757374206265203e203607c1b60448201526064016102ed565b60015460405162f577a560e81b8152600481018690526001600160a01b039091169063f577a50090602401602060405180830381865afa158015610924573d6000803e3d6000fd5b505050506040513d601f19601f820116820180604052508101906109489190610d18565b6109865760405162461bcd60e51b815260206004820152600f60248201526e149958d95a5c1d08195e1c1a5c9959608a1b60448201526064016102ed565b600154604051627eeac760e11b8152336004820152602481018690526000916001600160a01b03169062fdd58e90604401602060405180830381865afa1580156109d4573d6000803e3d6000fd5b505050506040513d601f19601f820116820180604052508101906109f89190610d79565b60015460405163dec2462960e01b81526004810188905233602482015291925060009182916001600160a01b03169063dec2462990604401606060405180830381865afa158015610a4d573d6000803e3d6000fd5b505050506040513d601f19601f82011682018060405250810190610a719190610d92565b9250509150600082610a84576000610a86565b815b610a909085610d66565b905086811015610ae25760405162461bcd60e51b815260206004820152601e60248201527f496e73756666696369656e7420756e706c65646765642062616c616e6365000060448201526064016102ed565b60038054906000610af283610dd2565b9091555050600380546040805160c0810182523380825260208083018e81528385018e8152606085018e81526001608087018181524260a0890190815260008b815260048089528b82209a518b546001600160a01b0319166001600160a01b03909116178b5596518a850155945160028a015592519a88019a909a559851928601805460ff19169315159390931790925590516005948501558281529281528383208054968701815583529182902090940183905581518b81529081018a905291928b92909184917fa3941cfa07eecf2734875ab71cea0e47395be644da6e17b039a7e29efba74ef9910160405180910390a4945050505050610bf56001600055565b9392505050565b600260005403610c1f57604051633ee5aeb560e01b815260040160405180910390fd5b6002600055565b60008060408385031215610c3957600080fd5b50508035926020909101359150565b600060208284031215610c5a57600080fd5b5035919050565b6001600160a01b03811681146107d857600080fd5b600060208284031215610c8857600080fd5b8135610bf581610c61565b6020808252825182820181905260009190848201906040850190845b81811015610ccb57835183529284019291840191600101610caf565b50909695505050505050565b600080600060608486031215610cec57600080fd5b505081359360208301359350604090920135919050565b80518015158114610d1357600080fd5b919050565b600060208284031215610d2a57600080fd5b610bf582610d03565b634e487b7160e01b600052601160045260246000fd5b8082028115828204841417610d6057610d60610d33565b92915050565b81810381811115610d6057610d60610d33565b600060208284031215610d8b57600080fd5b5051919050565b600080600060608486031215610da757600080fd5b610db084610d03565b92506020840151610dc081610c61565b80925050604084015190509250925092565b600060018201610de457610de4610d33565b506001019056fea26469706673582212200ed499042bc2c6ba0db17dbf229281945cb1713587e9bde3c32cb6da1b1533de64736f6c63430008140033",
  "linkReferences": {},
  "deployedLinkReferences": {}
}