{
  "_format": "hh-sol-artifact-1",
  "contractName": "Marketplace",
  "sourceName": "contracts/Marketplace.sol",
  "abi": [
    {
      "inputs": [
        {
          "internalType": "address",
          "name": "_rangerToken",
          "type": "address"
        },
        {
          "internalType": "address",
          "name": "_finternetGateway",
          "type": "address"
        }
      ],
      "stateMutability": "nonpayable",
      "type": "constructor"
    },
    {
      "inputs": [],
      "name": "ReentrancyGuardReentrantCall",
      "type": "error"
    },
    {
      "anonymous": false,
      "inputs": [
        {
          "indexed": true,
          "internalType": "uint256",
          "name": "listingId",
          "type": "uint256"
        },
        {
          "indexed": false,
          "internalType": "uint256",
          "name": "timestamp",
          "type": "uint256"
        }
      ],
      "name": "ListingCancelled",
      "type": "event"
    },
    {
      "anonymous": false,
      "inputs": [
        {
          "indexed": true,
          "internalType": "uint256",
          "name": "listingId",
          "type": "uint256"
        },
        {
          "indexed": true,
          "internalType": "address",
          "name": "seller",
          "type": "address"
        },
        {
          "indexed": true,
          "internalType": "uint256",
          "name": "tokenId",
          "type": "uint256"
        },
        {
          "indexed": false,
          "internalType": "uint256",
          "name": "quantity",
          "type": "uint256"
        },
        {
          "indexed": false,
          "internalType": "uint256",
          "name": "pricePerKg",
          "type": "uint256"
        }
      ],
      "name": "ListingCreated",
      "type": "event"
    },
    {
      "anonymous": false,
      "inputs": [
        {
          "indexed": false,
          "internalType": "uint256",
          "name": "amount",
          "type": "uint256"
        },
        {
          "indexed": false,
          "internalType": "uint256",
          "name": "totalCollected",
          "type": "uint256"
        }
      ],
      "name": "PlatformFeeCollected",
      "type": "event"
    },
    {
      "anonymous": false,
      "inputs": [
        {
          "indexed": true,
          "internalType": "address",
          "name": "admin",
          "type": "address"
        },
        {
          "indexed": false,
          "internalType": "uint256",
          "name": "amount",
          "type": "uint256"
        }
      ],
      "name": "PlatformFeeWithdrawn",
      "type": "event"
    },
    {
      "anonymous": false,
      "inputs": [
        {
          "indexed": true,
          "internalType": "uint256",
          "name": "listingId",
          "type": "uint256"
        },
        {
          "indexed": true,
          "internalType": "address",
          "name": "buyer",
          "type": "address"
        },
        {
          "indexed": false,
          "internalType": "uint256",
          "name": "quantity",
          "type": "uint256"
        },
        {
          "indexed": false,
          "internalType": "uint256",
          "name": "totalPrice",
          "type": "uint256"
        },
        {
          "indexed": false,
          "internalType": "uint256",
          "name": "platformFee",
          "type": "uint256"
        }
      ],
      "name": "PurchaseCompleted",
      "type": "event"
    },
    {
      "inputs": [
        {
          "internalType": "uint256",
          "name": "listingId",
          "type": "uint256"
        },
        {
          "internalType": "uint256",
          "name": "quantity",
          "type": "uint256"
        }
      ],
      "name": "buyToken",
      "outputs": [],
      "stateMutability": "payable",
      "type": "function"
    },
    {
      "inputs": [
        {
          "internalType": "uint256",
          "name": "listingId",
          "type": "uint256"
        }
      ],
      "name": "cancelListing",
      "outputs": [],
      "stateMutability": "nonpayable",
      "type": "function"
    },
    {
      "inputs": [],
      "name": "collectedFees",
      "outputs": [
        {
          "internalType": "uint256",
          "name": "",
          "type": "uint256"
        }
      ],
      "stateMutability": "view",
      "type": "function"
    },
    {
      "inputs": [],
      "name": "finternetGateway",
      "outputs": [
        {
          "internalType": "contract IFinternetGateway",
          "name": "",
          "type": "address"
        }
      ],
      "stateMutability": "view",
      "type": "function"
    },
    {
      "inputs": [
        {
          "internalType": "uint256",
          "name": "listingId",
          "type": "uint256"
        }
      ],
      "name": "getListing",
      "outputs": [
        {
          "internalType": "address",
          "name": "seller",
          "type": "address"
        },
        {
          "internalType": "uint256",
          "name": "tokenId",
          "type": "uint256"
        },
        {
          "internalType": "uint256",
          "name": "quantity",
          "type": "uint256"
        },
        {
          "internalType": "uint256",
          "name": "pricePerKg",
          "type": "uint256"
        },
        {
          "internalType": "bool",
          "name": "isActive",
          "type": "bool"
        },
        {
          "internalType": "uint256",
          "name": "createdAt",
          "type": "uint256"
        }
      ],
      "stateMutability": "view",
      "type": "function"
    },
    {
      "inputs": [
        {
          "internalType": "address",
          "name": "seller",
          "type": "address"
        }
      ],
      "name": "getSellerListings",
      "outputs": [
        {
          "internalType": "uint256[]",
          "name": "",
          "type": "uint256[]"
        }
      ],
      "stateMutability": "view",
      "type": "function"
    },
    {
      "inputs": [
        {
          "internalType": "uint256",
          "name": "tokenId",
          "type": "uint256"
        },
        {
          "internalType": "uint256",
          "name": "quantity",
          "type": "uint256"
        },
        {
          "internalType": "uint256",
          "name": "pricePerKg",
          "type": "uint256"
        }
      ],
      "name": "listForSale",
      "outputs": [
        {
          "internalType": "uint256",
          "name": "",
          "type": "uint256"
        }
      ],
      "stateMutability": "nonpayable",
      "type": "function"
    },
    {
      "inputs": [
        {
          "internalType": "uint256",
          "name": "",
          "type": "uint256"
        }
      ],
      "name": "listings",
      "outputs": [
        {
          "internalType": "address",
          "name": "seller",
          "type": "address"
        },
        {
          "internalType": "uint256",
          "name": "tokenId",
          "type": "uint256"
        },
        {
          "internalType": "uint256",
          "name": "quantity",
          "type": "uint256"
        },
        {
          "internalType": "uint256",
          "name": "pricePerKg",
          "type": "uint256"
        },
        {
          "internalType": "bool",
          "name": "isActive",
          "type": "bool"
        },
        {
          "internalType": "uint256",
          "name": "createdAt",
          "type": "uint256"
        }
      ],
      "stateMutability": "view",
      "type": "function"
    },
    {
      "inputs": [],
      "name": "platformAdmin",
      "outputs": [
        {
          "internalType": "address",
          "name": "",
          "type": "address"
        }
      ],
      "stateMutability": "view",
      "type": "function"
    },
    {
      "inputs": [],
      "name": "platformFeeRate",
      "outputs": [
        {
          "internalType": "uint256",
          "name": "",
          "type": "uint256"
        }
      ],
      "stateMutability": "view",
      "type": "function"
    },
    {
      "inputs": [],
      "name": "rangerToken",
      "outputs": [
        {
          "internalType": "contract RangerToken",
          "name": "",
          "type": "address"
        }
      ],
      "stateMutability": "view",
      "type": "function"
    },
    {
      "inputs": [
        {
          "internalType": "address",
          "name": "newAdmin",
          "type": "address"
        }
      ],
      "name": "transferPlatformAdmin",
      "outputs": [],
      "stateMutability": "nonpayable",
      "type": "function"
    },
    {
      "inputs": [
        {
          "internalType": "uint256",
          "name": "newFeeRate",
          "type": "uint256"
        }
      ],
      "name": "updatePlatformFeeRate",
      "outputs": [],
      "stateMutability": "nonpayable",
      "type": "function"
    },
    {
      "inputs": [],
      "name": "withdrawPlatformFees",
      "outputs": [],
      "stateMutability": "nonpayable",
      "type": "function"
    }
  ],
  "bytecode": "0x608060405260fa6004553480156200001657600080fd5b506040516200146738038062001467833981016040819052620000399162000151565b60016000556001600160a01b0382166200009a5760405162461bcd60e51b815260206004820152601560248201527f496e76616c696420746f6b656e2061646472657373000000000000000000000060448201526064015b60405180910390fd5b6001600160a01b038116620000f25760405162461bcd60e51b815260206004820152601760248201527f496e76616c696420676174657761792061646472657373000000000000000000604482015260640162000091565b600180546001600160a01b039384166001600160a01b031991821617909155600280549290931691811691909117909155600380549091163317905562000189565b80516001600160a01b03811681146200014c57600080fd5b919050565b600080604083850312156200016557600080fd5b620001708362000134565b9150620001806020840162000134565b90509250929050565b6112ce80620001996000396000f3fe6080604052600436106100dd5760003560e01c8063a009444a1161007f578063d0b7830b11610059578063d0b7830b146102ed578063de74e57b14610302578063ee3c65d514610362578063eeca08f01461038257600080fd5b8063a009444a1461028d578063ae3b7f06146102ad578063cdcd7fb5146102cd57600080fd5b80633397d9a2116100bb5780633397d9a2146101e45780635f42da09146102045780639003adfe146102315780639a2df2c91461025557600080fd5b8063057466ea146100e2578063107a274a146100f7578063305a67a8146101c4575b600080fd5b6100f56100f036600461109e565b610398565b005b34801561010357600080fd5b506101866101123660046110c0565b600090815260076020908152604091829020825160c08101845281546001600160a01b031680825260018301549382018490526002830154948201859052600383015460608301819052600484015460ff1615156080840181905260059094015460a0909301839052909593949390929190565b604080516001600160a01b03909716875260208701959095529385019290925260608401521515608083015260a082015260c0015b60405180910390f35b3480156101d057600080fd5b506100f56101df3660046110c0565b610872565b3480156101f057600080fd5b506100f56101ff3660046110ee565b61096a565b34801561021057600080fd5b5061022461021f3660046110ee565b610a1b565b6040516101bb919061110b565b34801561023d57600080fd5b5061024760055481565b6040519081526020016101bb565b34801561026157600080fd5b50600254610275906001600160a01b031681565b6040516001600160a01b0390911681526020016101bb565b34801561029957600080fd5b50600154610275906001600160a01b031681565b3480156102b957600080fd5b506100f56102c83660046110c0565b610a87565b3480156102d957600080fd5b50600354610275906001600160a01b031681565b3480156102f957600080fd5b506100f5610b25565b34801561030e57600080fd5b5061018661031d3660046110c0565b6007602052600090815260409020805460018201546002830154600384015460048501546005909501546001600160a01b039094169492939192909160ff9091169086565b34801561036e57600080fd5b5061024761037d36600461114f565b610cc2565b34801561038e57600080fd5b5061024760045481565b6103a0611074565b6000828152600760205260409020600481015460ff166103fc5760405162461bcd60e51b81526020600482015260126024820152714c697374696e67206e6f742061637469766560701b60448201526064015b60405180910390fd5b600082118015610410575080600201548211155b61044f5760405162461bcd60e51b815260206004820152601060248201526f496e76616c6964207175616e7469747960801b60448201526064016103f3565b600180549082015460405162f577a560e81b81526001600160a01b039092169163f577a500916104859160040190815260200190565b602060405180830381865afa1580156104a2573d6000803e3d6000fd5b505050506040513d601f19601f820116820180604052508101906104c69190611190565b6105045760405162461bcd60e51b815260206004820152600f60248201526e149958d95a5c1d08195e1c1a5c9959608a1b60448201526064016103f3565b600081600301548361051691906111c1565b90508034101561055f5760405162461bcd60e51b8152602060048201526014602482015273125b9cdd59999a58da595b9d081c185e5b595b9d60621b60448201526064016103f3565b60006127106004548361057291906111c1565b61057c91906111de565b9050600061058a8284611200565b9050848460020160008282546105a09190611200565b909155505060028401546000036105be5760048401805460ff191690555b60018054855491860154604051637921219560e11b81526001600160a01b03938416600482015233602482015260448101919091526064810188905260a06084820152600060a482015291169063f242432a9060c401600060405180830381600087803b15801561062e57600080fd5b505af1158015610642573d6000803e3d6000fd5b5050505081600560008282546106589190611213565b90915550506005546040805184815260208101929092527fa8341f104131cae3e9965326a01662a1e0dc3dc60c8d099fefa4578ef8f6f9ae910160405180910390a16040805160208082018990523360601b6bffffffffffffffffffffffff19168284015242605480840191909152835180840390910181526074909201928390528151910120855490916000916001600160a01b03169084908381818185875af1925050503d806000811461072a576040519150601f19603f3d011682016040523d82523d6000602084013e61072f565b606091505b50509050806107805760405162461bcd60e51b815260206004820152601760248201527f5061796d656e74207472616e73666572206661696c656400000000000000000060448201526064016103f3565b84341115610819576000336107958734611200565b604051600081818185875af1925050503d80600081146107d1576040519150601f19603f3d011682016040523d82523d6000602084013e6107d6565b606091505b50509050806108175760405162461bcd60e51b815260206004820152600d60248201526c1499599d5b990819985a5b1959609a1b60448201526064016103f3565b505b6040805188815260208101879052908101859052339089907fe29b93709a7ac5e91a6057482d1df985483725988417e08dec23377234003c809060600160405180910390a350505050505061086e6001600055565b5050565b61087a611074565b6000818152600760205260409020600481015460ff166108d15760405162461bcd60e51b81526020600482015260126024820152714c697374696e67206e6f742061637469766560701b60448201526064016103f3565b80546001600160a01b0316331461091b5760405162461bcd60e51b815260206004820152600e60248201526d2737ba103a34329039b2b63632b960911b60448201526064016103f3565b60048101805460ff1916905560405142815282907fafd0a85a3f09cebbc7d9fcde08e8a7d0ebb0aa7d768a030915c3816a053d3c7a9060200160405180910390a2506109676001600055565b50565b6003546001600160a01b031633146109b15760405162461bcd60e51b815260206004820152600a60248201526927b7363c9030b236b4b760b11b60448201526064016103f3565b6001600160a01b0381166109f95760405162461bcd60e51b815260206004820152600f60248201526e496e76616c6964206164647265737360881b60448201526064016103f3565b600380546001600160a01b0319166001600160a01b0392909216919091179055565b6001600160a01b038116600090815260086020908152604091829020805483518184028101840190945280845260609392830182828015610a7b57602002820191906000526020600020905b815481526020019060010190808311610a67575b50505050509050919050565b6003546001600160a01b03163314610ace5760405162461bcd60e51b815260206004820152600a60248201526927b7363c9030b236b4b760b11b60448201526064016103f3565b6103e8811115610b205760405162461bcd60e51b815260206004820152601b60248201527f466565207261746520746f6f206869676820286d61782031302529000000000060448201526064016103f3565b600455565b610b2d611074565b6003546001600160a01b03163314610b875760405162461bcd60e51b815260206004820152601760248201527f4f6e6c792061646d696e2063616e20776974686472617700000000000000000060448201526064016103f3565b600060055411610bcf5760405162461bcd60e51b81526020600482015260136024820152724e6f206665657320746f20776974686472617760681b60448201526064016103f3565b600580546000918290556003546040519192916001600160a01b039091169083908381818185875af1925050503d8060008114610c28576040519150601f19603f3d011682016040523d82523d6000602084013e610c2d565b606091505b5050905080610c725760405162461bcd60e51b815260206004820152601160248201527015da5d1a191c985dd85b0819985a5b1959607a1b60448201526064016103f3565b6003546040518381526001600160a01b03909116907fd116803f8b8538a601b6096e8d1196e3ce3ef43dec6dbbe4cd4e5c69dd171d8b9060200160405180910390a25050610cc06001600055565b565b6000610ccc611074565b60008311610d135760405162461bcd60e51b815260206004820152601460248201527305175616e74697479206d757374206265203e20360641b60448201526064016103f3565b60008211610d575760405162461bcd60e51b815260206004820152601160248201527005072696365206d757374206265203e203607c1b60448201526064016103f3565b60015460405162f577a560e81b8152600481018690526001600160a01b039091169063f577a50090602401602060405180830381865afa158015610d9f573d6000803e3d6000fd5b505050506040513d601f19601f82011682018060405250810190610dc39190611190565b610e015760405162461bcd60e51b815260206004820152600f60248201526e149958d95a5c1d08195e1c1a5c9959608a1b60448201526064016103f3565b600154604051627eeac760e11b8152336004820152602481018690526000916001600160a01b03169062fdd58e90604401602060405180830381865afa158015610e4f573d6000803e3d6000fd5b505050506040513d601f19601f82011682018060405250810190610e739190611226565b60015460405163dec2462960e01b81526004810188905233602482015291925060009182916001600160a01b03169063dec2462990604401606060405180830381865afa158015610ec8573d6000803e3d6000fd5b505050506040513d601f19601f82011682018060405250810190610eec919061123f565b9250509150600082610eff576000610f01565b815b610f0b9085611200565b905086811015610f5d5760405162461bcd60e51b815260206004820152601e60248201527f496e73756666696369656e7420756e706c65646765642062616c616e6365000060448201526064016103f3565b60068054906000610f6d8361127f565b90915550506006546040805160c0810182523380825260208083018d81528385018d8152606085018d81526001608087018181524260a0890190815260008b8152600788528a812099518a546001600160a01b0319166001600160a01b03909116178a559551898401559351600289015591516003880155905160048701805460ff191691151591909117905590516005909501949094558281526008825284812080549485018155815281902090920184905582518b81529182018a90528b92909184917fa3941cfa07eecf2734875ab71cea0e47395be644da6e17b039a7e29efba74ef9910160405180910390a494505050505061106d6001600055565b9392505050565b60026000540361109757604051633ee5aeb560e01b815260040160405180910390fd5b6002600055565b600080604083850312156110b157600080fd5b50508035926020909101359150565b6000602082840312156110d257600080fd5b5035919050565b6001600160a01b038116811461096757600080fd5b60006020828403121561110057600080fd5b813561106d816110d9565b6020808252825182820181905260009190848201906040850190845b8181101561114357835183529284019291840191600101611127565b50909695505050505050565b60008060006060848603121561116457600080fd5b505081359360208301359350604090920135919050565b8051801515811461118b57600080fd5b919050565b6000602082840312156111a257600080fd5b61106d8261117b565b634e487b7160e01b600052601160045260246000fd5b80820281158282048414176111d8576111d86111ab565b92915050565b6000826111fb57634e487b7160e01b600052601260045260246000fd5b500490565b818103818111156111d8576111d86111ab565b808201808211156111d8576111d86111ab565b60006020828403121561123857600080fd5b5051919050565b60008060006060848603121561125457600080fd5b61125d8461117b565b9250602084015161126d816110d9565b80925050604084015190509250925092565b600060018201611291576112916111ab565b506001019056fea26469706673582212201da3669386a173a9b0beb1886d48ed6c97ad2ed7b16c898bb2934105d64ba8b064736f6c63430008140033",
  "linkReferences": {},
  "deployedLinkReferences": {}
}