{
  "_format": "hh-sol-artifact-1",
  "contractName": "MockFinternetGateway",
  "sourceName": "contracts/MockFinternetGateway.sol",
  "abi": [
    {
      "anonymous": false,
      "inputs": [
        {
          "indexed": true,
          "internalType": "bytes32",
          "name": "referenceId",
          "type": "bytes32"
        },
        {
          "indexed": false,
          "internalType": "uint256",
          "name": "timestamp",
          "type": "uint256"
        }
      ],
      "name": "PaymentCompleted",
      "type": "event"
    },
    {
      "anonymous": false,
      "inputs": [
        {
          "indexed": true,
          "internalType": "bytes32",
          "name": "referenceId",
          "type": "bytes32"
        },
        {
          "indexed": true,
          "internalType": "address",
          "name": "recipient",
          "type": "address"
        },
        {
          "indexed": false,
          "internalType": "uint256",
          "name": "amount",
          "type": "uint256"
        },
        {
          "indexed": false,
          "internalType": "uint256",
          "name": "timestamp",
          "type": "uint256"
        }
      ],
      "name": "PaymentInitiated",
      "type": "event"
    },
    {
      "inputs": [
        {
          "internalType": "bytes32",
          "name": "referenceId",
          "type": "bytes32"
        }
      ],
      "name": "getPaymentStatus",
      "outputs": [
        {
          "internalType": "address",
          "name": "recipient",
          "type": "address"
        },
        {
          "internalType": "uint256",
          "name": "amount",
          "type": "uint256"
        },
        {
          "internalType": "uint256",
          "name": "timestamp",
          "type": "uint256"
        },
        {
          "internalType": "bool",
          "name": "completed",
          "type": "bool"
        }
      ],
      "stateMutability": "view",
      "type": "function"
    },
    {
      "inputs": [
        {
          "internalType": "address",
          "name": "recipient",
          "type": "address"
        },
        {
          "internalType": "uint256",
          "name": "amount",
          "type": "uint256"
        },
        {
          "internalType": "bytes32",
          "name": "referenceId",
          "type": "bytes32"
        }
      ],
      "name": "initiatePayment",
      "outputs": [
        {
          "internalType": "bool",
          "name": "",
          "type": "bool"
        }
      ],
      "stateMutability": "nonpayable",
      "type": "function"
    },
    {
      "inputs": [
        {
          "internalType": "bytes32",
          "name": "",
          "type": "bytes32"
        }
      ],
      "name": "payments",
      "outputs": [
        {
          "internalType": "address",
          "name": "recipient",
          "type": "address"
        },
        {
          "internalType": "uint256",
          "name": "amount",
          "type": "uint256"
        },
        {
          "internalType": "uint256",
          "name": "timestamp",
          "type": "uint256"
        },
        {
          "internalType": "bool",
          "name": "completed",
          "type": "bool"
        }
      ],
      "stateMutability": "view",
      "type": "function"
    },
    {
      "inputs": [
        {
          "internalType": "bytes32",
          "name": "referenceId",
          "type": "bytes32"
        }
      ],
      "name": "verifyPayment",
      "outputs": [
        {
          "internalType": "bool",
          "name": "",
          "type": "bool"
        }
      ],
      "stateMutability": "view",
      "type": "function"
    }
  ],
  "bytecode": "0x608060405234801561001057600080fd5b506103fb806100206000396000f3fe608060405234801561001057600080fd5b506004361061004c5760003560e01c80630716326d1461005157806348e68950146100c4578063f0013c03146100fa578063f9b574981461015e575b600080fd5b61009361005f36600461036b565b60006020819052908152604090208054600182015460028301546003909301546001600160a01b0390921692909160ff1684565b604080516001600160a01b039095168552602085019390935291830152151560608201526080015b60405180910390f35b6100ea6100d236600461036b565b60009081526020819052604090206003015460ff1690565b60405190151581526020016100bb565b61009361010836600461036b565b60009081526020818152604091829020825160808101845281546001600160a01b03168082526001830154938201849052600283015494820185905260039092015460ff16151560609091018190529093919291565b6100ea61016c366004610384565b60006001600160a01b0384166101bd5760405162461bcd60e51b8152602060048201526011602482015270125b9d985b1a59081c9958da5c1a595b9d607a1b60448201526064015b60405180910390fd5b600083116102025760405162461bcd60e51b81526020600482015260126024820152710416d6f756e74206d757374206265203e20360741b60448201526064016101b4565b6000828152602081905260409020600201541561025a5760405162461bcd60e51b81526020600482015260166024820152755061796d656e7420616c72656164792065786973747360501b60448201526064016101b4565b604080516080810182526001600160a01b038681168083526020808401888152428587018181526000606088018181528b825281865290899020975188546001600160a01b0319169716969096178755915160018701559051600286015592516003909401805460ff1916941515949094179093558351878152928301919091529184917f63d31b8aefad53835f8922b8a1ab0ca39574e3f4329b8e50260f35d0edf16876910160405180910390a360008281526020819052604090819020600301805460ff191660011790555182907fb30ca7228fcab8e38097d53b9b06cf96837e6892836a6419fb7890a32984a373906103599042815260200190565b60405180910390a25060019392505050565b60006020828403121561037d57600080fd5b5035919050565b60008060006060848603121561039957600080fd5b83356001600160a01b03811681146103b057600080fd5b9560208501359550604090940135939250505056fea264697066735822122013ef6d9170352076a768164a0aae3081076ffcd3df92a2b53ebb9305eaa4a1a064736f6c63430008140033",
  "linkReferences": {},
  "deployedLinkReferences": {}
}