{
  "_format": "hh-sol-artifact-1",
  "contractName": "RangerToken",
  "sourceName": "contracts/RangerToken.sol",
  "abi": [
    {
      "inputs": [
        {
          "internalType": "address",
          "name": "_roleRegistry",
          "type": "address"
        }
      ],
      "stateMutability": "nonpayable",
      "type": "constructor"
    },
    {
      "inputs": [],
      "name": "AccessControlBadConfirmation",
      "type": "error"
    },
    {
      "inputs": [
        {
          "internalType": "address",
          "name": "account",
          "type": "address"
        },
        {
          "internalType": "bytes32",
          "name": "neededRole",
          "type": "bytes32"
        }
      ],
      "name": "AccessControlUnauthorizedAccount",
      "type": "error"
    },
    {
      "inputs": [
        {
          "internalType": "address",
          "name": "sender",
          "type": "address"
        },
        {
          "internalType": "uint256",
          "name": "balance",
          "type": "uint256"
        },
        {
          "internalType": "uint256",
          "name": "needed",
          "type": "uint256"
        },
        {
          "internalType": "uint256",
          "name": "tokenId",
          "type": "uint256"
        }
      ],
      "name": "ERC1155InsufficientBalance",
      "type": "error"
    },
    {
      "inputs": [
        {
          "internalType": "address",
          "name": "approver",
          "type": "address"
        }
      ],
      "name": "ERC1155InvalidApprover",
      "type": "error"
    },
    {
      "inputs": [
        {
          "internalType": "uint256",
          "name": "idsLength",
          "type": "uint256"
        },
        {
          "internalType": "uint256",
          "name": "valuesLength",
          "type": "uint256"
        }
      ],
      "name": "ERC1155InvalidArrayLength",
      "type": "error"
    },
    {
      "inputs": [
        {
          "internalType": "address",
          "name": "operator",
          "type": "address"
        }
      ],
      "name": "ERC1155InvalidOperator",
      "type": "error"
    },
    {
      "inputs": [
        {
          "internalType": "address",
          "name": "receiver",
          "type": "address"
        }
      ],
      "name": "ERC1155InvalidReceiver",
      "type": "error"
    },
    {
      "inputs": [
        {
          "internalType": "address",
          "name": "sender",
          "type": "address"
        }
      ],
      "name": "ERC1155InvalidSender",
      "type": "error"
    },
    {
      "inputs": [
        {
          "internalType": "address",
          "name": "operator",
          "type": "address"
        },
        {
          "internalType": "address",
          "name": "owner",
          "type": "address"
        }
      ],
      "name": "ERC1155MissingApprovalForAll",
      "type": "error"
    },
    {
      "inputs": [],
      "name": "EnforcedPause",
      "type": "error"
    },
    {
      "inputs": [],
      "name": "ExpectedPause",
      "type": "error"
    },
    {
      "anonymous": false,
      "inputs": [
        {
          "indexed": true,
          "internalType": "address",
          "name": "account",
          "type": "address"
        },
        {
          "indexed": true,
          "internalType": "address",
          "name": "operator",
          "type": "address"
        },
        {
          "indexed": false,
          "internalType": "bool",
          "name": "approved",
          "type": "bool"
        }
      ],
      "name": "ApprovalForAll",
      "type": "event"
    },
    {
      "anonymous": false,
      "inputs": [
        {
          "indexed": true,
          "internalType": "uint256",
          "name": "tokenId",
          "type": "uint256"
        },
        {
          "indexed": true,
          "internalType": "address",
          "name": "farmer",
          "type": "address"
        },
        {
          "indexed": true,
          "internalType": "address",
          "name": "lender",
          "type": "address"
        },
        {
          "indexed": false,
          "internalType": "uint256",
          "name": "amount",
          "type": "uint256"
        }
      ],
      "name": "CollateralPledged",
      "type": "event"
    },
    {
      "anonymous": false,
      "inputs": [
        {
          "indexed": true,
          "internalType": "uint256",
          "name": "tokenId",
          "type": "uint256"
        },
        {
          "indexed": true,
          "internalType": "address",
          "name": "farmer",
          "type": "address"
        },
        {
          "indexed": false,
          "internalType": "uint256",
          "name": "amount",
          "type": "uint256"
        }
      ],
      "name": "CollateralUnpledged",
      "type": "event"
    },
    {
      "anonymous": false,
      "inputs": [
        {
          "indexed": true,
          "internalType": "uint256",
          "name": "tokenId",
          "type": "uint256"
        },
        {
          "indexed": false,
          "internalType": "string",
          "name": "newIpfsHash",
          "type": "string"
        },
        {
          "indexed": false,
          "internalType": "uint256",
          "name": "timestamp",
          "type": "uint256"
        }
      ],
      "name": "MetadataUpdated",
      "type": "event"
    },
    {
      "anonymous": false,
      "inputs": [
        {
          "indexed": false,
          "internalType": "address",
          "name": "account",
          "type": "address"
        }
      ],
      "name": "Paused",
      "type": "event"
    },
    {
      "anonymous": false,
      "inputs": [
        {
          "indexed": true,
          "internalType": "uint256",
          "name": "tokenId",
          "type": "uint256"
        },
        {
          "indexed": true,
          "internalType": "address",
          "name": "farmer",
          "type": "address"
        },
        {
          "indexed": false,
          "internalType": "uint256",
          "name": "quantity",
          "type": "uint256"
        },
        {
          "indexed": false,
          "internalType": "uint256",
          "name": "expiryTimestamp",
          "type": "uint256"
        },
        {
          "indexed": false,
          "internalType": "string",
          "name": "ipfsHash",
          "type": "string"
        }
      ],
      "name": "ReceiptIssued",
      "type": "event"
    },
    {
      "anonymous": false,
      "inputs": [
        {
          "indexed": true,
          "internalType": "bytes32",
          "name": "role",
          "type": "bytes32"
        },
        {
          "indexed": true,
          "internalType": "bytes32",
          "name": "previousAdminRole",
          "type": "bytes32"
        },
        {
          "indexed": true,
          "internalType": "bytes32",
          "name": "newAdminRole",
          "type": "bytes32"
        }
      ],
      "name": "RoleAdminChanged",
      "type": "event"
    },
    {
      "anonymous": false,
      "inputs": [
        {
          "indexed": true,
          "internalType": "bytes32",
          "name": "role",
          "type": "bytes32"
        },
        {
          "indexed": true,
          "internalType": "address",
          "name": "account",
          "type": "address"
        },
        {
          "indexed": true,
          "internalType": "address",
          "name": "sender",
          "type": "address"
        }
      ],
      "name": "RoleGranted",
      "type": "event"
    },
    {
      "anonymous": false,
      "inputs": [
        {
          "indexed": true,
          "internalType": "bytes32",
          "name": "role",
          "type": "bytes32"
        },
        {
          "indexed": true,
          "internalType": "address",
          "name": "account",
          "type": "address"
        },
        {
          "indexed": true,
          "internalType": "address",
          "name": "sender",
          "type": "address"
        }
      ],
      "name": "RoleRevoked",
      "type": "event"
    },
    {
      "anonymous": false,
      "inputs": [
        {
          "indexed": true,
          "internalType": "address",
          "name": "operator",
          "type": "address"
        },
        {
          "indexed": true,
          "internalType": "address",
          "name": "from",
          "type": "address"
        },
        {
          "indexed": true,
          "internalType": "address",
          "name": "to",
          "type": "address"
        },
        {
          "indexed": false,
          "internalType": "uint256[]",
          "name": "ids",
          "type": "uint256[]"
        },
        {
          "indexed": false,
          "internalType": "uint256[]",
          "name": "values",
          "type": "uint256[]"
        }
      ],
      "name": "TransferBatch",
      "type": "event"
    },
    {
      "anonymous": false,
      "inputs": [
        {
          "indexed": true,
          "internalType": "address",
          "name": "operator",
          "type": "address"
        },
        {
          "indexed": true,
          "internalType": "address",
          "name": "from",
          "type": "address"
        },
        {
          "indexed": true,
          "internalType": "address",
          "name": "to",
          "type": "address"
        },
        {
          "indexed": false,
          "internalType": "uint256",
          "name": "id",
          "type": "uint256"
        },
        {
          "indexed": false,
          "internalType": "uint256",
          "name": "value",
          "type": "uint256"
        }
      ],
      "name": "TransferSingle",
      "type": "event"
    },
    {
      "anonymous": false,
      "inputs": [
        {
          "indexed": false,
          "internalType": "string",
          "name": "value",
          "type": "string"
        },
        {
          "indexed": true,
          "internalType": "uint256",
          "name": "id",
          "type": "uint256"
        }
      ],
      "name": "URI",
      "type": "event"
    },
    {
      "anonymous": false,
      "inputs": [
        {
          "indexed": false,
          "internalType": "address",
          "name": "account",
          "type": "address"
        }
      ],
      "name": "Unpaused",
      "type": "event"
    },
    {
      "inputs": [],
      "name": "BANK_ROLE",
      "outputs": [
        {
          "internalType": "bytes32",
          "name": "",
          "type": "bytes32"
        }
      ],
      "stateMutability": "view",
      "type": "function"
    },
    {
      "inputs": [],
      "name": "DEFAULT_ADMIN_ROLE",
      "outputs": [
        {
          "internalType": "bytes32",
          "name": "",
          "type": "bytes32"
        }
      ],
      "stateMutability": "view",
      "type": "function"
    },
    {
      "inputs": [],
      "name": "MINTER_ROLE",
      "outputs": [
        {
          "internalType": "bytes32",
          "name": "",
          "type": "bytes32"
        }
      ],
      "stateMutability": "view",
      "type": "function"
    },
    {
      "inputs": [
        {
          "internalType": "address",
          "name": "account",
          "type": "address"
        },
        {
          "internalType": "uint256",
          "name": "id",
          "type": "uint256"
        }
      ],
      "name": "balanceOf",
      "outputs": [
        {
          "internalType": "uint256",
          "name": "",
          "type": "uint256"
        }
      ],
      "stateMutability": "view",
      "type": "function"
    },
    {
      "inputs": [
        {
          "internalType": "address[]",
          "name": "accounts",
          "type": "address[]"
        },
        {
          "internalType": "uint256[]",
          "name": "ids",
          "type": "uint256[]"
        }
      ],
      "name": "balanceOfBatch",
      "outputs": [
        {
          "internalType": "uint256[]",
          "name": "",
          "type": "uint256[]"
        }
      ],
      "stateMutability": "view",
      "type": "function"
    },
    {
      "inputs": [
        {
          "internalType": "uint256",
          "name": "id",
          "type": "uint256"
        }
      ],
      "name": "exists",
      "outputs": [
        {
          "internalType": "bool",
          "name": "",
          "type": "bool"
        }
      ],
      "stateMutability": "view",
      "type": "function"
    },
    {
      "inputs": [
        {
          "internalType": "uint256",
          "name": "tokenId",
          "type": "uint256"
        },
        {
          "internalType": "address",
          "name": "farmer",
          "type": "address"
        }
      ],
      "name": "getPledgeStatus",
      "outputs": [
        {
          "internalType": "bool",
          "name": "isPledged",
          "type": "bool"
        },
        {
          "internalType": "address",
          "name": "lender",
          "type": "address"
        },
        {
          "internalType": "uint256",
          "name": "amount",
          "type": "uint256"
        }
      ],
      "stateMutability": "view",
      "type": "function"
    },
    {
      "inputs": [
        {
          "internalType": "uint256",
          "name": "tokenId",
          "type": "uint256"
        }
      ],
      "name": "getReceiptDetails",
      "outputs": [
        {
          "internalType": "uint256",
          "name": "supply",
          "type": "uint256"
        },
        {
          "internalType": "uint256",
          "name": "creation",
          "type": "uint256"
        },
        {
          "internalType": "uint256",
          "name": "expiry",
          "type": "uint256"
        },
        {
          "internalType": "string",
          "name": "ipfsHash",
          "type": "string"
        },
        {
          "internalType": "bool",
          "name": "valid",
          "type": "bool"
        }
      ],
      "stateMutability": "view",
      "type": "function"
    },
    {
      "inputs": [
        {
          "internalType": "bytes32",
          "name": "role",
          "type": "bytes32"
        }
      ],
      "name": "getRoleAdmin",
      "outputs": [
        {
          "internalType": "bytes32",
          "name": "",
          "type": "bytes32"
        }
      ],
      "stateMutability": "view",
      "type": "function"
    },
    {
      "inputs": [
        {
          "internalType": "bytes32",
          "name": "role",
          "type": "bytes32"
        },
        {
          "internalType": "address",
          "name": "account",
          "type": "address"
        }
      ],
      "name": "grantRole",
      "outputs": [],
      "stateMutability": "nonpayable",
      "type": "function"
    },
    {
      "inputs": [
        {
          "internalType": "bytes32",
          "name": "role",
          "type": "bytes32"
        },
        {
          "internalType": "address",
          "name": "account",
          "type": "address"
        }
      ],
      "name": "hasRole",
      "outputs": [
        {
          "internalType": "bool",
          "name": "",
          "type": "bool"
        }
      ],
      "stateMutability": "view",
      "type": "function"
    },
    {
      "inputs": [
        {
          "internalType": "address",
          "name": "account",
          "type": "address"
        },
        {
          "internalType": "address",
          "name": "operator",
          "type": "address"
        }
      ],
      "name": "isApprovedForAll",
      "outputs": [
        {
          "internalType": "bool",
          "name": "",
          "type": "bool"
        }
      ],
      "stateMutability": "view",
      "type": "function"
    },
    {
      "inputs": [
        {
          "internalType": "uint256",
          "name": "tokenId",
          "type": "uint256"
        }
      ],
      "name": "isValid",
      "outputs": [
        {
          "internalType": "bool",
          "name": "",
          "type": "bool"
        }
      ],
      "stateMutability": "view",
      "type": "function"
    },
    {
      "inputs": [
        {
          "internalType": "address",
          "name": "farmer",
          "type": "address"
        },
        {
          "internalType": "uint256",
          "name": "quantity",
          "type": "uint256"
        },
        {
          "internalType": "uint256",
          "name": "expiryTimestamp",
          "type": "uint256"
        },
        {
          "internalType": "string",
          "name": "ipfsHash",
          "type": "string"
        }
      ],
      "name": "issueReceipt",
      "outputs": [
        {
          "internalType": "uint256",
          "name": "",
          "type": "uint256"
        }
      ],
      "stateMutability": "nonpayable",
      "type": "function"
    },
    {
      "inputs": [],
      "name": "pause",
      "outputs": [],
      "stateMutability": "nonpayable",
      "type": "function"
    },
    {
      "inputs": [],
      "name": "paused",
      "outputs": [
        {
          "internalType": "bool",
          "name": "",
          "type": "bool"
        }
      ],
      "stateMutability": "view",
      "type": "function"
    },
    {
      "inputs": [
        {
          "internalType": "uint256",
          "name": "tokenId",
          "type": "uint256"
        },
        {
          "internalType": "uint256",
          "name": "amount",
          "type": "uint256"
        },
        {
          "internalType": "address",
          "name": "lender",
          "type": "address"
        }
      ],
      "name": "pledgeCollateral",
      "outputs": [],
      "stateMutability": "nonpayable",
      "type": "function"
    },
    {
      "inputs": [
        {
          "internalType": "uint256",
          "name": "",
          "type": "uint256"
        },
        {
          "internalType": "address",
          "name": "",
          "type": "address"
        }
      ],
      "name": "pledges",
      "outputs": [
        {
          "internalType": "address",
          "name": "lender",
          "type": "address"
        },
        {
          "internalType": "uint256",
          "name": "amount",
          "type": "uint256"
        },
        {
          "internalType": "uint256",
          "name": "timestamp",
          "type": "uint256"
        },
        {
          "internalType": "bool",
          "name": "isActive",
          "type": "bool"
        }
      ],
      "stateMutability": "view",
      "type": "function"
    },
    {
      "inputs": [
        {
          "internalType": "uint256",
          "name": "",
          "type": "uint256"
        }
      ],
      "name": "receiptCreation",
      "outputs": [
        {
          "internalType": "uint256",
          "name": "",
          "type": "uint256"
        }
      ],
      "stateMutability": "view",
      "type": "function"
    },
    {
      "inputs": [
        {
          "internalType": "uint256",
          "name": "",
          "type": "uint256"
        }
      ],
      "name": "receiptExpiry",
      "outputs": [
        {
          "internalType": "uint256",
          "name": "",
          "type": "uint256"
        }
      ],
      "stateMutability": "view",
      "type": "function"
    },
    {
      "inputs": [
        {
          "internalType": "bytes32",
          "name": "role",
          "type": "bytes32"
        },
        {
          "internalType": "address",
          "name": "callerConfirmation",
          "type": "address"
        }
      ],
      "name": "renounceRole",
      "outputs": [],
      "stateMutability": "nonpayable",
      "type": "function"
    },
    {
      "inputs": [
        {
          "internalType": "bytes32",
          "name": "role",
          "type": "bytes32"
        },
        {
          "internalType": "address",
          "name": "account",
          "type": "address"
        }
      ],
      "name": "revokeRole",
      "outputs": [],
      "stateMutability": "nonpayable",
      "type": "function"
    },
    {
      "inputs": [],
      "name": "roleRegistry",
      "outputs": [
        {
          "internalType": "contract RoleRegistry",
          "name": "",
          "type": "address"
        }
      ],
      "stateMutability": "view",
      "type": "function"
    },
    {
      "inputs": [
        {
          "internalType": "address",
          "name": "from",
          "type": "address"
        },
        {
          "internalType": "address",
          "name": "to",
          "type": "address"
        },
        {
          "internalType": "uint256[]",
          "name": "ids",
          "type": "uint256[]"
        },
        {
          "internalType": "uint256[]",
          "name": "values",
          "type": "uint256[]"
        },
        {
          "internalType": "bytes",
          "name": "data",
          "type": "bytes"
        }
      ],
      "name": "safeBatchTransferFrom",
      "outputs": [],
      "stateMutability": "nonpayable",
      "type": "function"
    },
    {
      "inputs": [
        {
          "internalType": "address",
          "name": "from",
          "type": "address"
        },
        {
          "internalType": "address",
          "name": "to",
          "type": "address"
        },
        {
          "internalType": "uint256",
          "name": "id",
          "type": "uint256"
        },
        {
          "internalType": "uint256",
          "name": "value",
          "type": "uint256"
        },
        {
          "internalType": "bytes",
          "name": "data",
          "type": "bytes"
        }
      ],
      "name": "safeTransferFrom",
      "outputs": [],
      "stateMutability": "nonpayable",
      "type": "function"
    },
    {
      "inputs": [
        {
          "internalType": "address",
          "name": "operator",
          "type": "address"
        },
        {
          "internalType": "bool",
          "name": "approved",
          "type": "bool"
        }
      ],
      "name": "setApprovalForAll",
      "outputs": [],
      "stateMutability": "nonpayable",
      "type": "function"
    },
    {
      "inputs": [
        {
          "internalType": "bytes4",
          "name": "interfaceId",
          "type": "bytes4"
        }
      ],
      "name": "supportsInterface",
      "outputs": [
        {
          "internalType": "bool",
          "name": "",
          "type": "bool"
        }
      ],
      "stateMutability": "view",
      "type": "function"
    },
    {
      "inputs": [
        {
          "internalType": "uint256",
          "name": "",
          "type": "uint256"
        }
      ],
      "name": "totalPledged",
      "outputs": [
        {
          "internalType": "uint256",
          "name": "",
          "type": "uint256"
        }
      ],
      "stateMutability": "view",
      "type": "function"
    },
    {
      "inputs": [],
      "name": "totalSupply",
      "outputs": [
        {
          "internalType": "uint256",
          "name": "",
          "type": "uint256"
        }
      ],
      "stateMutability": "view",
      "type": "function"
    },
    {
      "inputs": [
        {
          "internalType": "uint256",
          "name": "id",
          "type": "uint256"
        }
      ],
      "name": "totalSupply",
      "outputs": [
        {
          "internalType": "uint256",
          "name": "",
          "type": "uint256"
        }
      ],
      "stateMutability": "view",
      "type": "function"
    },
    {
      "inputs": [],
      "name": "unpause",
      "outputs": [],
      "stateMutability": "nonpayable",
      "type": "function"
    },
    {
      "inputs": [
        {
          "internalType": "uint256",
          "name": "tokenId",
          "type": "uint256"
        },
        {
          "internalType": "address",
          "name": "farmer",
          "type": "address"
        },
        {
          "internalType": "uint256",
          "name": "amount",
          "type": "uint256"
        }
      ],
      "name": "unpledgeCollateral",
      "outputs": [],
      "stateMutability": "nonpayable",
      "type": "function"
    },
    {
      "inputs": [
        {
          "internalType": "uint256",
          "name": "tokenId",
          "type": "uint256"
        },
        {
          "internalType": "string",
          "name": "newIpfsHash",
          "type": "string"
        }
      ],
      "name": "updateMetadata",
      "outputs": [],
      "stateMutability": "nonpayable",
      "type": "function"
    },
    {
      "inputs": [
        {
          "internalType": "uint256",
          "name": "tokenId",
          "type": "uint256"
        }
      ],
      "name": "uri",
      "outputs": [
        {
          "internalType": "string",
          "name": "",
          "type": "string"
        }
      ],
      "stateMutability": "view",
      "type": "function"
    }
  ],
  "bytecode": "0x60806040523480156200001157600080fd5b5060405162002c3538038062002c358339810160408190526200003491620001a4565b6040805160208101909152600081526200004e81620000df565b506001600160a01b038116620000aa5760405162461bcd60e51b815260206004820152601860248201527f496e76616c696420726567697374727920616464726573730000000000000000604482015260640160405180910390fd5b60068054610100600160a81b0319166101006001600160a01b03841602179055620000d7600033620000f1565b505062000347565b6002620000ed82826200027b565b5050565b60008281526003602090815260408083206001600160a01b038516845290915281205460ff166200019a5760008381526003602090815260408083206001600160a01b03861684529091529020805460ff19166001179055620001513390565b6001600160a01b0316826001600160a01b0316847f2f8788117e7eff1d82e926ec794901d17c78024a50270940304540a733656f0d60405160405180910390a45060016200019e565b5060005b92915050565b600060208284031215620001b757600080fd5b81516001600160a01b0381168114620001cf57600080fd5b9392505050565b634e487b7160e01b600052604160045260246000fd5b600181811c908216806200020157607f821691505b6020821081036200022257634e487b7160e01b600052602260045260246000fd5b50919050565b601f8211156200027657600081815260208120601f850160051c81016020861015620002515750805b601f850160051c820191505b8181101562000272578281556001016200025d565b5050505b505050565b81516001600160401b03811115620002975762000297620001d6565b620002af81620002a88454620001ec565b8462000228565b602080601f831160018114620002e75760008415620002ce5750858301515b600019600386901b1c1916600185901b17855562000272565b600085815260208120601f198616915b828110156200031857888601518255948401946001909101908401620002f7565b5085821015620003375787850151600019600388901b60f8161c191681555b5050505050600190811b01905550565b6128de80620003576000396000f3fe608060405234801561001057600080fd5b50600436106102055760003560e01c806372d7097b1161011a578063bd85b039116100ad578063e4f41be11161007c578063e4f41be1146105be578063e985e9c5146105de578063f242432a146105f1578063f577a50014610604578063fa809d361461062657600080fd5b8063bd85b039146104d1578063d5391393146104f1578063d547741f14610518578063dec246291461052b57600080fd5b806391d14854116100e957806391d148541461048357806396eb29a314610496578063a217fddf146104b6578063a22cb465146104be57600080fd5b806372d7097b146103cb57806377db25db146103ef5780638456cb59146104025780638e97f5241461040a57600080fd5b80632f2ff15d1161019d57806343b71dea1161016c57806343b71dea1461034b5780634e1273f41461036b5780634f558e791461038b57806353c8388e146103ad5780635c975abb146103c057600080fd5b80632f2ff15d1461030a57806336568abe1461031d5780633ce2cdd2146103305780633f4ba83a1461034357600080fd5b80630eb71432116101d95780630eb71432146102a357806318160ddd146102ca578063248a9ca3146102d25780632eb2c2d6146102f557600080fd5b8062fdd58e1461020a57806301ffc9a71461023057806308c73259146102535780630e89341c14610283575b600080fd5b61021d610218366004611f6e565b610639565b6040519081526020015b60405180910390f35b61024361023e366004611fae565b610661565b6040519015158152602001610227565b60065461026b9061010090046001600160a01b031681565b6040516001600160a01b039091168152602001610227565b610296610291366004611fd2565b61066c565b6040516102279190612031565b61021d7f591fa5458fe051cc8c02c405479bd38e00713c98dbd3db209d982048f1e638fa81565b60055461021d565b61021d6102e0366004611fd2565b60009081526003602052604090206001015490565b61030861030336600461218a565b610741565b005b610308610318366004612234565b6107a8565b61030861032b366004612234565b6107d3565b61030861033e366004612260565b61080b565b610308610b50565b61021d610359366004611fd2565b60096020526000908152604090205481565b61037e610379366004612295565b610b66565b6040516102279190612390565b610243610399366004611fd2565b600090815260046020526040902054151590565b6103086103bb3660046123a3565b610c3b565b60065460ff16610243565b6103de6103d9366004611fd2565b610d2e565b6040516102279594939291906123e0565b6103086103fd366004612419565b610e41565b610308610fc0565b610457610418366004612234565b600a60209081526000928352604080842090915290825290208054600182015460028301546003909301546001600160a01b0390921692909160ff1684565b604080516001600160a01b03909516855260208501939093529183015215156060820152608001610227565b610243610491366004612234565b610fd3565b61021d6104a4366004611fd2565b600b6020526000908152604090205481565b61021d600081565b6103086104cc36600461245c565b610ffe565b61021d6104df366004611fd2565b60009081526004602052604090205490565b61021d7f9f2df0fed2c77648de5860a4cc508cd0818c85b8b8a1ab4ceeef8d981c8956a681565b610308610526366004612234565b61100d565b610599610539366004612234565b6000918252600a602090815260408084206001600160a01b0393841685528252928390208351608081018552815490931680845260018201549284018390526002820154948401949094526003015460ff16151560609092018290529092565b6040805193151584526001600160a01b03909216602084015290820152606001610227565b61021d6105cc366004611fd2565b60086020526000908152604090205481565b6102436105ec366004612493565b611032565b6103086105ff3660046124bd565b611060565b610243610612366004611fd2565b600090815260086020526040902054421090565b61021d610634366004612522565b6110bf565b6000818152602081815260408083206001600160a01b03861684529091529020545b92915050565b600061065b82611392565b6000818152600460205260409020546060906106a35760405162461bcd60e51b815260040161069a90612583565b60405180910390fd5b600082815260076020526040902080546106bc906125b1565b80601f01602080910402602001604051908101604052809291908181526020018280546106e8906125b1565b80156107355780601f1061070a57610100808354040283529160200191610735565b820191906000526020600020905b81548152906001019060200180831161071857829003601f168201915b50505050509050919050565b336001600160a01b038616811480159061076257506107608682611032565b155b156107935760405163711bec9160e11b81526001600160a01b0380831660048301528716602482015260440161069a565b6107a086868686866113b7565b505050505050565b6000828152600360205260409020600101546107c38161141e565b6107cd8383611428565b50505050565b6001600160a01b03811633146107fc5760405163334bd91960e11b815260040160405180910390fd5b61080682826114bc565b505050565b610813611529565b60008381526008602052604090205442106108625760405162461bcd60e51b815260206004820152600f60248201526e149958d95a5c1d08195e1c1a5c9959608a1b604482015260640161069a565b8161086d3385610639565b10156108b25760405162461bcd60e51b8152602060048201526014602482015273496e73756666696369656e742062616c616e636560601b604482015260640161069a565b600082116108f75760405162461bcd60e51b81526020600482015260126024820152710416d6f756e74206d757374206265203e20360741b604482015260640161069a565b60065460405163074ac87760e41b81526001600160a01b038381166004830152610100909204909116906374ac877090602401602060405180830381865afa158015610947573d6000803e3d6000fd5b505050506040513d601f19601f8201168201806040525081019061096b91906125eb565b6109ab5760405162461bcd60e51b81526020600482015260116024820152704c656e646572206e6f742061637469766560781b604482015260640161069a565b6000838152600a602090815260408083203384529091529020600381015460ff1615806109e4575080546001600160a01b038381169116145b610a3c5760405162461bcd60e51b815260206004820152602360248201527f416c726561647920706c656467656420746f20646966666572656e74206c656e6044820152623232b960e91b606482015260840161069a565b600381015460ff1615610a685782816001016000828254610a5d919061261e565b90915550610ae59050565b604080516080810182526001600160a01b03848116825260208083018781524284860190815260016060860181815260008c8152600a865288812033825290955296909320945185546001600160a01b0319169416939093178455519083015551600282015590516003909101805460ff19169115159190911790555b6000848152600b602052604081208054859290610b0390849061261e565b90915550506040518381526001600160a01b03831690339086907f066ec26a0c54fb36c0b5034630c05297245b36a4e4b7bcc90075a1f61f964c6d9060200160405180910390a450505050565b6000610b5b8161141e565b610b6361154f565b50565b60608151835114610b975781518351604051635b05999160e01b81526004810192909252602482015260440161069a565b6000835167ffffffffffffffff811115610bb357610bb3612044565b604051908082528060200260200182016040528015610bdc578160200160208202803683370190505b50905060005b8451811015610c3357602080820286010151610c0690602080840287010151610639565b828281518110610c1857610c18612631565b6020908102919091010152610c2c81612647565b9050610be2565b509392505050565b7f9f2df0fed2c77648de5860a4cc508cd0818c85b8b8a1ab4ceeef8d981c8956a6610c658161141e565b600083815260046020526040902054610c905760405162461bcd60e51b815260040161069a90612583565b6000825111610cd65760405162461bcd60e51b815260206004820152601260248201527112541194c81a185cda081c995c5d5a5c995960721b604482015260640161069a565b6000838152600760205260409020610cee83826126a6565b50827faef83f88d7b64742932e336e35ec4ebdbf35e2824c4cc154007911e95b72367e8342604051610d21929190612766565b60405180910390a2505050565b600080600060606000610d4f86600090815260046020526040902054151590565b610d6b5760405162461bcd60e51b815260040161069a90612583565b60008681526004602090815260408083205460098352818420546008808552838620546007865293909520949093528354909390428311908290610dae906125b1565b80601f0160208091040260200160405190810160405280929190818152602001828054610dda906125b1565b8015610e275780601f10610dfc57610100808354040283529160200191610e27565b820191906000526020600020905b815481529060010190602001808311610e0a57829003601f168201915b505050505091509450945094509450945091939590929450565b7f591fa5458fe051cc8c02c405479bd38e00713c98dbd3db209d982048f1e638fa610e6b8161141e565b6000848152600a602090815260408083206001600160a01b03871684529091529020600381015460ff16610ed45760405162461bcd60e51b815260206004820152601060248201526f4e6f2061637469766520706c6564676560801b604482015260640161069a565b8281600101541015610f205760405162461bcd60e51b8152602060048201526015602482015274416d6f756e74206578636565647320706c6564676560581b604482015260640161069a565b82816001016000828254610f349190612788565b90915550506000858152600b602052604081208054859290610f57908490612788565b90915550506001810154600003610f755760038101805460ff191690555b836001600160a01b0316857f3f9040bbb3bb02f02d395d9876058b4bde068529a183546e9327e38dd02f57aa85604051610fb191815260200190565b60405180910390a35050505050565b6000610fcb8161141e565b610b636115a1565b60009182526003602090815260408084206001600160a01b0393909316845291905290205460ff1690565b6110093383836115de565b5050565b6000828152600360205260409020600101546110288161141e565b6107cd83836114bc565b6001600160a01b03918216600090815260016020908152604080832093909416825291909152205460ff1690565b336001600160a01b0386168114801590611081575061107f8682611032565b155b156110b25760405163711bec9160e11b81526001600160a01b0380831660048301528716602482015260440161069a565b6107a08686868686611674565b60007f9f2df0fed2c77648de5860a4cc508cd0818c85b8b8a1ab4ceeef8d981c8956a66110eb8161141e565b6110f3611529565b6001600160a01b0386166111425760405162461bcd60e51b8152602060048201526016602482015275496e76616c6964206661726d6572206164647265737360501b604482015260640161069a565b600085116111895760405162461bcd60e51b815260206004820152601460248201527305175616e74697479206d757374206265203e20360641b604482015260640161069a565b4284116111d85760405162461bcd60e51b815260206004820152601860248201527f457870697279206d75737420626520696e206675747572650000000000000000604482015260640161069a565b600083511161121e5760405162461bcd60e51b815260206004820152601260248201527112541194c81a185cda081c995c5d5a5c995960721b604482015260640161069a565b600654604051634846537360e01b81523360048201526101009091046001600160a01b031690634846537390602401602060405180830381865afa15801561126a573d6000803e3d6000fd5b505050506040513d601f19601f8201168201806040525081019061128e91906125eb565b6112d15760405162461bcd60e51b815260206004820152601460248201527357617265686f757365206e6f742061637469766560601b604482015260640161069a565b600c80549060006112e183612647565b91905055506000600c54905061130887828860405180602001604052806000815250611702565b600081815260076020526040902061132085826126a6565b506000818152600860209081526040808320889055600990915290819020429055516001600160a01b0388169082907f52047fe760138808420a975c4e4a6732cdd982441c59b51699bfdd8e55eace6990611380908a908a908a9061279b565b60405180910390a39695505050505050565b60006001600160e01b03198216637965db0b60e01b148061065b575061065b8261175f565b6001600160a01b0384166113e157604051632bfa23e760e11b81526000600482015260240161069a565b6001600160a01b03851661140a57604051626a0d4560e21b81526000600482015260240161069a565b61141785858585856117af565b5050505050565b610b638133611802565b60006114348383610fd3565b6114b45760008381526003602090815260408083206001600160a01b03861684529091529020805460ff1916600117905561146c3390565b6001600160a01b0316826001600160a01b0316847f2f8788117e7eff1d82e926ec794901d17c78024a50270940304540a733656f0d60405160405180910390a450600161065b565b50600061065b565b60006114c88383610fd3565b156114b45760008381526003602090815260408083206001600160a01b0386168085529252808320805460ff1916905551339286917ff6391f5c32d9c69d2a47ea670b442974b53935d1edc7fd64eb21e047a839171b9190a450600161065b565b60065460ff161561154d5760405163d93c066560e01b815260040160405180910390fd5b565b61155761183b565b6006805460ff191690557f5db9ee0a495bf2e6ff9c91a7834c1ba4fdd244a5e8aa4e537bd38aeae4b073aa335b6040516001600160a01b03909116815260200160405180910390a1565b6115a9611529565b6006805460ff191660011790557f62e78cea01bee320cd4e420270b5ea74000d11b0c9f74754ebdbfc544b05a2586115843390565b6001600160a01b0382166116075760405162ced3e160e81b81526000600482015260240161069a565b6001600160a01b03838116600081815260016020908152604080832094871680845294825291829020805460ff191686151590811790915591519182527f17307eab39ab6107e8899845ad3d59bd9653f200f220920489ca2b5937696c31910160405180910390a3505050565b6001600160a01b03841661169e57604051632bfa23e760e11b81526000600482015260240161069a565b6001600160a01b0385166116c757604051626a0d4560e21b81526000600482015260240161069a565b604080516001808252602082018690528183019081526060820185905260808201909252906116f987878484876117af565b50505050505050565b6001600160a01b03841661172c57604051632bfa23e760e11b81526000600482015260240161069a565b604080516001808252602082018690528183019081526060820185905260808201909252906107a06000878484876117af565b60006001600160e01b03198216636cdb3d1360e11b148061179057506001600160e01b031982166303a24d0760e21b145b8061065b57506301ffc9a760e01b6001600160e01b031983161461065b565b6117bb8585858561185e565b6001600160a01b0384161561141757825133906001036117f457602084810151908401516117ed838989858589611a2b565b50506107a0565b6107a0818787878787611b4f565b61180c8282610fd3565b6110095760405163e2517d3f60e01b81526001600160a01b03821660048201526024810183905260440161069a565b60065460ff1661154d57604051638dfc202b60e01b815260040160405180910390fd5b6001600160a01b0384161580159061187e57506001600160a01b03831615155b15611a1f5760005b8251811015611a1d5760008382815181106118a3576118a3612631565b6020026020010151905060008383815181106118c1576118c1612631565b602002602001015190506118e382600090815260086020526040902054421090565b61192f5760405162461bcd60e51b815260206004820152601f60248201527f43616e6e6f74207472616e736665722065787069726564207265636569707400604482015260640161069a565b6000828152600a602090815260408083206001600160a01b03808c16855290835281842082516080810184528154909216825260018101549382019390935260028301549181019190915260039091015460ff1615156060820181905290919061199a5760006119a0565b81602001515b6119aa8a86610639565b6119b49190612788565b905082811015611a065760405162461bcd60e51b815260206004820152601e60248201527f496e73756666696369656e7420756e706c65646765642062616c616e63650000604482015260640161069a565b505050508080611a1590612647565b915050611886565b505b6107cd84848484611c38565b6001600160a01b0384163b156107a05760405163f23a6e6160e01b81526001600160a01b0385169063f23a6e6190611a6f90899089908890889088906004016127c3565b6020604051808303816000875af1925050508015611aaa575060408051601f3d908101601f19168201909252611aa791810190612808565b60015b611b13573d808015611ad8576040519150601f19603f3d011682016040523d82523d6000602084013e611add565b606091505b508051600003611b0b57604051632bfa23e760e11b81526001600160a01b038616600482015260240161069a565b805160208201fd5b6001600160e01b0319811663f23a6e6160e01b146116f957604051632bfa23e760e11b81526001600160a01b038616600482015260240161069a565b6001600160a01b0384163b156107a05760405163bc197c8160e01b81526001600160a01b0385169063bc197c8190611b939089908990889088908890600401612825565b6020604051808303816000875af1925050508015611bce575060408051601f3d908101601f19168201909252611bcb91810190612808565b60015b611bfc573d808015611ad8576040519150601f19603f3d011682016040523d82523d6000602084013e611add565b6001600160e01b0319811663bc197c8160e01b146116f957604051632bfa23e760e11b81526001600160a01b038616600482015260240161069a565b611c4484848484611d35565b6001600160a01b038416611ccd576000805b8351811015611cb35760208181028481018201519086018201516000908152600490925260408220805491928392611c8f90849061261e565b90915550611c9f9050818461261e565b92505080611cac90612647565b9050611c56565b508060056000828254611cc6919061261e565b9091555050505b6001600160a01b0383166107cd576000805b8351811015611d24576020818102848101820151908601820151600090815260049092526040909120805482900390559190910190611d1d81612647565b9050611cdf565b506005805491909103905550505050565b8051825114611d645781518151604051635b05999160e01b81526004810192909252602482015260440161069a565b3360005b8351811015611e73576020818102858101820151908501909101516001600160a01b03881615611e1b576000828152602081815260408083206001600160a01b038c16845290915290205481811015611df4576040516303dee4c560e01b81526001600160a01b038a16600482015260248101829052604481018390526064810184905260840161069a565b6000838152602081815260408083206001600160a01b038d16845290915290209082900390555b6001600160a01b03871615611e60576000828152602081815260408083206001600160a01b038b16845290915281208054839290611e5a90849061261e565b90915550505b505080611e6c90612647565b9050611d68565b508251600103611ef45760208301516000906020840151909150856001600160a01b0316876001600160a01b0316846001600160a01b03167fc3d58168c5ae7397731d063d5bbf3d657854427343f4c083240f7aacaa2d0f628585604051611ee5929190918252602082015260400190565b60405180910390a45050611417565b836001600160a01b0316856001600160a01b0316826001600160a01b03167f4a39dc06d4c0dbc64b70af90fd698a233a518aa5d07e595d983b8c0526c8f7fb8686604051611f43929190612883565b60405180910390a45050505050565b80356001600160a01b0381168114611f6957600080fd5b919050565b60008060408385031215611f8157600080fd5b611f8a83611f52565b946020939093013593505050565b6001600160e01b031981168114610b6357600080fd5b600060208284031215611fc057600080fd5b8135611fcb81611f98565b9392505050565b600060208284031215611fe457600080fd5b5035919050565b6000815180845260005b8181101561201157602081850181015186830182015201611ff5565b506000602082860101526020601f19601f83011685010191505092915050565b602081526000611fcb6020830184611feb565b634e487b7160e01b600052604160045260246000fd5b604051601f8201601f1916810167ffffffffffffffff8111828210171561208357612083612044565b604052919050565b600067ffffffffffffffff8211156120a5576120a5612044565b5060051b60200190565b600082601f8301126120c057600080fd5b813560206120d56120d08361208b565b61205a565b82815260059290921b840181019181810190868411156120f457600080fd5b8286015b8481101561210f57803583529183019183016120f8565b509695505050505050565b600082601f83011261212b57600080fd5b813567ffffffffffffffff81111561214557612145612044565b612158601f8201601f191660200161205a565b81815284602083860101111561216d57600080fd5b816020850160208301376000918101602001919091529392505050565b600080600080600060a086880312156121a257600080fd5b6121ab86611f52565b94506121b960208701611f52565b9350604086013567ffffffffffffffff808211156121d657600080fd5b6121e289838a016120af565b945060608801359150808211156121f857600080fd5b61220489838a016120af565b9350608088013591508082111561221a57600080fd5b506122278882890161211a565b9150509295509295909350565b6000806040838503121561224757600080fd5b8235915061225760208401611f52565b90509250929050565b60008060006060848603121561227557600080fd5b833592506020840135915061228c60408501611f52565b90509250925092565b600080604083850312156122a857600080fd5b823567ffffffffffffffff808211156122c057600080fd5b818501915085601f8301126122d457600080fd5b813560206122e46120d08361208b565b82815260059290921b8401810191818101908984111561230357600080fd5b948201945b838610156123285761231986611f52565b82529482019490820190612308565b9650508601359250508082111561233e57600080fd5b5061234b858286016120af565b9150509250929050565b600081518084526020808501945080840160005b8381101561238557815187529582019590820190600101612369565b509495945050505050565b602081526000611fcb6020830184612355565b600080604083850312156123b657600080fd5b82359150602083013567ffffffffffffffff8111156123d457600080fd5b61234b8582860161211a565b85815284602082015283604082015260a06060820152600061240560a0830185611feb565b905082151560808301529695505050505050565b60008060006060848603121561242e57600080fd5b8335925061243e60208501611f52565b9150604084013590509250925092565b8015158114610b6357600080fd5b6000806040838503121561246f57600080fd5b61247883611f52565b915060208301356124888161244e565b809150509250929050565b600080604083850312156124a657600080fd5b6124af83611f52565b915061225760208401611f52565b600080600080600060a086880312156124d557600080fd5b6124de86611f52565b94506124ec60208701611f52565b93506040860135925060608601359150608086013567ffffffffffffffff81111561251657600080fd5b6122278882890161211a565b6000806000806080858703121561253857600080fd5b61254185611f52565b93506020850135925060408501359150606085013567ffffffffffffffff81111561256b57600080fd5b6125778782880161211a565b91505092959194509250565b602080825260149082015273151bdad95b88191bd95cc81b9bdd08195e1a5cdd60621b604082015260600190565b600181811c908216806125c557607f821691505b6020821081036125e557634e487b7160e01b600052602260045260246000fd5b50919050565b6000602082840312156125fd57600080fd5b8151611fcb8161244e565b634e487b7160e01b600052601160045260246000fd5b8082018082111561065b5761065b612608565b634e487b7160e01b600052603260045260246000fd5b60006001820161265957612659612608565b5060010190565b601f82111561080657600081815260208120601f850160051c810160208610156126875750805b601f850160051c820191505b818110156107a057828155600101612693565b815167ffffffffffffffff8111156126c0576126c0612044565b6126d4816126ce84546125b1565b84612660565b602080601f83116001811461270957600084156126f15750858301515b600019600386901b1c1916600185901b1785556107a0565b600085815260208120601f198616915b8281101561273857888601518255948401946001909101908401612719565b50858210156127565787850151600019600388901b60f8161c191681555b5050505050600190811b01905550565b6040815260006127796040830185611feb565b90508260208301529392505050565b8181038181111561065b5761065b612608565b8381528260208201526060604082015260006127ba6060830184611feb565b95945050505050565b6001600160a01b03868116825285166020820152604081018490526060810183905260a0608082018190526000906127fd90830184611feb565b979650505050505050565b60006020828403121561281a57600080fd5b8151611fcb81611f98565b6001600160a01b0386811682528516602082015260a06040820181905260009061285190830186612355565b82810360608401526128638186612355565b905082810360808401526128778185611feb565b98975050505050505050565b6040815260006128966040830185612355565b82810360208401526127ba818561235556fea2646970667358221220aff41e4113f88466f100efc4cd0f994077221887cc2020493021459d32feb39564736f6c63430008140033",
  "linkReferences": {},
  "deployedLinkReferences": {}
}