{
  "_format": "hh-sol-artifact-1",
  "contractName": "RangerToken",
  "sourceName": "contracts/RangerToken.sol",
  "abi": [
    {
      "inputs": [
        {
          "internalType": "address",
          "name": "_roleRegistry",
          "type": "address"
        }
      ],
      "stateMutability": "nonpayable",
      "type": "constructor"
    },
    {
      "inputs": [],
      "name": "AccessControlBadConfirmation",
      "type": "error"
    },
    {
      "inputs": [
        {
          "internalType": "address",
          "name": "account",
          "type": "address"
        },
        {
          "internalType": "bytes32",
          "name": "neededRole",
          "type": "bytes32"
        }
      ],
      "name": "AccessControlUnauthorizedAccount",
      "type": "error"
    },
    {
      "inputs": [
        {
          "internalType": "address",
          "name": "sender",
          "type": "address"
        },
        {
          "internalType": "uint256",
          "name": "balance",
          "type": "uint256"
        },
        {
          "internalType": "uint256",
          "name": "needed",
          "type": "uint256"
        },
        {
          "internalType": "uint256",
          "name": "tokenId",
          "type": "uint256"
        }
      ],
      "name": "ERC1155InsufficientBalance",
      "type": "error"
    },
    {
      "inputs": [
        {
          "internalType": "address",
          "name": "approver",
          "type": "address"
        }
      ],
      "name": "ERC1155InvalidApprover",
      "type": "error"
    },
    {
      "inputs": [
        {
          "internalType": "uint256",
          "name": "idsLength",
          "type": "uint256"
        },
        {
          "internalType": "uint256",
          "name": "valuesLength",
          "type": "uint256"
        }
      ],
      "name": "ERC1155InvalidArrayLength",
      "type": "error"
    },
    {
      "inputs": [
        {
          "internalType": "address",
          "name": "operator",
          "type": "address"
        }
      ],
      "name": "ERC1155InvalidOperator",
      "type": "error"
    },
    {
      "inputs": [
        {
          "internalType": "address",
          "name": "receiver",
          "type": "address"
        }
      ],
      "name": "ERC1155InvalidReceiver",
      "type": "error"
    },
    {
      "inputs": [
        {
          "internalType": "address",
          "name": "sender",
          "type": "address"
        }
      ],
      "name": "ERC1155InvalidSender",
      "type": "error"
    },
    {
      "inputs": [
        {
          "internalType": "address",
          "name": "operator",
          "type": "address"
        },
        {
          "internalType": "address",
          "name": "owner",
          "type": "address"
        }
      ],
      "name": "ERC1155MissingApprovalForAll",
      "type": "error"
    },
    {
      "inputs": [],
      "name": "EnforcedPause",
      "type": "error"
    },
    {
      "inputs": [],
      "name": "ExpectedPause",
      "type": "error"
    },
    {
      "anonymous": false,
      "inputs": [
        {
          "indexed": true,
          "internalType": "address",
          "name": "account",
          "type": "address"
        },
        {
          "indexed": true,
          "internalType": "address",
          "name": "operator",
          "type": "address"
        },
        {
          "indexed": false,
          "internalType": "bool",
          "name": "approved",
          "type": "bool"
        }
      ],
      "name": "ApprovalForAll",
      "type": "event"
    },
    {
      "anonymous": false,
      "inputs": [
        {
          "indexed": true,
          "internalType": "uint256",
          "name": "tokenId",
          "type": "uint256"
        },
        {
          "indexed": true,
          "internalType": "address",
          "name": "farmer",
          "type": "address"
        },
        {
          "indexed": true,
          "internalType": "address",
          "name": "lender",
          "type": "address"
        },
        {
          "indexed": false,
          "internalType": "uint256",
          "name": "amount",
          "type": "uint256"
        }
      ],
      "name": "CollateralPledged",
      "type": "event"
    },
    {
      "anonymous": false,
      "inputs": [
        {
          "indexed": true,
          "internalType": "uint256",
          "name": "tokenId",
          "type": "uint256"
        },
        {
          "indexed": true,
          "internalType": "address",
          "name": "farmer",
          "type": "address"
        },
        {
          "indexed": false,
          "internalType": "uint256",
          "name": "amount",
          "type": "uint256"
        }
      ],
      "name": "CollateralUnpledged",
      "type": "event"
    },
    {
      "anonymous": false,
      "inputs": [
        {
          "indexed": true,
          "internalType": "uint256",
          "name": "tokenId",
          "type": "uint256"
        },
        {
          "indexed": false,
          "internalType": "string",
          "name": "newIpfsHash",
          "type": "string"
        },
        {
          "indexed": false,
          "internalType": "uint256",
          "name": "timestamp",
          "type": "uint256"
        }
      ],
      "name": "MetadataUpdated",
      "type": "event"
    },
    {
      "anonymous": false,
      "inputs": [
        {
          "indexed": false,
          "internalType": "address",
          "name": "account",
          "type": "address"
        }
      ],
      "name": "Paused",
      "type": "event"
    },
    {
      "anonymous": false,
      "inputs": [
        {
          "indexed": true,
          "internalType": "uint256",
          "name": "tokenId",
          "type": "uint256"
        },
        {
          "indexed": true,
          "internalType": "address",
          "name": "farmer",
          "type": "address"
        },
        {
          "indexed": false,
          "internalType": "uint256",
          "name": "quantity",
          "type": "uint256"
        },
        {
          "indexed": false,
          "internalType": "uint256",
          "name": "expiryTimestamp",
          "type": "uint256"
        },
        {
          "indexed": false,
          "internalType": "string",
          "name": "ipfsHash",
          "type": "string"
        }
      ],
      "name": "ReceiptIssued",
      "type": "event"
    },
    {
      "anonymous": false,
      "inputs": [
        {
          "indexed": true,
          "internalType": "bytes32",
          "name": "role",
          "type": "bytes32"
        },
        {
          "indexed": true,
          "internalType": "bytes32",
          "name": "previousAdminRole",
          "type": "bytes32"
        },
        {
          "indexed": true,
          "internalType": "bytes32",
          "name": "newAdminRole",
          "type": "bytes32"
        }
      ],
      "name": "RoleAdminChanged",
      "type": "event"
    },
    {
      "anonymous": false,
      "inputs": [
        {
          "indexed": true,
          "internalType": "bytes32",
          "name": "role",
          "type": "bytes32"
        },
        {
          "indexed": true,
          "internalType": "address",
          "name": "account",
          "type": "address"
        },
        {
          "indexed": true,
          "internalType": "address",
          "name": "sender",
          "type": "address"
        }
      ],
      "name": "RoleGranted",
      "type": "event"
    },
    {
      "anonymous": false,
      "inputs": [
        {
          "indexed": true,
          "internalType": "bytes32",
          "name": "role",
          "type": "bytes32"
        },
        {
          "indexed": true,
          "internalType": "address",
          "name": "account",
          "type": "address"
        },
        {
          "indexed": true,
          "internalType": "address",
          "name": "sender",
          "type": "address"
        }
      ],
      "name": "RoleRevoked",
      "type": "event"
    },
    {
      "anonymous": false,
      "inputs": [
        {
          "indexed": true,
          "internalType": "address",
          "name": "operator",
          "type": "address"
        },
        {
          "indexed": true,
          "internalType": "address",
          "name": "from",
          "type": "address"
        },
        {
          "indexed": true,
          "internalType": "address",
          "name": "to",
          "type": "address"
        },
        {
          "indexed": false,
          "internalType": "uint256[]",
          "name": "ids",
          "type": "uint256[]"
        },
        {
          "indexed": false,
          "internalType": "uint256[]",
          "name": "values",
          "type": "uint256[]"
        }
      ],
      "name": "TransferBatch",
      "type": "event"
    },
    {
      "anonymous": false,
      "inputs": [
        {
          "indexed": true,
          "internalType": "address",
          "name": "operator",
          "type": "address"
        },
        {
          "indexed": true,
          "internalType": "address",
          "name": "from",
          "type": "address"
        },
        {
          "indexed": true,
          "internalType": "address",
          "name": "to",
          "type": "address"
        },
        {
          "indexed": false,
          "internalType": "uint256",
          "name": "id",
          "type": "uint256"
        },
        {
          "indexed": false,
          "internalType": "uint256",
          "name": "value",
          "type": "uint256"
        }
      ],
      "name": "TransferSingle",
      "type": "event"
    },
    {
      "anonymous": false,
      "inputs": [
        {
          "indexed": false,
          "internalType": "string",
          "name": "value",
          "type": "string"
        },
        {
          "indexed": true,
          "internalType": "uint256",
          "name": "id",
          "type": "uint256"
        }
      ],
      "name": "URI",
      "type": "event"
    },
    {
      "anonymous": false,
      "inputs": [
        {
          "indexed": false,
          "internalType": "address",
          "name": "account",
          "type": "address"
        }
      ],
      "name": "Unpaused",
      "type": "event"
    },
    {
      "inputs": [],
      "name": "BANK_ROLE",
      "outputs": [
        {
          "internalType": "bytes32",
          "name": "",
          "type": "bytes32"
        }
      ],
      "stateMutability": "view",
      "type": "function"
    },
    {
      "inputs": [],
      "name": "DEFAULT_ADMIN_ROLE",
      "outputs": [
        {
          "internalType": "bytes32",
          "name": "",
          "type": "bytes32"
        }
      ],
      "stateMutability": "view",
      "type": "function"
    },
    {
      "inputs": [],
      "name": "MINTER_ROLE",
      "outputs": [
        {
          "internalType": "bytes32",
          "name": "",
          "type": "bytes32"
        }
      ],
      "stateMutability": "view",
      "type": "function"
    },
    {
      "inputs": [
        {
          "internalType": "address",
          "name": "account",
          "type": "address"
        },
        {
          "internalType": "uint256",
          "name": "id",
          "type": "uint256"
        }
      ],
      "name": "balanceOf",
      "outputs": [
        {
          "internalType": "uint256",
          "name": "",
          "type": "uint256"
        }
      ],
      "stateMutability": "view",
      "type": "function"
    },
    {
      "inputs": [
        {
          "internalType": "address[]",
          "name": "accounts",
          "type": "address[]"
        },
        {
          "internalType": "uint256[]",
          "name": "ids",
          "type": "uint256[]"
        }
      ],
      "name": "balanceOfBatch",
      "outputs": [
        {
          "internalType": "uint256[]",
          "name": "",
          "type": "uint256[]"
        }
      ],
      "stateMutability": "view",
      "type": "function"
    },
    {
      "inputs": [
        {
          "internalType": "uint256",
          "name": "id",
          "type": "uint256"
        }
      ],
      "name": "exists",
      "outputs": [
        {
          "internalType": "bool",
          "name": "",
          "type": "bool"
        }
      ],
      "stateMutability": "view",
      "type": "function"
    },
    {
      "inputs": [
        {
          "internalType": "uint256",
          "name": "tokenId",
          "type": "uint256"
        },
        {
          "internalType": "address",
          "name": "farmer",
          "type": "address"
        }
      ],
      "name": "getPledgeStatus",
      "outputs": [
        {
          "internalType": "bool",
          "name": "isPledged",
          "type": "bool"
        },
        {
          "internalType": "address",
          "name": "lender",
          "type": "address"
        },
        {
          "internalType": "uint256",
          "name": "amount",
          "type": "uint256"
        }
      ],
      "stateMutability": "view",
      "type": "function"
    },
    {
      "inputs": [
        {
          "internalType": "uint256",
          "name": "tokenId",
          "type": "uint256"
        }
      ],
      "name": "getReceiptDetails",
      "outputs": [
        {
          "internalType": "uint256",
          "name": "supply",
          "type": "uint256"
        },
        {
          "internalType": "uint256",
          "name": "creation",
          "type": "uint256"
        },
        {
          "internalType": "uint256",
          "name": "expiry",
          "type": "uint256"
        },
        {
          "internalType": "string",
          "name": "ipfsHash",
          "type": "string"
        },
        {
          "internalType": "bool",
          "name": "valid",
          "type": "bool"
        }
      ],
      "stateMutability": "view",
      "type": "function"
    },
    {
      "inputs": [
        {
          "internalType": "bytes32",
          "name": "role",
          "type": "bytes32"
        }
      ],
      "name": "getRoleAdmin",
      "outputs": [
        {
          "internalType": "bytes32",
          "name": "",
          "type": "bytes32"
        }
      ],
      "stateMutability": "view",
      "type": "function"
    },
    {
      "inputs": [
        {
          "internalType": "uint256",
          "name": "tokenId",
          "type": "uint256"
        }
      ],
      "name": "getTokenMinter",
      "outputs": [
        {
          "internalType": "address",
          "name": "",
          "type": "address"
        }
      ],
      "stateMutability": "view",
      "type": "function"
    },
    {
      "inputs": [
        {
          "internalType": "address",
          "name": "warehouse",
          "type": "address"
        }
      ],
      "name": "getWarehouseTokens",
      "outputs": [
        {
          "internalType": "uint256[]",
          "name": "",
          "type": "uint256[]"
        }
      ],
      "stateMutability": "view",
      "type": "function"
    },
    {
      "inputs": [
        {
          "internalType": "bytes32",
          "name": "role",
          "type": "bytes32"
        },
        {
          "internalType": "address",
          "name": "account",
          "type": "address"
        }
      ],
      "name": "grantRole",
      "outputs": [],
      "stateMutability": "nonpayable",
      "type": "function"
    },
    {
      "inputs": [
        {
          "internalType": "address",
          "name": "warehouse",
          "type": "address"
        }
      ],
      "name": "hasActiveTokens",
      "outputs": [
        {
          "internalType": "bool",
          "name": "",
          "type": "bool"
        }
      ],
      "stateMutability": "view",
      "type": "function"
    },
    {
      "inputs": [
        {
          "internalType": "bytes32",
          "name": "role",
          "type": "bytes32"
        },
        {
          "internalType": "address",
          "name": "account",
          "type": "address"
        }
      ],
      "name": "hasRole",
      "outputs": [
        {
          "internalType": "bool",
          "name": "",
          "type": "bool"
        }
      ],
      "stateMutability": "view",
      "type": "function"
    },
    {
      "inputs": [
        {
          "internalType": "address",
          "name": "account",
          "type": "address"
        },
        {
          "internalType": "address",
          "name": "operator",
          "type": "address"
        }
      ],
      "name": "isApprovedForAll",
      "outputs": [
        {
          "internalType": "bool",
          "name": "",
          "type": "bool"
        }
      ],
      "stateMutability": "view",
      "type": "function"
    },
    {
      "inputs": [
        {
          "internalType": "uint256",
          "name": "tokenId",
          "type": "uint256"
        }
      ],
      "name": "isValid",
      "outputs": [
        {
          "internalType": "bool",
          "name": "",
          "type": "bool"
        }
      ],
      "stateMutability": "view",
      "type": "function"
    },
    {
      "inputs": [
        {
          "internalType": "address",
          "name": "farmer",
          "type": "address"
        },
        {
          "internalType": "uint256",
          "name": "quantity",
          "type": "uint256"
        },
        {
          "internalType": "uint256",
          "name": "expiryTimestamp",
          "type": "uint256"
        },
        {
          "internalType": "string",
          "name": "ipfsHash",
          "type": "string"
        }
      ],
      "name": "issueReceipt",
      "outputs": [
        {
          "internalType": "uint256",
          "name": "",
          "type": "uint256"
        }
      ],
      "stateMutability": "nonpayable",
      "type": "function"
    },
    {
      "inputs": [],
      "name": "pause",
      "outputs": [],
      "stateMutability": "nonpayable",
      "type": "function"
    },
    {
      "inputs": [],
      "name": "paused",
      "outputs": [
        {
          "internalType": "bool",
          "name": "",
          "type": "bool"
        }
      ],
      "stateMutability": "view",
      "type": "function"
    },
    {
      "inputs": [
        {
          "internalType": "uint256",
          "name": "tokenId",
          "type": "uint256"
        },
        {
          "internalType": "uint256",
          "name": "amount",
          "type": "uint256"
        },
        {
          "internalType": "address",
          "name": "lender",
          "type": "address"
        }
      ],
      "name": "pledgeCollateral",
      "outputs": [],
      "stateMutability": "nonpayable",
      "type": "function"
    },
    {
      "inputs": [
        {
          "internalType": "uint256",
          "name": "",
          "type": "uint256"
        },
        {
          "internalType": "address",
          "name": "",
          "type": "address"
        }
      ],
      "name": "pledges",
      "outputs": [
        {
          "internalType": "address",
          "name": "lender",
          "type": "address"
        },
        {
          "internalType": "uint256",
          "name": "amount",
          "type": "uint256"
        },
        {
          "internalType": "uint256",
          "name": "timestamp",
          "type": "uint256"
        },
        {
          "internalType": "bool",
          "name": "isActive",
          "type": "bool"
        }
      ],
      "stateMutability": "view",
      "type": "function"
    },
    {
      "inputs": [
        {
          "internalType": "uint256",
          "name": "",
          "type": "uint256"
        }
      ],
      "name": "receiptCreation",
      "outputs": [
        {
          "internalType": "uint256",
          "name": "",
          "type": "uint256"
        }
      ],
      "stateMutability": "view",
      "type": "function"
    },
    {
      "inputs": [
        {
          "internalType": "uint256",
          "name": "",
          "type": "uint256"
        }
      ],
      "name": "receiptExpiry",
      "outputs": [
        {
          "internalType": "uint256",
          "name": "",
          "type": "uint256"
        }
      ],
      "stateMutability": "view",
      "type": "function"
    },
    {
      "inputs": [
        {
          "internalType": "bytes32",
          "name": "role",
          "type": "bytes32"
        },
        {
          "internalType": "address",
          "name": "callerConfirmation",
          "type": "address"
        }
      ],
      "name": "renounceRole",
      "outputs": [],
      "stateMutability": "nonpayable",
      "type": "function"
    },
    {
      "inputs": [
        {
          "internalType": "bytes32",
          "name": "role",
          "type": "bytes32"
        },
        {
          "internalType": "address",
          "name": "account",
          "type": "address"
        }
      ],
      "name": "revokeRole",
      "outputs": [],
      "stateMutability": "nonpayable",
      "type": "function"
    },
    {
      "inputs": [],
      "name": "roleRegistry",
      "outputs": [
        {
          "internalType": "contract RoleRegistry",
          "name": "",
          "type": "address"
        }
      ],
      "stateMutability": "view",
      "type": "function"
    },
    {
      "inputs": [
        {
          "internalType": "address",
          "name": "from",
          "type": "address"
        },
        {
          "internalType": "address",
          "name": "to",
          "type": "address"
        },
        {
          "internalType": "uint256[]",
          "name": "ids",
          "type": "uint256[]"
        },
        {
          "internalType": "uint256[]",
          "name": "values",
          "type": "uint256[]"
        },
        {
          "internalType": "bytes",
          "name": "data",
          "type": "bytes"
        }
      ],
      "name": "safeBatchTransferFrom",
      "outputs": [],
      "stateMutability": "nonpayable",
      "type": "function"
    },
    {
      "inputs": [
        {
          "internalType": "address",
          "name": "from",
          "type": "address"
        },
        {
          "internalType": "address",
          "name": "to",
          "type": "address"
        },
        {
          "internalType": "uint256",
          "name": "id",
          "type": "uint256"
        },
        {
          "internalType": "uint256",
          "name": "value",
          "type": "uint256"
        },
        {
          "internalType": "bytes",
          "name": "data",
          "type": "bytes"
        }
      ],
      "name": "safeTransferFrom",
      "outputs": [],
      "stateMutability": "nonpayable",
      "type": "function"
    },
    {
      "inputs": [
        {
          "internalType": "address",
          "name": "operator",
          "type": "address"
        },
        {
          "internalType": "bool",
          "name": "approved",
          "type": "bool"
        }
      ],
      "name": "setApprovalForAll",
      "outputs": [],
      "stateMutability": "nonpayable",
      "type": "function"
    },
    {
      "inputs": [
        {
          "internalType": "bytes4",
          "name": "interfaceId",
          "type": "bytes4"
        }
      ],
      "name": "supportsInterface",
      "outputs": [
        {
          "internalType": "bool",
          "name": "",
          "type": "bool"
        }
      ],
      "stateMutability": "view",
      "type": "function"
    },
    {
      "inputs": [
        {
          "internalType": "uint256",
          "name": "",
          "type": "uint256"
        }
      ],
      "name": "tokenMinter",
      "outputs": [
        {
          "internalType": "address",
          "name": "",
          "type": "address"
        }
      ],
      "stateMutability": "view",
      "type": "function"
    },
    {
      "inputs": [
        {
          "internalType": "uint256",
          "name": "",
          "type": "uint256"
        }
      ],
      "name": "totalPledged",
      "outputs": [
        {
          "internalType": "uint256",
          "name": "",
          "type": "uint256"
        }
      ],
      "stateMutability": "view",
      "type": "function"
    },
    {
      "inputs": [],
      "name": "totalSupply",
      "outputs": [
        {
          "internalType": "uint256",
          "name": "",
          "type": "uint256"
        }
      ],
      "stateMutability": "view",
      "type": "function"
    },
    {
      "inputs": [
        {
          "internalType": "uint256",
          "name": "id",
          "type": "uint256"
        }
      ],
      "name": "totalSupply",
      "outputs": [
        {
          "internalType": "uint256",
          "name": "",
          "type": "uint256"
        }
      ],
      "stateMutability": "view",
      "type": "function"
    },
    {
      "inputs": [],
      "name": "unpause",
      "outputs": [],
      "stateMutability": "nonpayable",
      "type": "function"
    },
    {
      "inputs": [
        {
          "internalType": "uint256",
          "name": "tokenId",
          "type": "uint256"
        },
        {
          "internalType": "address",
          "name": "farmer",
          "type": "address"
        },
        {
          "internalType": "uint256",
          "name": "amount",
          "type": "uint256"
        }
      ],
      "name": "unpledgeCollateral",
      "outputs": [],
      "stateMutability": "nonpayable",
      "type": "function"
    },
    {
      "inputs": [
        {
          "internalType": "uint256",
          "name": "tokenId",
          "type": "uint256"
        },
        {
          "internalType": "string",
          "name": "newIpfsHash",
          "type": "string"
        }
      ],
      "name": "updateMetadata",
      "outputs": [],
      "stateMutability": "nonpayable",
      "type": "function"
    },
    {
      "inputs": [
        {
          "internalType": "uint256",
          "name": "tokenId",
          "type": "uint256"
        }
      ],
      "name": "uri",
      "outputs": [
        {
          "internalType": "string",
          "name": "",
          "type": "string"
        }
      ],
      "stateMutability": "view",
      "type": "function"
    }
  ],
  "bytecode": "0x60806040523480156200001157600080fd5b5060405162002e4838038062002e488339810160408190526200003491620001a4565b6040805160208101909152600081526200004e81620000df565b506001600160a01b038116620000aa5760405162461bcd60e51b815260206004820152601860248201527f496e76616c696420726567697374727920616464726573730000000000000000604482015260640160405180910390fd5b60068054610100600160a81b0319166101006001600160a01b03841602179055620000d7600033620000f1565b505062000347565b6002620000ed82826200027b565b5050565b60008281526003602090815260408083206001600160a01b038516845290915281205460ff166200019a5760008381526003602090815260408083206001600160a01b03861684529091529020805460ff19166001179055620001513390565b6001600160a01b0316826001600160a01b0316847f2f8788117e7eff1d82e926ec794901d17c78024a50270940304540a733656f0d60405160405180910390a45060016200019e565b5060005b92915050565b600060208284031215620001b757600080fd5b81516001600160a01b0381168114620001cf57600080fd5b9392505050565b634e487b7160e01b600052604160045260246000fd5b600181811c908216806200020157607f821691505b6020821081036200022257634e487b7160e01b600052602260045260246000fd5b50919050565b601f8211156200027657600081815260208120601f850160051c81016020861015620002515750805b601f850160051c820191505b8181101562000272578281556001016200025d565b5050505b505050565b81516001600160401b03811115620002975762000297620001d6565b620002af81620002a88454620001ec565b8462000228565b602080601f831160018114620002e75760008415620002ce5750858301515b600019600386901b1c1916600185901b17855562000272565b600085815260208120601f198616915b828110156200031857888601518255948401946001909101908401620002f7565b5085821015620003375787850151600019600388901b60f8161c191681555b5050505050600190811b01905550565b612af180620003576000396000f3fe608060405234801561001057600080fd5b50600436106102315760003560e01c806377db25db11610130578063cc0238fa116100b8578063e4f41be11161007c578063e4f41be114610662578063e985e9c514610682578063f242432a14610695578063f577a500146106a8578063fa809d36146106ca57600080fd5b8063cc0238fa14610559578063d0e4f3961461056c578063d539139314610595578063d547741f146105bc578063dec24629146105cf57600080fd5b806391d14854116100ff57806391d14854146104eb57806396eb29a3146104fe578063a217fddf1461051e578063a22cb46514610526578063bd85b0391461053957600080fd5b806377db25db1461042e5780637c57d947146104415780638456cb591461046a5780638e97f5241461047257600080fd5b806336568abe116101be5780634f558e79116101825780634f558e79146103b757806353c8388e146103d95780635c4616a2146103ec5780635c975abb146103ff57806372d7097b1461040a57600080fd5b806336568abe146103495780633ce2cdd21461035c5780633f4ba83a1461036f57806343b71dea146103775780634e1273f41461039757600080fd5b80630eb71432116102055780630eb71432146102cf57806318160ddd146102f6578063248a9ca3146102fe5780632eb2c2d6146103215780632f2ff15d1461033657600080fd5b8062fdd58e1461023657806301ffc9a71461025c57806308c732591461027f5780630e89341c146102af575b600080fd5b610249610244366004612166565b6106dd565b6040519081526020015b60405180910390f35b61026f61026a3660046121a6565b610705565b6040519015158152602001610253565b6006546102979061010090046001600160a01b031681565b6040516001600160a01b039091168152602001610253565b6102c26102bd3660046121ca565b610710565b6040516102539190612229565b6102497f591fa5458fe051cc8c02c405479bd38e00713c98dbd3db209d982048f1e638fa81565b600554610249565b61024961030c3660046121ca565b60009081526003602052604090206001015490565b61033461032f366004612382565b6107e5565b005b61033461034436600461242c565b61084c565b61033461035736600461242c565b610877565b61033461036a366004612458565b6108af565b610334610b8f565b6102496103853660046121ca565b60096020526000908152604090205481565b6103aa6103a536600461248d565b610ba5565b6040516102539190612588565b61026f6103c53660046121ca565b600090815260046020526040902054151590565b6103346103e736600461259b565b610c7a565b61026f6103fa3660046125d8565b610d6d565b60065460ff1661026f565b61041d6104183660046121ca565b610e58565b6040516102539594939291906125f3565b61033461043c36600461262c565b610f6b565b61029761044f3660046121ca565b600a602052600090815260409020546001600160a01b031681565b6103346110ea565b6104bf61048036600461242c565b600d60209081526000928352604080842090915290825290208054600182015460028301546003909301546001600160a01b0390921692909160ff1684565b604080516001600160a01b03909516855260208501939093529183015215156060820152608001610253565b61026f6104f936600461242c565b6110fd565b61024961050c3660046121ca565b600e6020526000908152604090205481565b610249600081565b61033461053436600461266f565b611128565b6102496105473660046121ca565b60009081526004602052604090205490565b6103aa6105673660046125d8565b611137565b61029761057a3660046121ca565b6000908152600a60205260409020546001600160a01b031690565b6102497f9f2df0fed2c77648de5860a4cc508cd0818c85b8b8a1ab4ceeef8d981c8956a681565b6103346105ca36600461242c565b6111a2565b61063d6105dd36600461242c565b6000918252600d602090815260408084206001600160a01b0393841685528252928390208351608081018552815490931680845260018201549284018390526002820154948401949094526003015460ff16151560609092018290529092565b6040805193151584526001600160a01b03909216602084015290820152606001610253565b6102496106703660046121ca565b60086020526000908152604090205481565b61026f6106903660046126a6565b6111c7565b6103346106a33660046126d0565b6111f5565b61026f6106b63660046121ca565b600090815260086020526040902054421090565b6102496106d8366004612735565b611254565b6000818152602081815260408083206001600160a01b03861684529091529020545b92915050565b60006106ff8261158a565b6000818152600460205260409020546060906107475760405162461bcd60e51b815260040161073e90612796565b60405180910390fd5b60008281526007602052604090208054610760906127c4565b80601f016020809104026020016040519081016040528092919081815260200182805461078c906127c4565b80156107d95780601f106107ae576101008083540402835291602001916107d9565b820191906000526020600020905b8154815290600101906020018083116107bc57829003601f168201915b50505050509050919050565b336001600160a01b0386168114801590610806575061080486826111c7565b155b156108375760405163711bec9160e11b81526001600160a01b0380831660048301528716602482015260440161073e565b61084486868686866115af565b505050505050565b60008281526003602052604090206001015461086781611616565b6108718383611620565b50505050565b6001600160a01b03811633146108a05760405163334bd91960e11b815260040160405180910390fd5b6108aa82826116b4565b505050565b6108b7611721565b60008381526008602052604090205442106109065760405162461bcd60e51b815260206004820152600f60248201526e149958d95a5c1d08195e1c1a5c9959608a1b604482015260640161073e565b8161091133856106dd565b10156109565760405162461bcd60e51b8152602060048201526014602482015273496e73756666696369656e742062616c616e636560601b604482015260640161073e565b6000821161099b5760405162461bcd60e51b81526020600482015260126024820152710416d6f756e74206d757374206265203e20360741b604482015260640161073e565b6001600160a01b0381166109ea5760405162461bcd60e51b8152602060048201526016602482015275496e76616c6964206c656e646572206164647265737360501b604482015260640161073e565b6000838152600d602090815260408083203384529091529020600381015460ff161580610a23575080546001600160a01b038381169116145b610a7b5760405162461bcd60e51b815260206004820152602360248201527f416c726561647920706c656467656420746f20646966666572656e74206c656e6044820152623232b960e91b606482015260840161073e565b600381015460ff1615610aa75782816001016000828254610a9c9190612814565b90915550610b249050565b604080516080810182526001600160a01b03848116825260208083018781524284860190815260016060860181815260008c8152600d865288812033825290955296909320945185546001600160a01b0319169416939093178455519083015551600282015590516003909101805460ff19169115159190911790555b6000848152600e602052604081208054859290610b42908490612814565b90915550506040518381526001600160a01b03831690339086907f066ec26a0c54fb36c0b5034630c05297245b36a4e4b7bcc90075a1f61f964c6d9060200160405180910390a450505050565b6000610b9a81611616565b610ba2611747565b50565b60608151835114610bd65781518351604051635b05999160e01b81526004810192909252602482015260440161073e565b6000835167ffffffffffffffff811115610bf257610bf261223c565b604051908082528060200260200182016040528015610c1b578160200160208202803683370190505b50905060005b8451811015610c7257602080820286010151610c45906020808402870101516106dd565b828281518110610c5757610c57612827565b6020908102919091010152610c6b8161283d565b9050610c21565b509392505050565b7f9f2df0fed2c77648de5860a4cc508cd0818c85b8b8a1ab4ceeef8d981c8956a6610ca481611616565b600083815260046020526040902054610ccf5760405162461bcd60e51b815260040161073e90612796565b6000825111610d155760405162461bcd60e51b815260206004820152601260248201527112541194c81a185cda081c995c5d5a5c995960721b604482015260640161073e565b6000838152600760205260409020610d2d838261289c565b50827faef83f88d7b64742932e336e35ec4ebdbf35e2824c4cc154007911e95b72367e8342604051610d6092919061295c565b60405180910390a2505050565b6001600160a01b0381166000908152600b6020908152604080832080548251818502810185019093528083528493830182828015610dca57602002820191906000526020600020905b815481526020019060010190808311610db6575b5050505050905060005b8151811015610e4e576000828281518110610df157610df1612827565b60200260200101519050610e1381600090815260086020526040902054421090565b8015610e2b5750600081815260046020526040812054115b15610e3b57506001949350505050565b5080610e468161283d565b915050610dd4565b5060009392505050565b600080600060606000610e7986600090815260046020526040902054151590565b610e955760405162461bcd60e51b815260040161073e90612796565b60008681526004602090815260408083205460098352818420546008808552838620546007865293909520949093528354909390428311908290610ed8906127c4565b80601f0160208091040260200160405190810160405280929190818152602001828054610f04906127c4565b8015610f515780601f10610f2657610100808354040283529160200191610f51565b820191906000526020600020905b815481529060010190602001808311610f3457829003601f168201915b505050505091509450945094509450945091939590929450565b7f591fa5458fe051cc8c02c405479bd38e00713c98dbd3db209d982048f1e638fa610f9581611616565b6000848152600d602090815260408083206001600160a01b03871684529091529020600381015460ff16610ffe5760405162461bcd60e51b815260206004820152601060248201526f4e6f2061637469766520706c6564676560801b604482015260640161073e565b828160010154101561104a5760405162461bcd60e51b8152602060048201526015602482015274416d6f756e74206578636565647320706c6564676560581b604482015260640161073e565b8281600101600082825461105e919061297e565b90915550506000858152600e60205260408120805485929061108190849061297e565b9091555050600181015460000361109f5760038101805460ff191690555b836001600160a01b0316857f3f9040bbb3bb02f02d395d9876058b4bde068529a183546e9327e38dd02f57aa856040516110db91815260200190565b60405180910390a35050505050565b60006110f581611616565b610ba2611799565b60009182526003602090815260408084206001600160a01b0393909316845291905290205460ff1690565b6111333383836117d6565b5050565b6001600160a01b0381166000908152600b60209081526040918290208054835181840281018401909452808452606093928301828280156107d957602002820191906000526020600020905b8154815260200190600101908083116111835750505050509050919050565b6000828152600360205260409020600101546111bd81611616565b61087183836116b4565b6001600160a01b03918216600090815260016020908152604080832093909416825291909152205460ff1690565b336001600160a01b0386168114801590611216575061121486826111c7565b155b156112475760405163711bec9160e11b81526001600160a01b0380831660048301528716602482015260440161073e565b610844868686868661186c565b60007f9f2df0fed2c77648de5860a4cc508cd0818c85b8b8a1ab4ceeef8d981c8956a661128081611616565b611288611721565b6001600160a01b0386166112d75760405162461bcd60e51b8152602060048201526016602482015275496e76616c6964206661726d6572206164647265737360501b604482015260640161073e565b6000851161131e5760405162461bcd60e51b815260206004820152601460248201527305175616e74697479206d757374206265203e20360641b604482015260640161073e565b42841161136d5760405162461bcd60e51b815260206004820152601860248201527f457870697279206d75737420626520696e206675747572650000000000000000604482015260640161073e565b60008351116113b35760405162461bcd60e51b815260206004820152601260248201527112541194c81a185cda081c995c5d5a5c995960721b604482015260640161073e565b600654604051634846537360e01b81523360048201526101009091046001600160a01b031690634846537390602401602060405180830381865afa1580156113ff573d6000803e3d6000fd5b505050506040513d601f19601f820116820180604052508101906114239190612991565b6114665760405162461bcd60e51b815260206004820152601460248201527357617265686f757365206e6f742061637469766560601b604482015260640161073e565b600f80549060006114768361283d565b91905055506000600f54905061149d878288604051806020016040528060008152506118fa565b60008181526007602052604090206114b5858261289c565b50600081815260086020908152604080832088905560098252808320429055600a825280832080546001600160a01b03191633908117909155808452600b83529083208054600181810183558286529385200185905592529054611519919061297e565b336000908152600c602090815260408083208584529091529081902091909155516001600160a01b0388169082907f52047fe760138808420a975c4e4a6732cdd982441c59b51699bfdd8e55eace6990611578908a908a908a906129ae565b60405180910390a39695505050505050565b60006001600160e01b03198216637965db0b60e01b14806106ff57506106ff82611957565b6001600160a01b0384166115d957604051632bfa23e760e11b81526000600482015260240161073e565b6001600160a01b03851661160257604051626a0d4560e21b81526000600482015260240161073e565b61160f85858585856119a7565b5050505050565b610ba281336119fa565b600061162c83836110fd565b6116ac5760008381526003602090815260408083206001600160a01b03861684529091529020805460ff191660011790556116643390565b6001600160a01b0316826001600160a01b0316847f2f8788117e7eff1d82e926ec794901d17c78024a50270940304540a733656f0d60405160405180910390a45060016106ff565b5060006106ff565b60006116c083836110fd565b156116ac5760008381526003602090815260408083206001600160a01b0386168085529252808320805460ff1916905551339286917ff6391f5c32d9c69d2a47ea670b442974b53935d1edc7fd64eb21e047a839171b9190a45060016106ff565b60065460ff16156117455760405163d93c066560e01b815260040160405180910390fd5b565b61174f611a33565b6006805460ff191690557f5db9ee0a495bf2e6ff9c91a7834c1ba4fdd244a5e8aa4e537bd38aeae4b073aa335b6040516001600160a01b03909116815260200160405180910390a1565b6117a1611721565b6006805460ff191660011790557f62e78cea01bee320cd4e420270b5ea74000d11b0c9f74754ebdbfc544b05a25861177c3390565b6001600160a01b0382166117ff5760405162ced3e160e81b81526000600482015260240161073e565b6001600160a01b03838116600081815260016020908152604080832094871680845294825291829020805460ff191686151590811790915591519182527f17307eab39ab6107e8899845ad3d59bd9653f200f220920489ca2b5937696c31910160405180910390a3505050565b6001600160a01b03841661189657604051632bfa23e760e11b81526000600482015260240161073e565b6001600160a01b0385166118bf57604051626a0d4560e21b81526000600482015260240161073e565b604080516001808252602082018690528183019081526060820185905260808201909252906118f187878484876119a7565b50505050505050565b6001600160a01b03841661192457604051632bfa23e760e11b81526000600482015260240161073e565b604080516001808252602082018690528183019081526060820185905260808201909252906108446000878484876119a7565b60006001600160e01b03198216636cdb3d1360e11b148061198857506001600160e01b031982166303a24d0760e21b145b806106ff57506301ffc9a760e01b6001600160e01b03198316146106ff565b6119b385858585611a56565b6001600160a01b0384161561160f57825133906001036119ec57602084810151908401516119e5838989858589611c23565b5050610844565b610844818787878787611d47565b611a0482826110fd565b6111335760405163e2517d3f60e01b81526001600160a01b03821660048201526024810183905260440161073e565b60065460ff1661174557604051638dfc202b60e01b815260040160405180910390fd5b6001600160a01b03841615801590611a7657506001600160a01b03831615155b15611c175760005b8251811015611c15576000838281518110611a9b57611a9b612827565b602002602001015190506000838381518110611ab957611ab9612827565b60200260200101519050611adb82600090815260086020526040902054421090565b611b275760405162461bcd60e51b815260206004820152601f60248201527f43616e6e6f74207472616e736665722065787069726564207265636569707400604482015260640161073e565b6000828152600d602090815260408083206001600160a01b03808c16855290835281842082516080810184528154909216825260018101549382019390935260028301549181019190915260039091015460ff16151560608201819052909190611b92576000611b98565b81602001515b611ba28a866106dd565b611bac919061297e565b905082811015611bfe5760405162461bcd60e51b815260206004820152601e60248201527f496e73756666696369656e7420756e706c65646765642062616c616e63650000604482015260640161073e565b505050508080611c0d9061283d565b915050611a7e565b505b61087184848484611e30565b6001600160a01b0384163b156108445760405163f23a6e6160e01b81526001600160a01b0385169063f23a6e6190611c6790899089908890889088906004016129d6565b6020604051808303816000875af1925050508015611ca2575060408051601f3d908101601f19168201909252611c9f91810190612a1b565b60015b611d0b573d808015611cd0576040519150601f19603f3d011682016040523d82523d6000602084013e611cd5565b606091505b508051600003611d0357604051632bfa23e760e11b81526001600160a01b038616600482015260240161073e565b805160208201fd5b6001600160e01b0319811663f23a6e6160e01b146118f157604051632bfa23e760e11b81526001600160a01b038616600482015260240161073e565b6001600160a01b0384163b156108445760405163bc197c8160e01b81526001600160a01b0385169063bc197c8190611d8b9089908990889088908890600401612a38565b6020604051808303816000875af1925050508015611dc6575060408051601f3d908101601f19168201909252611dc391810190612a1b565b60015b611df4573d808015611cd0576040519150601f19603f3d011682016040523d82523d6000602084013e611cd5565b6001600160e01b0319811663bc197c8160e01b146118f157604051632bfa23e760e11b81526001600160a01b038616600482015260240161073e565b611e3c84848484611f2d565b6001600160a01b038416611ec5576000805b8351811015611eab5760208181028481018201519086018201516000908152600490925260408220805491928392611e87908490612814565b90915550611e9790508184612814565b92505080611ea49061283d565b9050611e4e565b508060056000828254611ebe9190612814565b9091555050505b6001600160a01b038316610871576000805b8351811015611f1c576020818102848101820151908601820151600090815260049092526040909120805482900390559190910190611f158161283d565b9050611ed7565b506005805491909103905550505050565b8051825114611f5c5781518151604051635b05999160e01b81526004810192909252602482015260440161073e565b3360005b835181101561206b576020818102858101820151908501909101516001600160a01b03881615612013576000828152602081815260408083206001600160a01b038c16845290915290205481811015611fec576040516303dee4c560e01b81526001600160a01b038a16600482015260248101829052604481018390526064810184905260840161073e565b6000838152602081815260408083206001600160a01b038d16845290915290209082900390555b6001600160a01b03871615612058576000828152602081815260408083206001600160a01b038b16845290915281208054839290612052908490612814565b90915550505b5050806120649061283d565b9050611f60565b5082516001036120ec5760208301516000906020840151909150856001600160a01b0316876001600160a01b0316846001600160a01b03167fc3d58168c5ae7397731d063d5bbf3d657854427343f4c083240f7aacaa2d0f6285856040516120dd929190918252602082015260400190565b60405180910390a4505061160f565b836001600160a01b0316856001600160a01b0316826001600160a01b03167f4a39dc06d4c0dbc64b70af90fd698a233a518aa5d07e595d983b8c0526c8f7fb868660405161213b929190612a96565b60405180910390a45050505050565b80356001600160a01b038116811461216157600080fd5b919050565b6000806040838503121561217957600080fd5b6121828361214a565b946020939093013593505050565b6001600160e01b031981168114610ba257600080fd5b6000602082840312156121b857600080fd5b81356121c381612190565b9392505050565b6000602082840312156121dc57600080fd5b5035919050565b6000815180845260005b81811015612209576020818501810151868301820152016121ed565b506000602082860101526020601f19601f83011685010191505092915050565b6020815260006121c360208301846121e3565b634e487b7160e01b600052604160045260246000fd5b604051601f8201601f1916810167ffffffffffffffff8111828210171561227b5761227b61223c565b604052919050565b600067ffffffffffffffff82111561229d5761229d61223c565b5060051b60200190565b600082601f8301126122b857600080fd5b813560206122cd6122c883612283565b612252565b82815260059290921b840181019181810190868411156122ec57600080fd5b8286015b8481101561230757803583529183019183016122f0565b509695505050505050565b600082601f83011261232357600080fd5b813567ffffffffffffffff81111561233d5761233d61223c565b612350601f8201601f1916602001612252565b81815284602083860101111561236557600080fd5b816020850160208301376000918101602001919091529392505050565b600080600080600060a0868803121561239a57600080fd5b6123a38661214a565b94506123b16020870161214a565b9350604086013567ffffffffffffffff808211156123ce57600080fd5b6123da89838a016122a7565b945060608801359150808211156123f057600080fd5b6123fc89838a016122a7565b9350608088013591508082111561241257600080fd5b5061241f88828901612312565b9150509295509295909350565b6000806040838503121561243f57600080fd5b8235915061244f6020840161214a565b90509250929050565b60008060006060848603121561246d57600080fd5b83359250602084013591506124846040850161214a565b90509250925092565b600080604083850312156124a057600080fd5b823567ffffffffffffffff808211156124b857600080fd5b818501915085601f8301126124cc57600080fd5b813560206124dc6122c883612283565b82815260059290921b840181019181810190898411156124fb57600080fd5b948201945b83861015612520576125118661214a565b82529482019490820190612500565b9650508601359250508082111561253657600080fd5b50612543858286016122a7565b9150509250929050565b600081518084526020808501945080840160005b8381101561257d57815187529582019590820190600101612561565b509495945050505050565b6020815260006121c3602083018461254d565b600080604083850312156125ae57600080fd5b82359150602083013567ffffffffffffffff8111156125cc57600080fd5b61254385828601612312565b6000602082840312156125ea57600080fd5b6121c38261214a565b85815284602082015283604082015260a06060820152600061261860a08301856121e3565b905082151560808301529695505050505050565b60008060006060848603121561264157600080fd5b833592506126516020850161214a565b9150604084013590509250925092565b8015158114610ba257600080fd5b6000806040838503121561268257600080fd5b61268b8361214a565b9150602083013561269b81612661565b809150509250929050565b600080604083850312156126b957600080fd5b6126c28361214a565b915061244f6020840161214a565b600080600080600060a086880312156126e857600080fd5b6126f18661214a565b94506126ff6020870161214a565b93506040860135925060608601359150608086013567ffffffffffffffff81111561272957600080fd5b61241f88828901612312565b6000806000806080858703121561274b57600080fd5b6127548561214a565b93506020850135925060408501359150606085013567ffffffffffffffff81111561277e57600080fd5b61278a87828801612312565b91505092959194509250565b602080825260149082015273151bdad95b88191bd95cc81b9bdd08195e1a5cdd60621b604082015260600190565b600181811c908216806127d857607f821691505b6020821081036127f857634e487b7160e01b600052602260045260246000fd5b50919050565b634e487b7160e01b600052601160045260246000fd5b808201808211156106ff576106ff6127fe565b634e487b7160e01b600052603260045260246000fd5b60006001820161284f5761284f6127fe565b5060010190565b601f8211156108aa57600081815260208120601f850160051c8101602086101561287d5750805b601f850160051c820191505b8181101561084457828155600101612889565b815167ffffffffffffffff8111156128b6576128b661223c565b6128ca816128c484546127c4565b84612856565b602080601f8311600181146128ff57600084156128e75750858301515b600019600386901b1c1916600185901b178555610844565b600085815260208120601f198616915b8281101561292e5788860151825594840194600190910190840161290f565b508582101561294c5787850151600019600388901b60f8161c191681555b5050505050600190811b01905550565b60408152600061296f60408301856121e3565b90508260208301529392505050565b818103818111156106ff576106ff6127fe565b6000602082840312156129a357600080fd5b81516121c381612661565b8381528260208201526060604082015260006129cd60608301846121e3565b95945050505050565b6001600160a01b03868116825285166020820152604081018490526060810183905260a060808201819052600090612a10908301846121e3565b979650505050505050565b600060208284031215612a2d57600080fd5b81516121c381612190565b6001600160a01b0386811682528516602082015260a060408201819052600090612a649083018661254d565b8281036060840152612a76818661254d565b90508281036080840152612a8a81856121e3565b98975050505050505050565b604081526000612aa9604083018561254d565b82810360208401526129cd818561254d56fea26469706673582212208e8030bebbc34fba9b3f559cb3abff100494fa82ad0f96733394751ee406265d64736f6c63430008140033",
  "linkReferences": {},
  "deployedLinkReferences": {}
}