{
  "_format": "hh-sol-artifact-1",
  "contractName": "RoleRegistry",
  "sourceName": "contracts/RoleRegistry.sol",
  "abi": [
    {
      "inputs": [],
      "stateMutability": "nonpayable",
      "type": "constructor"
    },
    {
      "inputs": [],
      "name": "AccessControlBadConfirmation",
      "type": "error"
    },
    {
      "inputs": [
        {
          "internalType": "address",
          "name": "account",
          "type": "address"
        },
        {
          "internalType": "bytes32",
          "name": "neededRole",
          "type": "bytes32"
        }
      ],
      "name": "AccessControlUnauthorizedAccount",
      "type": "error"
    },
    {
      "anonymous": false,
      "inputs": [
        {
          "indexed": true,
          "internalType": "address",
          "name": "bank",
          "type": "address"
        },
        {
          "indexed": false,
          "internalType": "uint256",
          "name": "timestamp",
          "type": "uint256"
        }
      ],
      "name": "BankDeactivated",
      "type": "event"
    },
    {
      "anonymous": false,
      "inputs": [
        {
          "indexed": true,
          "internalType": "address",
          "name": "bank",
          "type": "address"
        },
        {
          "indexed": false,
          "internalType": "string",
          "name": "name",
          "type": "string"
        },
        {
          "indexed": false,
          "internalType": "uint256",
          "name": "timestamp",
          "type": "uint256"
        }
      ],
      "name": "BankRegistered",
      "type": "event"
    },
    {
      "anonymous": false,
      "inputs": [
        {
          "indexed": true,
          "internalType": "bytes32",
          "name": "role",
          "type": "bytes32"
        },
        {
          "indexed": true,
          "internalType": "bytes32",
          "name": "previousAdminRole",
          "type": "bytes32"
        },
        {
          "indexed": true,
          "internalType": "bytes32",
          "name": "newAdminRole",
          "type": "bytes32"
        }
      ],
      "name": "RoleAdminChanged",
      "type": "event"
    },
    {
      "anonymous": false,
      "inputs": [
        {
          "indexed": true,
          "internalType": "bytes32",
          "name": "role",
          "type": "bytes32"
        },
        {
          "indexed": true,
          "internalType": "address",
          "name": "account",
          "type": "address"
        },
        {
          "indexed": true,
          "internalType": "address",
          "name": "sender",
          "type": "address"
        }
      ],
      "name": "RoleGranted",
      "type": "event"
    },
    {
      "anonymous": false,
      "inputs": [
        {
          "indexed": true,
          "internalType": "bytes32",
          "name": "role",
          "type": "bytes32"
        },
        {
          "indexed": true,
          "internalType": "address",
          "name": "account",
          "type": "address"
        },
        {
          "indexed": true,
          "internalType": "address",
          "name": "sender",
          "type": "address"
        }
      ],
      "name": "RoleRevoked",
      "type": "event"
    },
    {
      "anonymous": false,
      "inputs": [
        {
          "indexed": true,
          "internalType": "address",
          "name": "operator",
          "type": "address"
        },
        {
          "indexed": false,
          "internalType": "uint256",
          "name": "timestamp",
          "type": "uint256"
        }
      ],
      "name": "WarehouseDeactivated",
      "type": "event"
    },
    {
      "anonymous": false,
      "inputs": [
        {
          "indexed": true,
          "internalType": "address",
          "name": "operator",
          "type": "address"
        },
        {
          "indexed": false,
          "internalType": "string",
          "name": "wdraRegNo",
          "type": "string"
        },
        {
          "indexed": false,
          "internalType": "string",
          "name": "location",
          "type": "string"
        },
        {
          "indexed": false,
          "internalType": "uint256",
          "name": "timestamp",
          "type": "uint256"
        }
      ],
      "name": "WarehouseRegistered",
      "type": "event"
    },
    {
      "inputs": [],
      "name": "DEFAULT_ADMIN_ROLE",
      "outputs": [
        {
          "internalType": "bytes32",
          "name": "",
          "type": "bytes32"
        }
      ],
      "stateMutability": "view",
      "type": "function"
    },
    {
      "inputs": [],
      "name": "REGISTRY_ADMIN_ROLE",
      "outputs": [
        {
          "internalType": "bytes32",
          "name": "",
          "type": "bytes32"
        }
      ],
      "stateMutability": "view",
      "type": "function"
    },
    {
      "inputs": [
        {
          "internalType": "address",
          "name": "",
          "type": "address"
        }
      ],
      "name": "banks",
      "outputs": [
        {
          "internalType": "string",
          "name": "name",
          "type": "string"
        },
        {
          "internalType": "string",
          "name": "licenseNo",
          "type": "string"
        },
        {
          "internalType": "bool",
          "name": "isActive",
          "type": "bool"
        },
        {
          "internalType": "uint256",
          "name": "registrationDate",
          "type": "uint256"
        }
      ],
      "stateMutability": "view",
      "type": "function"
    },
    {
      "inputs": [
        {
          "internalType": "address",
          "name": "bank",
          "type": "address"
        }
      ],
      "name": "deactivateBank",
      "outputs": [],
      "stateMutability": "nonpayable",
      "type": "function"
    },
    {
      "inputs": [
        {
          "internalType": "address",
          "name": "operator",
          "type": "address"
        }
      ],
      "name": "deactivateWarehouse",
      "outputs": [],
      "stateMutability": "nonpayable",
      "type": "function"
    },
    {
      "inputs": [],
      "name": "getAllBanks",
      "outputs": [
        {
          "internalType": "address[]",
          "name": "",
          "type": "address[]"
        }
      ],
      "stateMutability": "view",
      "type": "function"
    },
    {
      "inputs": [],
      "name": "getAllWarehouses",
      "outputs": [
        {
          "internalType": "address[]",
          "name": "",
          "type": "address[]"
        }
      ],
      "stateMutability": "view",
      "type": "function"
    },
    {
      "inputs": [
        {
          "internalType": "bytes32",
          "name": "role",
          "type": "bytes32"
        }
      ],
      "name": "getRoleAdmin",
      "outputs": [
        {
          "internalType": "bytes32",
          "name": "",
          "type": "bytes32"
        }
      ],
      "stateMutability": "view",
      "type": "function"
    },
    {
      "inputs": [
        {
          "internalType": "bytes32",
          "name": "role",
          "type": "bytes32"
        },
        {
          "internalType": "address",
          "name": "account",
          "type": "address"
        }
      ],
      "name": "grantRole",
      "outputs": [],
      "stateMutability": "nonpayable",
      "type": "function"
    },
    {
      "inputs": [
        {
          "internalType": "bytes32",
          "name": "role",
          "type": "bytes32"
        },
        {
          "internalType": "address",
          "name": "account",
          "type": "address"
        }
      ],
      "name": "hasRole",
      "outputs": [
        {
          "internalType": "bool",
          "name": "",
          "type": "bool"
        }
      ],
      "stateMutability": "view",
      "type": "function"
    },
    {
      "inputs": [
        {
          "internalType": "address",
          "name": "bank",
          "type": "address"
        }
      ],
      "name": "isBankActive",
      "outputs": [
        {
          "internalType": "bool",
          "name": "",
          "type": "bool"
        }
      ],
      "stateMutability": "view",
      "type": "function"
    },
    {
      "inputs": [
        {
          "internalType": "address",
          "name": "operator",
          "type": "address"
        }
      ],
      "name": "isWarehouseActive",
      "outputs": [
        {
          "internalType": "bool",
          "name": "",
          "type": "bool"
        }
      ],
      "stateMutability": "view",
      "type": "function"
    },
    {
      "inputs": [],
      "name": "rangerToken",
      "outputs": [
        {
          "internalType": "contract IRangerToken",
          "name": "",
          "type": "address"
        }
      ],
      "stateMutability": "view",
      "type": "function"
    },
    {
      "inputs": [
        {
          "internalType": "address",
          "name": "operator",
          "type": "address"
        }
      ],
      "name": "reactivateWarehouse",
      "outputs": [],
      "stateMutability": "nonpayable",
      "type": "function"
    },
    {
      "inputs": [
        {
          "internalType": "address",
          "name": "bank",
          "type": "address"
        },
        {
          "internalType": "string",
          "name": "name",
          "type": "string"
        },
        {
          "internalType": "string",
          "name": "licenseNo",
          "type": "string"
        }
      ],
      "name": "registerBank",
      "outputs": [],
      "stateMutability": "nonpayable",
      "type": "function"
    },
    {
      "inputs": [
        {
          "internalType": "address",
          "name": "operator",
          "type": "address"
        },
        {
          "internalType": "string",
          "name": "wdraRegNo",
          "type": "string"
        },
        {
          "internalType": "string",
          "name": "location",
          "type": "string"
        }
      ],
      "name": "registerWarehouse",
      "outputs": [],
      "stateMutability": "nonpayable",
      "type": "function"
    },
    {
      "inputs": [
        {
          "internalType": "bytes32",
          "name": "role",
          "type": "bytes32"
        },
        {
          "internalType": "address",
          "name": "callerConfirmation",
          "type": "address"
        }
      ],
      "name": "renounceRole",
      "outputs": [],
      "stateMutability": "nonpayable",
      "type": "function"
    },
    {
      "inputs": [
        {
          "internalType": "bytes32",
          "name": "role",
          "type": "bytes32"
        },
        {
          "internalType": "address",
          "name": "account",
          "type": "address"
        }
      ],
      "name": "revokeRole",
      "outputs": [],
      "stateMutability": "nonpayable",
      "type": "function"
    },
    {
      "inputs": [
        {
          "internalType": "address",
          "name": "_rangerToken",
          "type": "address"
        }
      ],
      "name": "setRangerToken",
      "outputs": [],
      "stateMutability": "nonpayable",
      "type": "function"
    },
    {
      "inputs": [
        {
          "internalType": "bytes4",
          "name": "interfaceId",
          "type": "bytes4"
        }
      ],
      "name": "supportsInterface",
      "outputs": [
        {
          "internalType": "bool",
          "name": "",
          "type": "bool"
        }
      ],
      "stateMutability": "view",
      "type": "function"
    },
    {
      "inputs": [
        {
          "internalType": "address",
          "name": "",
          "type": "address"
        }
      ],
      "name": "warehouses",
      "outputs": [
        {
          "internalType": "string",
          "name": "wdraRegNo",
          "type": "string"
        },
        {
          "internalType": "string",
          "name": "location",
          "type": "string"
        },
        {
          "internalType": "bool",
          "name": "isActive",
          "type": "bool"
        },
        {
          "internalType": "uint256",
          "name": "registrationDate",
          "type": "uint256"
        }
      ],
      "stateMutability": "view",
      "type": "function"
    }
  ],
  "bytecode": "0x608060405234801561001057600080fd5b5061001c60003361004d565b506100477fbb28eb1a0cfabcecf96003fab466159bc2e051e49d79baf049890044e90724403361004d565b506100f9565b6000828152602081815260408083206001600160a01b038516845290915281205460ff166100ef576000838152602081815260408083206001600160a01b03861684529091529020805460ff191660011790556100a73390565b6001600160a01b0316826001600160a01b0316847f2f8788117e7eff1d82e926ec794901d17c78024a50270940304540a733656f0d60405160405180910390a45060016100f3565b5060005b92915050565b6118c880620001096000396000f3fe608060405234801561001057600080fd5b50600436106101375760003560e01c806391d14854116100b8578063bf584c4b1161007c578063bf584c4b146102e6578063bf8bfda1146102fb578063d547741f1461030e578063d92c591114610321578063e2421c9214610329578063f72195761461033c57600080fd5b806391d1485414610278578063951c8a071461028b578063a009444a146102a0578063a217fddf146102cb578063bc23f27b146102d357600080fd5b806348465373116100ff57806348465373146101d057806374ac87701461020057806378a6d1271461022f57806380c3b8c2146102425780638805bdf71461026557600080fd5b806301ffc9a71461013c578063248a9ca3146101645780632f2ff15d1461019557806336568abe146101aa578063401322a7146101bd575b600080fd5b61014f61014a366004611365565b61034f565b60405190151581526020015b60405180910390f35b610187610172366004611396565b60009081526020819052604090206001015490565b60405190815260200161015b565b6101a86101a33660046113cb565b610386565b005b6101a86101b83660046113cb565b6103b1565b6101a86101cb3660046113f7565b6103e9565b61014f6101de3660046113f7565b6001600160a01b03166000908152600260208190526040909120015460ff1690565b61014f61020e3660046113f7565b6001600160a01b031660009081526003602052604090206002015460ff1690565b6101a861023d3660046113f7565b610633565b6102556102503660046113f7565b6108e1565b60405161015b9493929190611458565b6102556102733660046113f7565b610a1d565b61014f6102863660046113cb565b610a38565b610293610a61565b60405161015b9190611491565b6001546102b3906001600160a01b031681565b6040516001600160a01b03909116815260200161015b565b610187600081565b6101a86102e1366004611581565b610ac3565b61018760008051602061187383398151915281565b6101a86103093660046113f7565b610dce565b6101a861031c3660046113cb565b610ea4565b610293610ec9565b6101a8610337366004611581565b610f29565b6101a861034a3660046113f7565b61114f565b60006001600160e01b03198216637965db0b60e01b148061038057506301ffc9a760e01b6001600160e01b03198316145b92915050565b6000828152602081905260409020600101546103a18161121e565b6103ab838361122b565b50505050565b6001600160a01b03811633146103da5760405163334bd91960e11b815260040160405180910390fd5b6103e482826112bd565b505050565b6000805160206118738339815191526104018161121e565b6001600160a01b0382166000908152600260208190526040909120015460ff16156104735760405162461bcd60e51b815260206004820152601860248201527f57617265686f75736520616c726561647920616374697665000000000000000060448201526064015b60405180910390fd5b6001600160a01b03821660009081526002602052604081208054610496906115f5565b9050116104e55760405162461bcd60e51b815260206004820152601860248201527f57617265686f757365206e6f7420726567697374657265640000000000000000604482015260640161046a565b6001600160a01b038083166000908152600260208181526040808420909201805460ff1916600190811790915554825163d539139360e01b815292519394169263d53913939260048082019392918290030181865afa15801561054c573d6000803e3d6000fd5b505050506040513d601f19601f82011682018060405250810190610570919061162f565b600154604051632f2ff15d60e01b8152600481018390526001600160a01b038681166024830152929350911690632f2ff15d90604401600060405180830381600087803b1580156105c057600080fd5b505af11580156105d4573d6000803e3d6000fd5b505050506001600160a01b0383166000818152600260205260409081902090517f4385735c9ed92a63d6231ab99a55b1dc8d50b2fc745550be339a8a8daadccc9e9161062691600182019042906116c5565b60405180910390a2505050565b60008051602061187383398151915261064b8161121e565b6001600160a01b0382166000908152600260208190526040909120015460ff166106ae5760405162461bcd60e51b815260206004820152601460248201527357617265686f757365206e6f742061637469766560601b604482015260640161046a565b6001546001600160a01b0316156107b757600154604051632e230b5160e11b81526001600160a01b03848116600483015290911690635c4616a290602401602060405180830381865afa158015610709573d6000803e3d6000fd5b505050506040513d601f19601f8201168201806040525081019061072d91906116fb565b156107b75760405162461bcd60e51b815260206004820152604e60248201527f43616e6e6f7420646561637469766174653a2057617265686f7573652068617360448201527f2061637469766520746f6b656e732e205761697420666f72206578706972792060648201526d37b9103932b232b6b83a34b7b71760911b608482015260a40161046a565b6001600160a01b038083166000908152600260208181526040808420909201805460ff19169055600154825163d539139360e01b815292519394169263d53913939260048082019392918290030181865afa15801561081a573d6000803e3d6000fd5b505050506040513d601f19601f8201168201806040525081019061083e919061162f565b60015460405163d547741f60e01b8152600481018390526001600160a01b03868116602483015292935091169063d547741f90604401600060405180830381600087803b15801561088e57600080fd5b505af11580156108a2573d6000803e3d6000fd5b50505050826001600160a01b03167f0a8dc58019b6f32a8f3cf10a08ef6310ce4bd98aefc6faf2daba95952c01a3e74260405161062691815260200190565b6003602052600090815260409020805481906108fc906115f5565b80601f0160208091040260200160405190810160405280929190818152602001828054610928906115f5565b80156109755780601f1061094a57610100808354040283529160200191610975565b820191906000526020600020905b81548152906001019060200180831161095857829003601f168201915b50505050509080600101805461098a906115f5565b80601f01602080910402602001604051908101604052809291908181526020018280546109b6906115f5565b8015610a035780601f106109d857610100808354040283529160200191610a03565b820191906000526020600020905b8154815290600101906020018083116109e657829003601f168201915b505050506002830154600390930154919260ff1691905084565b6002602052600090815260409020805481906108fc906115f5565b6000918252602082815260408084206001600160a01b0393909316845291905290205460ff1690565b60606005805480602002602001604051908101604052809291908181526020018280548015610ab957602002820191906000526020600020905b81546001600160a01b03168152600190910190602001808311610a9b575b5050505050905090565b600080516020611873833981519152610adb8161121e565b6001600160a01b038416610b315760405162461bcd60e51b815260206004820152601860248201527f496e76616c6964206f70657261746f7220616464726573730000000000000000604482015260640161046a565b6000835111610b795760405162461bcd60e51b815260206004820152601460248201527315d1149048149959c8139bc81c995c5d5a5c995960621b604482015260640161046a565b6001600160a01b0384166000908152600260208190526040909120015460ff1615610be65760405162461bcd60e51b815260206004820152601c60248201527f57617265686f75736520616c7265616479207265676973746572656400000000604482015260640161046a565b6040805160808101825284815260208082018590526001828401524260608301526001600160a01b038716600090815260029091529190912081518190610c2d908261176b565b5060208201516001820190610c42908261176b565b5060408281015160028301805460ff1916911515919091179055606090920151600390910155600480546001818101835560008381527f8a35acfbc15ff81a39ae7d344fd709f28e8600b4aa8c65c6b64bfe7fe36bd19b90920180546001600160a01b0319166001600160a01b038a8116919091179091559054845163d539139360e01b81529451929491169263d53913939282820192602092908290030181865afa158015610cf6573d6000803e3d6000fd5b505050506040513d601f19601f82011682018060405250810190610d1a919061162f565b600154604051632f2ff15d60e01b8152600481018390526001600160a01b038881166024830152929350911690632f2ff15d90604401600060405180830381600087803b158015610d6a57600080fd5b505af1158015610d7e573d6000803e3d6000fd5b50505050846001600160a01b03167f4385735c9ed92a63d6231ab99a55b1dc8d50b2fc745550be339a8a8daadccc9e858542604051610dbf9392919061182b565b60405180910390a25050505050565b600080516020611873833981519152610de68161121e565b6001600160a01b03821660009081526003602052604090206002015460ff16610e435760405162461bcd60e51b815260206004820152600f60248201526e42616e6b206e6f742061637469766560881b604482015260640161046a565b6001600160a01b03821660008181526003602052604090819020600201805460ff19169055517f0ec16c1695223c0f22b0a1a9053fb68fff31387a85e4877181d428c7cd6a69a190610e989042815260200190565b60405180910390a25050565b600082815260208190526040902060010154610ebf8161121e565b6103ab83836112bd565b60606004805480602002602001604051908101604052809291908181526020018280548015610ab9576020028201919060005260206000209081546001600160a01b03168152600190910190602001808311610a9b575050505050905090565b600080516020611873833981519152610f418161121e565b6001600160a01b038416610f8e5760405162461bcd60e51b8152602060048201526014602482015273496e76616c69642062616e6b206164647265737360601b604482015260640161046a565b6000835111610fd45760405162461bcd60e51b815260206004820152601260248201527110985b9ac81b985b59481c995c5d5a5c995960721b604482015260640161046a565b6001600160a01b03841660009081526003602052604090206002015460ff16156110405760405162461bcd60e51b815260206004820152601760248201527f42616e6b20616c72656164792072656769737465726564000000000000000000604482015260640161046a565b6040805160808101825284815260208082018590526001828401524260608301526001600160a01b038716600090815260039091529190912081518190611087908261176b565b506020820151600182019061109c908261176b565b5060408281015160028301805460ff1916911515919091179055606090920151600390910155600580546001810182556000919091527f036b6384b5eca791c62761152d0c79bb0604c104a5fb6f4eb0703f3154bb3db00180546001600160a01b0319166001600160a01b03871690811790915590517f05f496ea1a3b0d666d614ec7ae01f2cf69148ba4638dfa104c0e3d92446218ba906111419086904290611850565b60405180910390a250505050565b600061115a8161121e565b6001546001600160a01b0316156111b35760405162461bcd60e51b815260206004820152601760248201527f52616e676572546f6b656e20616c726561647920736574000000000000000000604482015260640161046a565b6001600160a01b0382166111fb5760405162461bcd60e51b815260206004820152600f60248201526e496e76616c6964206164647265737360881b604482015260640161046a565b50600180546001600160a01b0319166001600160a01b0392909216919091179055565b6112288133611328565b50565b60006112378383610a38565b6112b5576000838152602081815260408083206001600160a01b03861684529091529020805460ff1916600117905561126d3390565b6001600160a01b0316826001600160a01b0316847f2f8788117e7eff1d82e926ec794901d17c78024a50270940304540a733656f0d60405160405180910390a4506001610380565b506000610380565b60006112c98383610a38565b156112b5576000838152602081815260408083206001600160a01b0386168085529252808320805460ff1916905551339286917ff6391f5c32d9c69d2a47ea670b442974b53935d1edc7fd64eb21e047a839171b9190a4506001610380565b6113328282610a38565b6113615760405163e2517d3f60e01b81526001600160a01b03821660048201526024810183905260440161046a565b5050565b60006020828403121561137757600080fd5b81356001600160e01b03198116811461138f57600080fd5b9392505050565b6000602082840312156113a857600080fd5b5035919050565b80356001600160a01b03811681146113c657600080fd5b919050565b600080604083850312156113de57600080fd5b823591506113ee602084016113af565b90509250929050565b60006020828403121561140957600080fd5b61138f826113af565b6000815180845260005b818110156114385760208185018101518683018201520161141c565b506000602082860101526020601f19601f83011685010191505092915050565b60808152600061146b6080830187611412565b828103602084015261147d8187611412565b941515604084015250506060015292915050565b6020808252825182820181905260009190848201906040850190845b818110156114d25783516001600160a01b0316835292840192918401916001016114ad565b50909695505050505050565b634e487b7160e01b600052604160045260246000fd5b600082601f83011261150557600080fd5b813567ffffffffffffffff80821115611520576115206114de565b604051601f8301601f19908116603f01168101908282118183101715611548576115486114de565b8160405283815286602085880101111561156157600080fd5b836020870160208301376000602085830101528094505050505092915050565b60008060006060848603121561159657600080fd5b61159f846113af565b9250602084013567ffffffffffffffff808211156115bc57600080fd5b6115c8878388016114f4565b935060408601359150808211156115de57600080fd5b506115eb868287016114f4565b9150509250925092565b600181811c9082168061160957607f821691505b60208210810361162957634e487b7160e01b600052602260045260246000fd5b50919050565b60006020828403121561164157600080fd5b5051919050565b60008154611655816115f5565b808552602060018381168015611672576001811461168c576116ba565b60ff1985168884015283151560051b8801830195506116ba565b866000528260002060005b858110156116b25781548a8201860152908301908401611697565b890184019650505b505050505092915050565b6060815260006116d86060830186611648565b82810360208401526116ea8186611648565b915050826040830152949350505050565b60006020828403121561170d57600080fd5b8151801515811461138f57600080fd5b601f8211156103e457600081815260208120601f850160051c810160208610156117445750805b601f850160051c820191505b8181101561176357828155600101611750565b505050505050565b815167ffffffffffffffff811115611785576117856114de565b6117998161179384546115f5565b8461171d565b602080601f8311600181146117ce57600084156117b65750858301515b600019600386901b1c1916600185901b178555611763565b600085815260208120601f198616915b828110156117fd578886015182559484019460019091019084016117de565b508582101561181b5787850151600019600388901b60f8161c191681555b5050505050600190811b01905550565b60608152600061183e6060830186611412565b82810360208401526116ea8186611412565b6040815260006118636040830185611412565b9050826020830152939250505056febb28eb1a0cfabcecf96003fab466159bc2e051e49d79baf049890044e9072440a264697066735822122078f6bb7e32534043377e359e225845f623c11ee16ca19dba5eae5fbb4366331264736f6c63430008140033",
  "linkReferences": {},
  "deployedLinkReferences": {}
}