{
  "_format": "hh-sol-artifact-1",
  "contractName": "RoleRegistry",
  "sourceName": "contracts/RoleRegistry.sol",
  "abi": [
    {
      "inputs": [],
      "stateMutability": "nonpayable",
      "type": "constructor"
    },
    {
      "inputs": [],
      "name": "AccessControlBadConfirmation",
      "type": "error"
    },
    {
      "inputs": [
        {
          "internalType": "address",
          "name": "account",
          "type": "address"
        },
        {
          "internalType": "bytes32",
          "name": "neededRole",
          "type": "bytes32"
        }
      ],
      "name": "AccessControlUnauthorizedAccount",
      "type": "error"
    },
    {
      "anonymous": false,
      "inputs": [
        {
          "indexed": true,
          "internalType": "address",
          "name": "bank",
          "type": "address"
        },
        {
          "indexed": false,
          "internalType": "uint256",
          "name": "timestamp",
          "type": "uint256"
        }
      ],
      "name": "BankDeactivated",
      "type": "event"
    },
    {
      "anonymous": false,
      "inputs": [
        {
          "indexed": true,
          "internalType": "address",
          "name": "bank",
          "type": "address"
        },
        {
          "indexed": false,
          "internalType": "string",
          "name": "name",
          "type": "string"
        },
        {
          "indexed": false,
          "internalType": "uint256",
          "name": "timestamp",
          "type": "uint256"
        }
      ],
      "name": "BankRegistered",
      "type": "event"
    },
    {
      "anonymous": false,
      "inputs": [
        {
          "indexed": true,
          "internalType": "bytes32",
          "name": "role",
          "type": "bytes32"
        },
        {
          "indexed": true,
          "internalType": "bytes32",
          "name": "previousAdminRole",
          "type": "bytes32"
        },
        {
          "indexed": true,
          "internalType": "bytes32",
          "name": "newAdminRole",
          "type": "bytes32"
        }
      ],
      "name": "RoleAdminChanged",
      "type": "event"
    },
    {
      "anonymous": false,
      "inputs": [
        {
          "indexed": true,
          "internalType": "bytes32",
          "name": "role",
          "type": "bytes32"
        },
        {
          "indexed": true,
          "internalType": "address",
          "name": "account",
          "type": "address"
        },
        {
          "indexed": true,
          "internalType": "address",
          "name": "sender",
          "type": "address"
        }
      ],
      "name": "RoleGranted",
      "type": "event"
    },
    {
      "anonymous": false,
      "inputs": [
        {
          "indexed": true,
          "internalType": "bytes32",
          "name": "role",
          "type": "bytes32"
        },
        {
          "indexed": true,
          "internalType": "address",
          "name": "account",
          "type": "address"
        },
        {
          "indexed": true,
          "internalType": "address",
          "name": "sender",
          "type": "address"
        }
      ],
      "name": "RoleRevoked",
      "type": "event"
    },
    {
      "anonymous": false,
      "inputs": [
        {
          "indexed": true,
          "internalType": "address",
          "name": "operator",
          "type": "address"
        },
        {
          "indexed": false,
          "internalType": "uint256",
          "name": "timestamp",
          "type": "uint256"
        }
      ],
      "name": "WarehouseDeactivated",
      "type": "event"
    },
    {
      "anonymous": false,
      "inputs": [
        {
          "indexed": true,
          "internalType": "address",
          "name": "operator",
          "type": "address"
        },
        {
          "indexed": false,
          "internalType": "string",
          "name": "wdraRegNo",
          "type": "string"
        },
        {
          "indexed": false,
          "internalType": "string",
          "name": "location",
          "type": "string"
        },
        {
          "indexed": false,
          "internalType": "uint256",
          "name": "timestamp",
          "type": "uint256"
        }
      ],
      "name": "WarehouseRegistered",
      "type": "event"
    },
    {
      "inputs": [],
      "name": "DEFAULT_ADMIN_ROLE",
      "outputs": [
        {
          "internalType": "bytes32",
          "name": "",
          "type": "bytes32"
        }
      ],
      "stateMutability": "view",
      "type": "function"
    },
    {
      "inputs": [],
      "name": "REGISTRY_ADMIN_ROLE",
      "outputs": [
        {
          "internalType": "bytes32",
          "name": "",
          "type": "bytes32"
        }
      ],
      "stateMutability": "view",
      "type": "function"
    },
    {
      "inputs": [
        {
          "internalType": "address",
          "name": "",
          "type": "address"
        }
      ],
      "name": "banks",
      "outputs": [
        {
          "internalType": "string",
          "name": "name",
          "type": "string"
        },
        {
          "internalType": "string",
          "name": "licenseNo",
          "type": "string"
        },
        {
          "internalType": "bool",
          "name": "isActive",
          "type": "bool"
        },
        {
          "internalType": "uint256",
          "name": "registrationDate",
          "type": "uint256"
        }
      ],
      "stateMutability": "view",
      "type": "function"
    },
    {
      "inputs": [
        {
          "internalType": "address",
          "name": "bank",
          "type": "address"
        }
      ],
      "name": "deactivateBank",
      "outputs": [],
      "stateMutability": "nonpayable",
      "type": "function"
    },
    {
      "inputs": [
        {
          "internalType": "address",
          "name": "operator",
          "type": "address"
        }
      ],
      "name": "deactivateWarehouse",
      "outputs": [],
      "stateMutability": "nonpayable",
      "type": "function"
    },
    {
      "inputs": [],
      "name": "getAllBanks",
      "outputs": [
        {
          "internalType": "address[]",
          "name": "",
          "type": "address[]"
        }
      ],
      "stateMutability": "view",
      "type": "function"
    },
    {
      "inputs": [],
      "name": "getAllWarehouses",
      "outputs": [
        {
          "internalType": "address[]",
          "name": "",
          "type": "address[]"
        }
      ],
      "stateMutability": "view",
      "type": "function"
    },
    {
      "inputs": [
        {
          "internalType": "bytes32",
          "name": "role",
          "type": "bytes32"
        }
      ],
      "name": "getRoleAdmin",
      "outputs": [
        {
          "internalType": "bytes32",
          "name": "",
          "type": "bytes32"
        }
      ],
      "stateMutability": "view",
      "type": "function"
    },
    {
      "inputs": [
        {
          "internalType": "bytes32",
          "name": "role",
          "type": "bytes32"
        },
        {
          "internalType": "address",
          "name": "account",
          "type": "address"
        }
      ],
      "name": "grantRole",
      "outputs": [],
      "stateMutability": "nonpayable",
      "type": "function"
    },
    {
      "inputs": [
        {
          "internalType": "bytes32",
          "name": "role",
          "type": "bytes32"
        },
        {
          "internalType": "address",
          "name": "account",
          "type": "address"
        }
      ],
      "name": "hasRole",
      "outputs": [
        {
          "internalType": "bool",
          "name": "",
          "type": "bool"
        }
      ],
      "stateMutability": "view",
      "type": "function"
    },
    {
      "inputs": [
        {
          "internalType": "address",
          "name": "bank",
          "type": "address"
        }
      ],
      "name": "isBankActive",
      "outputs": [
        {
          "internalType": "bool",
          "name": "",
          "type": "bool"
        }
      ],
      "stateMutability": "view",
      "type": "function"
    },
    {
      "inputs": [
        {
          "internalType": "address",
          "name": "operator",
          "type": "address"
        }
      ],
      "name": "isWarehouseActive",
      "outputs": [
        {
          "internalType": "bool",
          "name": "",
          "type": "bool"
        }
      ],
      "stateMutability": "view",
      "type": "function"
    },
    {
      "inputs": [
        {
          "internalType": "address",
          "name": "bank",
          "type": "address"
        },
        {
          "internalType": "string",
          "name": "name",
          "type": "string"
        },
        {
          "internalType": "string",
          "name": "licenseNo",
          "type": "string"
        }
      ],
      "name": "registerBank",
      "outputs": [],
      "stateMutability": "nonpayable",
      "type": "function"
    },
    {
      "inputs": [
        {
          "internalType": "address",
          "name": "operator",
          "type": "address"
        },
        {
          "internalType": "string",
          "name": "wdraRegNo",
          "type": "string"
        },
        {
          "internalType": "string",
          "name": "location",
          "type": "string"
        }
      ],
      "name": "registerWarehouse",
      "outputs": [],
      "stateMutability": "nonpayable",
      "type": "function"
    },
    {
      "inputs": [
        {
          "internalType": "bytes32",
          "name": "role",
          "type": "bytes32"
        },
        {
          "internalType": "address",
          "name": "callerConfirmation",
          "type": "address"
        }
      ],
      "name": "renounceRole",
      "outputs": [],
      "stateMutability": "nonpayable",
      "type": "function"
    },
    {
      "inputs": [
        {
          "internalType": "bytes32",
          "name": "role",
          "type": "bytes32"
        },
        {
          "internalType": "address",
          "name": "account",
          "type": "address"
        }
      ],
      "name": "revokeRole",
      "outputs": [],
      "stateMutability": "nonpayable",
      "type": "function"
    },
    {
      "inputs": [
        {
          "internalType": "bytes4",
          "name": "interfaceId",
          "type": "bytes4"
        }
      ],
      "name": "supportsInterface",
      "outputs": [
        {
          "internalType": "bool",
          "name": "",
          "type": "bool"
        }
      ],
      "stateMutability": "view",
      "type": "function"
    },
    {
      "inputs": [
        {
          "internalType": "address",
          "name": "",
          "type": "address"
        }
      ],
      "name": "warehouses",
      "outputs": [
        {
          "internalType": "string",
          "name": "wdraRegNo",
          "type": "string"
        },
        {
          "internalType": "string",
          "name": "location",
          "type": "string"
        },
        {
          "internalType": "bool",
          "name": "isActive",
          "type": "bool"
        },
        {
          "internalType": "uint256",
          "name": "registrationDate",
          "type": "uint256"
        }
      ],
      "stateMutability": "view",
      "type": "function"
    }
  ],
  "bytecode": "0x608060405234801561001057600080fd5b5061001c60003361004d565b506100477fbb28eb1a0cfabcecf96003fab466159bc2e051e49d79baf049890044e90724403361004d565b506100f9565b6000828152602081815260408083206001600160a01b038516845290915281205460ff166100ef576000838152602081815260408083206001600160a01b03861684529091529020805460ff191660011790556100a73390565b6001600160a01b0316826001600160a01b0316847f2f8788117e7eff1d82e926ec794901d17c78024a50270940304540a733656f0d60405160405180910390a45060016100f3565b5060005b92915050565b61119f806101086000396000f3fe608060405234801561001057600080fd5b50600436106101165760003560e01c806391d14854116100a2578063bf584c4b11610071578063bf584c4b14610287578063bf8bfda11461029c578063d547741f146102af578063d92c5911146102c2578063e2421c92146102ca57600080fd5b806391d1485414610244578063951c8a0714610257578063a217fddf1461026c578063bc23f27b1461027457600080fd5b806348465373116100e9578063484653731461019c57806374ac8770146101cb57806378a6d127146101fb57806380c3b8c21461020e5780638805bdf71461023157600080fd5b806301ffc9a71461011b578063248a9ca3146101435780632f2ff15d1461017457806336568abe14610189575b600080fd5b61012e610129366004610d19565b6102dd565b60405190151581526020015b60405180910390f35b610166610151366004610d4a565b60009081526020819052604090206001015490565b60405190815260200161013a565b610187610182366004610d7f565b610314565b005b610187610197366004610d7f565b61033f565b61012e6101aa366004610dab565b6001600160a01b031660009081526001602052604090206002015460ff1690565b61012e6101d9366004610dab565b6001600160a01b03166000908152600260208190526040909120015460ff1690565b610187610209366004610dab565b610377565b61022161021c366004610dab565b610457565b60405161013a9493929190610e0c565b61022161023f366004610dab565b610593565b61012e610252366004610d7f565b6105ae565b61025f6105d7565b60405161013a9190610e45565b610166600081565b610187610282366004610f35565b610639565b61016660008051602061114a83398151915281565b6101876102aa366004610dab565b610869565b6101876102bd366004610d7f565b610934565b61025f610959565b6101876102d8366004610f35565b6109b9565b60006001600160e01b03198216637965db0b60e01b148061030e57506301ffc9a760e01b6001600160e01b03198316145b92915050565b60008281526020819052604090206001015461032f81610bd2565b6103398383610bdf565b50505050565b6001600160a01b03811633146103685760405163334bd91960e11b815260040160405180910390fd5b6103728282610c71565b505050565b60008051602061114a83398151915261038f81610bd2565b6001600160a01b03821660009081526001602052604090206002015460ff166103f65760405162461bcd60e51b815260206004820152601460248201527357617265686f757365206e6f742061637469766560601b60448201526064015b60405180910390fd5b6001600160a01b03821660008181526001602052604090819020600201805460ff19169055517f0a8dc58019b6f32a8f3cf10a08ef6310ce4bd98aefc6faf2daba95952c01a3e79061044b9042815260200190565b60405180910390a25050565b60026020526000908152604090208054819061047290610fa9565b80601f016020809104026020016040519081016040528092919081815260200182805461049e90610fa9565b80156104eb5780601f106104c0576101008083540402835291602001916104eb565b820191906000526020600020905b8154815290600101906020018083116104ce57829003601f168201915b50505050509080600101805461050090610fa9565b80601f016020809104026020016040519081016040528092919081815260200182805461052c90610fa9565b80156105795780601f1061054e57610100808354040283529160200191610579565b820191906000526020600020905b81548152906001019060200180831161055c57829003601f168201915b505050506002830154600390930154919260ff1691905084565b60016020526000908152604090208054819061047290610fa9565b6000918252602082815260408084206001600160a01b0393909316845291905290205460ff1690565b6060600480548060200260200160405190810160405280929190818152602001828054801561062f57602002820191906000526020600020905b81546001600160a01b03168152600190910190602001808311610611575b5050505050905090565b60008051602061114a83398151915261065181610bd2565b6001600160a01b0384166106a75760405162461bcd60e51b815260206004820152601860248201527f496e76616c6964206f70657261746f722061646472657373000000000000000060448201526064016103ed565b60008351116106ef5760405162461bcd60e51b815260206004820152601460248201527315d1149048149959c8139bc81c995c5d5a5c995960621b60448201526064016103ed565b6001600160a01b03841660009081526001602052604090206002015460ff161561075b5760405162461bcd60e51b815260206004820152601c60248201527f57617265686f75736520616c726561647920726567697374657265640000000060448201526064016103ed565b60408051608081018252848152602080820185905260018284018190524260608401526001600160a01b0388166000908152915291909120815181906107a19082611031565b50602082015160018201906107b69082611031565b5060408281015160028301805460ff191691151591909117905560609092015160039182015580546001810182556000919091527fc2575a0e9e593c00f959f8c92f12db2869c3395a3b0502d05e2516446f71f85b0180546001600160a01b0319166001600160a01b03871690811790915590517f4385735c9ed92a63d6231ab99a55b1dc8d50b2fc745550be339a8a8daadccc9e9061085b908690869042906110f1565b60405180910390a250505050565b60008051602061114a83398151915261088181610bd2565b6001600160a01b0382166000908152600260208190526040909120015460ff166108df5760405162461bcd60e51b815260206004820152600f60248201526e42616e6b206e6f742061637469766560881b60448201526064016103ed565b6001600160a01b03821660008181526002602081905260409182902001805460ff19169055517f0ec16c1695223c0f22b0a1a9053fb68fff31387a85e4877181d428c7cd6a69a19061044b9042815260200190565b60008281526020819052604090206001015461094f81610bd2565b6103398383610c71565b6060600380548060200260200160405190810160405280929190818152602001828054801561062f576020028201919060005260206000209081546001600160a01b03168152600190910190602001808311610611575050505050905090565b60008051602061114a8339815191526109d181610bd2565b6001600160a01b038416610a1e5760405162461bcd60e51b8152602060048201526014602482015273496e76616c69642062616e6b206164647265737360601b60448201526064016103ed565b6000835111610a645760405162461bcd60e51b815260206004820152601260248201527110985b9ac81b985b59481c995c5d5a5c995960721b60448201526064016103ed565b6001600160a01b0384166000908152600260208190526040909120015460ff1615610ad15760405162461bcd60e51b815260206004820152601760248201527f42616e6b20616c7265616479207265676973746572656400000000000000000060448201526064016103ed565b6040805160808101825284815260208082018590526001828401524260608301526001600160a01b038716600090815260029091529190912081518190610b189082611031565b5060208201516001820190610b2d9082611031565b5060408281015160028301805460ff1916911515919091179055606090920151600390910155600480546001810182556000919091527f8a35acfbc15ff81a39ae7d344fd709f28e8600b4aa8c65c6b64bfe7fe36bd19b0180546001600160a01b0319166001600160a01b03871690811790915590517f05f496ea1a3b0d666d614ec7ae01f2cf69148ba4638dfa104c0e3d92446218ba9061085b9086904290611127565b610bdc8133610cdc565b50565b6000610beb83836105ae565b610c69576000838152602081815260408083206001600160a01b03861684529091529020805460ff19166001179055610c213390565b6001600160a01b0316826001600160a01b0316847f2f8788117e7eff1d82e926ec794901d17c78024a50270940304540a733656f0d60405160405180910390a450600161030e565b50600061030e565b6000610c7d83836105ae565b15610c69576000838152602081815260408083206001600160a01b0386168085529252808320805460ff1916905551339286917ff6391f5c32d9c69d2a47ea670b442974b53935d1edc7fd64eb21e047a839171b9190a450600161030e565b610ce682826105ae565b610d155760405163e2517d3f60e01b81526001600160a01b0382166004820152602481018390526044016103ed565b5050565b600060208284031215610d2b57600080fd5b81356001600160e01b031981168114610d4357600080fd5b9392505050565b600060208284031215610d5c57600080fd5b5035919050565b80356001600160a01b0381168114610d7a57600080fd5b919050565b60008060408385031215610d9257600080fd5b82359150610da260208401610d63565b90509250929050565b600060208284031215610dbd57600080fd5b610d4382610d63565b6000815180845260005b81811015610dec57602081850181015186830182015201610dd0565b506000602082860101526020601f19601f83011685010191505092915050565b608081526000610e1f6080830187610dc6565b8281036020840152610e318187610dc6565b941515604084015250506060015292915050565b6020808252825182820181905260009190848201906040850190845b81811015610e865783516001600160a01b031683529284019291840191600101610e61565b50909695505050505050565b634e487b7160e01b600052604160045260246000fd5b600082601f830112610eb957600080fd5b813567ffffffffffffffff80821115610ed457610ed4610e92565b604051601f8301601f19908116603f01168101908282118183101715610efc57610efc610e92565b81604052838152866020858801011115610f1557600080fd5b836020870160208301376000602085830101528094505050505092915050565b600080600060608486031215610f4a57600080fd5b610f5384610d63565b9250602084013567ffffffffffffffff80821115610f7057600080fd5b610f7c87838801610ea8565b93506040860135915080821115610f9257600080fd5b50610f9f86828701610ea8565b9150509250925092565b600181811c90821680610fbd57607f821691505b602082108103610fdd57634e487b7160e01b600052602260045260246000fd5b50919050565b601f82111561037257600081815260208120601f850160051c8101602086101561100a5750805b601f850160051c820191505b8181101561102957828155600101611016565b505050505050565b815167ffffffffffffffff81111561104b5761104b610e92565b61105f816110598454610fa9565b84610fe3565b602080601f831160018114611094576000841561107c5750858301515b600019600386901b1c1916600185901b178555611029565b600085815260208120601f198616915b828110156110c3578886015182559484019460019091019084016110a4565b50858210156110e15787850151600019600388901b60f8161c191681555b5050505050600190811b01905550565b6060815260006111046060830186610dc6565b82810360208401526111168186610dc6565b915050826040830152949350505050565b60408152600061113a6040830185610dc6565b9050826020830152939250505056febb28eb1a0cfabcecf96003fab466159bc2e051e49d79baf049890044e9072440a264697066735822122058c145966b36388affde70a4c9eb62db2c3615fc66109a25f64a0f7926ebbd4564736f6c63430008140033",
  "linkReferences": {},
  "deployedLinkReferences": {}
}